:100000000C94AE010C94EA1F0C9415200C94402023
:100010000C946B200C9496200C94C1200C94EC2032
:100020000C9417210C94DF010C94DF010C94DF0178
:100030000C94DF010C94DF010C94DF010C94DF01C0
:100040000C94DF010C94DF010C94DF010C94DF01B0
:100050000C94DF010C94DF010C94DF010C9442211D
:100060000C94DF010C94A4240C94DA240C94DF018A
:100070000C94DF010C94DF010C94DF010C94DF0180
:100080000C94DF010C94DF010C94DF010C94DF0170
:100090000C94DF010C94DF010C94DF010C94240C10
:1000A0000C94DF010C94DF010C94DF010C94DF0150
:1000B0000C94DF010C94DF010C94DF010C94DF0140
:1000C0000C94DF010C94DF010C94DF010C94DF0130
:1000D0000C94DF010C94DF010C94DF010C94DF0120
:1000E0000C94DF01C41F8E1F961FA21FAF1FD01FCD
:1000F000DD1F5D2260224F22532259229722642263
:1001000068226E22722276227C228022842297220A
:100110008A228E229222072C7AA5BA6CC590DA3BED
:100120009365FC8BBC53F810FD3C5692834DBD8704
:100130009D3AB63DCBC9BF5BBE73DA0FC93F05A878
:100140004CCDB2D44EB93836A9020C50B99186883C
:10015000083CA6AAAA2ABE000000803F0664EC1B49
:100160003C04BC163E3BE5B93CC93C37C29E5A3DF7
:10017000660498083EEA69AAAA3E000000803F0093
:100180000C9497220C943A0B0C948E220C946125BB
:100190000C9460220C943E0A0C945D230C94DD1F99
:1001A0000C947C220C94781F0C944F220C94C30363
:1001B0000C941B0A0C94AF1F0C94130A0C94682225
:1001C0000C9453220C9484220C943D0A0C94BB236F
:1001D0000C9472220C9459220C945D220C94D01F22
:1001E0000C946D1F0C942E0A0C940E250C94A702EF
:1001F0000C946E220C9430230C948A220C943B2392
:100200000C9476220C9480220C94C41F0C944923E5
:100210000C946B0A0C94961F0C9464220C948E1F01
:100220000C94DD230C94A21F0C9404250C94550D02
:100230000C94922200000A0B02090C0D0E08070311
:1002400004010000000000000000000000000000A9
:10025000000000000000000000000000000000009E
:10026000121110000000000000000000000000005B
:100270000000000000000000000001021020200823
:1002800008102040102040800201020108040201F1
:100290000102040810204080804020100804020160
:1002A00080040201804020100804020108040201B9
:1002B0000102040810204080010204081020408040
:1002C00005050505070508080808020202020A0AD2
:1002D00008080404040401010101010101010303F0
:1002E000030303030303040707070C0C0C0C0C0C9B
:1002F0000C0C0202020206060606060606060B0B98
:100300000B0B0B0B0B0B0000200023002600290019
:100310002C002F003200000100000301060109013A
:1003200000002200250028002B002E0031003400A0
:1003300002010000050108010B010000210024005A
:1003400027002A002D0030003300010100000401C5
:1003500007010A01C3033A0B6D1F0E2511241FBEAE
:10036000CFEFD1E2DEBFCDBF00E00CBF17E0A0E0D1
:10037000B2E0E6EAFDE500E00BBF02C007900D9297
:10038000A233B107D9F728E0A2E3B7E001C01D927C
:10039000A33DB207E1F713E0CCE5D3E000E006C0EF
:1003A00022970109FE010BBF0E944C2CC435D107D6
:1003B00080E00807A9F70E9452250C94D12E0C94D6
:1003C00000000F93FC01138212828CE492E091836F
:1003D0008083648340872187028788E083870F9129
:1003E00008951F93CF93DF93EC01162F6C8182E366
:1003F00097E00E94B40AE0913207F09133076B85D1
:10040000612B0190F081E02D82E397E0199582E362
:1004100097E0DF91CF911F910C94370B1F93CF93EF
:10042000DF93EC01162F64600E94F10181E090E0FF
:100430000E94D721612F6B7FCE010E94F10182E3E0
:1004400090E0DF91CF911F910C94D7211F93CF9310
:10045000DF93EC01162F0E94F101612FCE01DF9195
:10046000CF911F910C940E02EF92FF921F93CF93A6
:10047000DF931F92CDB7DEB77C01162F607F642B10
:1004800049830E94260280E1189FB001112449810E
:10049000642BC7010F90DF91CF911F91FF90EF90D8
:1004A0000C94260240E00C94340261E00E94520257
:1004B00080ED97E00C94D72162E00E94520280ED1B
:1004C00097E00C94D721CF93DF93CDB7DEB7289771
:1004D0000FB6F894DEBF0FBECDBF28E0EAE3F2E02E
:1004E000DE01119601900D922A95E1F7FC0121851C
:1004F000241710F44FEF420FFE013196E40FF11D67
:10050000E40FF11D2081260F2068622F28960FB678
:10051000F894DEBF0FBECDBFDF91CF910C94520295
:10052000FC016681262F246026836C600C945202A5
:10053000FC0166816E7F668368600C945202FC0148
:100540006681262F2160268369600C94520241E067
:100550000E94340281E090E00895CF93DF93EC0194
:1005600082E397E00E94AA0A1D828985823010F0FA
:1005700098E09D839A85992329F0813019F48D8123
:1005800084608D8362E370E080E090E00E94AF21A0
:100590006B85CE010E94F10168EE73E080E090E08F
:1005A0000E94AF2160E3CE010E94260284E991E11E
:1005B0000E94D72160E3CE010E94260284E991E1E6
:1005C0000E94D72160E3CE010E94260286E990E0D6
:1005D0000E94D72160E2CE010E9426026D816062F6
:1005E000CE010E94520284E08E83CE010E949002CE
:1005F000CE010E94550282E08F8366E0CE010E9408
:100600005202CE01DF91CF910C945C02DC01ED919E
:10061000FC910190F081E02D1994CF93DF93EC01D0
:1006200068E670E082E397E00E94BE0A6EE070E048
:1006300082E397E00E9406032091060230910702B0
:10064000279711F4216001C02360309307022093A3
:100650000602609106027091070282E397E00E9411
:10066000060382E397E0DF91CF910C94370B68E6A5
:1006700070E082E397E00E94BE0A6FE070E082E3E0
:1006800097E00E94060360E070E082E397E00E943A
:10069000060382E397E00C94370BCF93DF93EC01D2
:1006A00068E670E082E397E00E94BE0A6EE070E0C8
:1006B00082E397E00E940603809106029091070270
:1006C000C130D10569F02CF4CD2B89F4877E9927B0
:1006D0000AC0C230D10531F0239749F4886103C0C4
:1006E000886001C080619093070280930602609148
:1006F00006027091070282E397E00E94060382E3FC
:1007000097E0DF91CF910C94370B6AE00E94A02B09
:1007100020E1829F900D1124892F0895982F9295A2
:100720009F708F702AE0929F800D1124089568E6D3
:1007300070E082E397E00E94BE0A6FE070E082E31F
:1007400097E00E94060360E870E082E397E00E9471
:10075000060382E397E00C94370B68E670E082E3CF
:1007600097E00E94BE0A6FE070E082E397E00E948B
:10077000060360E070E082E397E00E94060382E3F4
:1007800097E00C94370B82E397E00C94AA0AEF925F
:10079000FF920F931F93CF93DF931F921F92CDB7BA
:1007A000DEB77C018B016730710549F06B30710554
:1007B00049F06115710541F447E050E005C044E09F
:1007C00050E002C043E050E068E670E082E397E06A
:1007D00049835A830E94BE0AB80182E397E00E94CF
:1007E000060382E397E00E94370B49815A8168E64D
:1007F00070E082E397E00E94340B0B30110541F06A
:1008000082E397E00E941B0A0E948E03F701808317
:1008100082E397E00E941B0A0E948E03F701818306
:1008200082E397E00E941B0A0E948E03F7018283F5
:1008300082E397E00730110519F00B30110549F4F8
:100840000E941B0A0E948E03F70184831582168280
:100850001FC00E941B0A0E948E03F701838382E35C
:1008600097E00E941B0A0E948E03F701848382E3B3
:1008700097E00E941B0A0E948E03F701858382E3A2
:1008800097E00E941B0A0E948E03825EF701868316
:100890000F900F90DF91CF911F910F91FF90EF90EC
:1008A0000895CF93DF93CDB7DEB727970FB6F894AF
:1008B000DEBF0FBECDBFBC01CE0101960E94C703B3
:1008C000CE0101960E94C70527960FB6F894DEBFA9
:1008D0000FBECDBFDF91CF9108950F931F93CF939C
:1008E000DF93EC018B0168E670E082E397E00E9401
:1008F000BE0AB80182E397E00E9406030B3011059F
:1009000041F088810E948503682F82E397E00E946E
:100910006B0A89810E948503682F82E397E00E9419
:100920006B0A8A810E948503682F82E397E00E9408
:100930006B0A0730110519F00B30110511F48C8189
:100940001AC08B810E948503682F82E397E00E9482
:100950006B0A8C810E948503682F82E397E00E94D6
:100960006B0A8D810E948503682F82E397E00E94C5
:100970006B0A8E818E510E948503682F82E397E077
:100980000E946B0A82E397E0DF91CF911F910F9154
:100990000C94370B0F931F93CF93DF93CDB7DEB734
:1009A00027970FB6F894DEBF0FBECDBF8A01AE0108
:1009B0004F5F5F4F0E94F0040E949703B801CE0181
:1009C00001960E946D040E94AD0327960FB6F8941D
:1009D000DEBF0FBECDBFDF91CF911F910F91089564
:1009E0006F927F928F929F92AF92BF92CF92DF923F
:1009F000EF92FF920F931F93CF93DF93EA012CE3C3
:100A0000C22ED12CE12CF12CA70196010E94D42BEF
:100A10006883CA01B901A70196010E94D42B69839A
:100A2000CA01B90128E130E040E050E00E94D42B37
:100A300049015A016A83CA01B9016C5F7F4F8F4F28
:100A40009F4F27E030E040E050E00E94D42B6F5FE2
:100A50006B8300E010E0980140E054E6652E712CB5
:100A600060E9C62EDD24D394E42FF0E0EE54F84F75
:100A70007F0183E0E822FF24E114F10489F4CF012F
:100A8000B3010E94C02B892B29F08EE691E0A0E0F3
:100A9000B0E00AC0CF01B6010E94C02B892BA9F398
:100AA0008DE691E0A0E0B0E0080F191F2A1F3B1F60
:100AB000D901C801AA27BB2788169906AA06BB0632
:100AC00010F04F5FD1CF4E83E114F10499F4CF01C0
:100AD00064E670E00E94C02B892B29F08EE691E03D
:100AE000A0E0B0E00BC0CF0160E971E00E94C02B34
:100AF000892BA1F38DE691E0A0E0B0E0081B190B73
:100B00002A0B3B0B801A910AA20AB30ACF0164E6B2
:100B100070E00E94C02B9C01CF0160E971E00E944F
:100B2000C02BE0E5F2E0A0E0A13059F4E114F104BB
:100B300051F42115310511F04DE106C00097E1F3A4
:100B400002C0408101C04CE150E060E070E08416DA
:100B50009506A606B70640F0841A950AA60AB70AB3
:100B6000AF5F3196AC3001F7AF5FAD8383948C8279
:100B7000DF91CF911F910F91FF90EF90DF90CF9079
:100B8000BF90AF909F908F907F906F9008956F92DD
:100B90007F928F929F92AF92BF92CF92DF92EF920D
:100BA000FF920F931F93CF93DF93FC01C680AC2D70
:100BB000B0E020E833E341EE51E00E94392C4B01D4
:100BC0005C0122EB37E06D01C4E6D0E000E911E002
:100BD000C901825B97408C159D05DCF4C9018370C7
:100BE0009927892B99F4C901BE010E94C02B892B3A
:100BF00031F4C901B8010E94C02B892B39F480E877
:100C0000880E81E5981E81E0A81EB11C2F5F3F4F22
:100C1000DFCF6580712C8EE4C81A88EFD80AC60130
:100C200064E670E00E94C02B8C01C60160E971E0AF
:100C30000E94C02B7C01C1E0D0E083E0C822DD240B
:100C4000C615D7052CF5C230D10589F4C114D104DD
:100C500071F40115110519F4E114F10441F480E86F
:100C6000880E8BE3981E86E2A81EB11C0FC0DE0121
:100C7000A15BBD4FAC91B0E020E831E541E050E030
:100C80000E94392C860E971EA81EB91E2196D8CF19
:100C90004181228130E0A0E1BEE00E94232C6B0163
:100CA0007C01242F30E0ACE3B0E00E94232CC60E80
:100CB000D71EE81EF91E8081C80ED11CE11CF11C54
:100CC000A481B0E0119720E831E541E050E00E94B6
:100CD000442CC60ED71EE81EF91EC80CD91CEA1CEF
:100CE000FB1CC701B601DF91CF911F910F91FF90BF
:100CF000EF90DF90CF90BF90AF909F908F907F90BC
:100D00006F900895FC0140E050E068ED71E440838D
:100D100051836283738340E050E064EA72EC448361
:100D200055836683778384ED9EEF9187808783E088
:100D3000828782E083878BE0848781E085878CE3EC
:100D4000868708959B0177FF04C022273327261B3F
:100D5000370B213D32402CF4FC017187608781E024
:100D6000089580E008958F929F92AF92BF92CF92A4
:100D7000DF92EF92FF920F931F93CF93DF93EC01DB
:100D80006A017B0148015901C901B8019F7720E040
:100D900030E044E353E40E94A42A1816ACF020E0AB
:100DA00030E044EB52E4C701B6019F770E94A42AC9
:100DB000181654F0C882D982EA82FB828C829D8206
:100DC000AE82BF8281E001C080E0DF91CF911F91B0
:100DD0000F91FF90EF90DF90CF90BF90AF909F90DA
:100DE0008F9008959B01CB0183709927892B39F44B
:100DF000CB0164E670E00E94C02B892B59F4C90135
:100E000060E971E00E94C02B21E0892B09F020E00D
:100E1000822F089581E00895FB01658124812230AD
:100E200049F470E06053784F0E94F206882361F025
:100E30008DE10895822F8170283010F091E089278C
:100E4000882321F08FE108958CE108958EE10895C3
:100E50008F929F92AF92BF92CF92DF92EF92FF92CA
:100E60000F931F93CF93DF938C01EB0169017A01FC
:100E70008981C80ED11CE11CF11CC701B6012CE30D
:100E800030E040E050E00E94F62B49015A01F601A3
:100E9000C601D7FE04C0882799278C199D096CE3E9
:100EA00070E00E94C02BF7FF02C0AFEF01C0A1E0CD
:100EB0009C01BB27A7FDB0950E941B2C645C7F4F53
:100EC0008F4F9F4F2CE330E040E050E00E94F62B24
:100ED00069838A81880E911CA11CB11CC501B401D3
:100EE00028E130E040E050E00E94F62B69017A01F1
:100EF000F401C40197FE04C088279927881999092D
:100F000068E170E00E94C02BF7FF02C0AFEF01C0A4
:100F1000A1E09C01BB27A7FDB0950E941B2C685E39
:100F20007F4F8F4F9F4F28E130E040E050E00E941C
:100F3000F62B6A838B81C80ED11CE11CF11CBE010B
:100F4000C8010E940C0790E0A0E0B0E08C159D0560
:100F5000AE05BF0554F4C81AD90AEA0AFB0A81E0B3
:100F60008C0D8B838C818F5F8C831C141D041E045D
:100F70001F044CF08C8181508C83BE01C8010E94FB
:100F80000C078C0D8B838D8190E0A0E0B0E02C816C
:100F9000211105C02CE02C830197A109B1092C81F6
:100FA0002D3028F021E02C830196A11DB11DBC013C
:100FB000CD016C597F4F8F4F9F4F24E630E040E0CA
:100FC00050E00E94F62B6D83DF91CF911F910F911E
:100FD000FF90EF90DF90CF90BF90AF909F908F9059
:100FE00008952F923F924F925F926F927F928F92CD
:100FF0009F92AF92BF92CF92DF92EF92FF920F93A8
:101000001F93CF93DF93CDB7DEB76D970FB6F894EC
:10101000DEBF0FBECDBF1C018B014D8FDB011496CF
:10102000FC901497FA941396BC90BA94DC01149631
:101030008D919D910D90BC91A02D8D8B9E8BAF8B32
:10104000B88F21EE3EE245E652E4F1016081718104
:10105000828193810E94E02869837A838B839C83B9
:10106000FD8DF11103C066E0A62E02C052E1A52E4F
:101070006F2D70E080E090E00E947B2920E030E856
:1010800043EF51E40E94A82A6B017C016B2D70E0B4
:1010900080E090E00E947B299B01AC01C701B60172
:1010A0000E9479286B017C016A2D70E080E090E05D
:1010B0000E947B2920E030E040EC51E40E94E028CF
:1010C0009B01AC01C701B6010E94792822E43DECE6
:1010D0004CE85CE30E94A82A6B017C010E94DD2899
:1010E0006D837E838F839887C701B6010E940B2B87
:1010F00069877A878B879C87A7019601C701B6010C
:101100000E9479284B015C010E94DD286D877E8753
:101110008F87988BC501B4010E940B2B698B7A8B4A
:101120008B8B9C8B20E030E040E450E4C701B6019B
:101130000E94A82A6B017C010E94DD282B013C0142
:10114000C701B6010E940B2B6B017C0124E431EC3A
:101150004CEC5EE36D817E818F8198850E94A82A88
:101160009B01AC0164E670EB82EE9BE30E94782861
:101170004B015C0127EE32EE4FE85DE369857A852D
:101180008B859C850E94A82A9B01AC01C501B401F6
:101190000E9479284B015C0126E332E74DED5BE3C9
:1011A0006D857E858F8598890E94A82A9B01AC0158
:1011B000C501B4010E9478284B015C012DEB33EC92
:1011C0004DE65AE369897A898B899C890E94A82A0D
:1011D0009B01AC01C501B4010E9479284B015C015F
:1011E00027E230EC40E35BE3C301B2010E94A82A8E
:1011F0009B01AC01C501B4010E9478284B015C0140
:101200002FE83CEF41EC5AE3C701B6010E94A82A3F
:101210009B01AC01C501B4010E9479284B015C011E
:1012200069817A818B819C810E94DD282B013C01A0
:10123000C501B4010E94DD289B01AC0169817A815E
:101240008B819C81298F3A8F4B8F5C8F0E94532B0F
:101250006B017C01C501B4010E94532B4B015C0161
:10126000298D3A8D4B8D5C8DC301B2010E94A82A55
:101270009B01AC0168E879E48EE69CEB0E94E028D3
:101280002B013C01A5019401C701B6010E94A82AC7
:101290009B01AC01C301B2010E9478286B017C0163
:1012A0009F7720E030E040E85FE30E94A42A181610
:1012B0000CF499C0C701B6010E946A286B017C0139
:1012C0008D8D811104C0F7FAF094F7F8F0946D89D0
:1012D0007E898F89988D905821EE3EE245E652E452
:1012E0000E94E028A70196010E94782820E030E0C3
:1012F00040E850E40E94A82A21EE3EE245E652E48E
:101300000E94A82A20E030E044E354E40E947928B7
:101310006B017C012EEA37ED44EF5AE36D817E814B
:101320008F8198850E94A82A22E539E44DE958E387
:101330000E9479284B015C012CE233E643E05DE337
:1013400069857A858B859C850E94A82A9B01AC01C2
:10135000C501B4010E9478284B015C0121EC33E700
:101360004FE65CE36D857E858F8598890E94A82A6B
:101370009B01AC01C501B4010E9478284B015C01BE
:1013800028E431E547E25DE369897A898B899C89A4
:101390000E94A82A9B01AC01C501B4010E947828D3
:1013A00024E13EE245E653E40E94A82A9B01AC01F9
:1013B000C701B6010E9478280E944829D1011896D9
:1013C0002D913C911997260F371FF8011282118237
:1013D0001082442737FD4095542FB801C1010E9467
:1013E000280781E001C080E06D960FB6F894DEBF5B
:1013F0000FBECDBFDF91CF911F910F91FF90EF9066
:10140000DF90CF90BF90AF909F908F907F906F9024
:101410005F904F903F902F90089541E00C94F1071A
:1014200040E00C94F1078091620790E020916307FF
:10143000821B910908952091630780916207281704
:1014400050F4E22FF0E0EC59F84F808190E02F5FEC
:101450002093630708958FEF9FEF0895E09163074E
:1014600080916207E81730F4F0E0EC59F84F808182
:1014700090E008958FEF9FEF08950895CF92DF9247
:10148000EF92FF920F931F93CF93DF937C01CB01D9
:101490008A0120913E07222389F0EB016B01C40EE3
:1014A000D51ECC15DD0569F06991D701ED91FC9150
:1014B0000190F081E02DC7011995F3CF642F0E94B0
:1014C000FB0BC801DF91CF911F910F91FF90EF901F
:1014D000DF90CF900895CF93DF931F92CDB7DEB703
:1014E000698320913E072223D1F020913F072032CB
:1014F00040F021E030E0FC013383228380E090E083
:1015000015C080914007E82FF0E0EF5BF84F99811C
:1015100090838F5F8093400780933F0705C061E011
:10152000CE0101960E94FB0B81E090E00F90DF91CD
:10153000CF910895FC011382128248EE53E060E0DF
:1015400070E0448355836683778380E692E09183DD
:1015500080830895109263071092620710924007EB
:1015600010923F070C943E0B81E080933E076093FE
:1015700061071092400710923F0708950C94B40A37
:101580000F93062F21E040913F0761E477E08091BF
:1015900061070E94A40B1092400710923F0710921F
:1015A0003E070F9108958F929F92AF92BF92CF9274
:1015B000DF92EF92FF920F931F93CF93DF93EC0193
:1015C000F62ED42E48015901EE2019F10E94B40ADA
:1015D0001E2D143008F013E01150B8F0E881F981A5
:1015E00028E0129FB0011124A501940104C0569572
:1015F0004795379527956A95D2F7CA01B9010190A9
:10160000F081E02DCE011995E7CF60E0CE010E9478
:10161000C00A4D2D413208F040E22C2D64E677E0FF
:101620008F2D0E945C0B1092630780936207DF91FD
:10163000CF911F910F91FF90EF90DF90CF90BF90CF
:10164000AF909F908F900895CF92EF920F931F933A
:10165000C22EE12C00E010E098010E94D30A1F91F5
:101660000F91EF90CF90089521E00C94240B61E04E
:101670000C94C00A82E397E00C949A0A1092F10746
:1016800081E08093EF071092EE0761E084E10E9411
:10169000D12261E085E10E94D122E9EBF0E0808176
:1016A0008E7F808380818D7F808388E48093B800E3
:1016B00085E48093BC000895413208F043C09091C6
:1016C000F1079111FCCF91E09093F1072093EF0780
:1016D0002FEF209384071092C907240F2093C80787
:1016E0009093F0079091F007880F892B8093F00773
:1016F0008091EE07813061F41092EE078091F0073F
:101700008093BB008091BC0083FDF8CF85EC01C0C5
:1017100085EE8093BC008091F1078130E1F38091E8
:10172000C907841710F44091C9072AEC37E0FB0180
:10173000D9018A2F821B841718F48D918193F9CFD8
:10174000842F089580E008950F93413208F04AC035
:101750009091F1079111FCCF92E09093F1070093E3
:10176000EF079FEF909384071092C9074093C80733
:10177000FB016AEC77E0DB019A2F961B941718F4B3
:1017800091919D93F9CF1092F0079091F007880FF7
:10179000892B8093F0078091EE07813061F41092DD
:1017A000EE078091F0078093BB008091BC0083FD21
:1017B000F8CF85EC01C085EE8093BC00222321F098
:1017C0008091F1078230E1F3809184078F3F61F0CF
:1017D00080918407803251F080918407803341F4F6
:1017E00083E007C081E005C080E003C082E001C063
:1017F00084E00F910895613298F42091F10724302C
:1018000089F46093A607FC0188EA97E0DC012A2F9F
:10181000281B261718F421912D93F9CF80E0089505
:1018200081E0089582E0089585ED8093BC00809169
:10183000BC0084FDFCCF1092F107089585EC8093E5
:10184000BC001092F10708951F920F920FB60F92ED
:1018500011240BB60F922F933F934F935F936F9387
:101860007F938F939F93AF93BF93EF93FF93809159
:10187000B900887F803609F49EC078F5883209F473
:101880005DC090F4803109F456C038F4882309F41F
:10189000F5C0883009F44FC0F5C0883109F44EC056
:1018A000803209F45FC0EEC0803409F46AC058F495
:1018B000803309F457C0883309F0E4C0809384076B
:1018C0000E941E0CDFC0803509F44FC0883509F432
:1018D0005DC0883409F0D6C0D3C0883909F4C4C0CB
:1018E000A8F4883709F467C038F4883609F463C06F
:1018F000803709F460C0C6C0883809F4B5C08039A3
:1019000009F45FC0803809F0BDC05BC0803B09F4BA
:1019100083C038F4803A09F466C0883A09F47CC080
:10192000B1C0803C09F4A4C0883C09F4A1C0883B44
:1019300009F487C0A7C08091F00710C09091C90733
:101940008091C807981770F5E091C90781E08E0F64
:101950008093C907F0E0E653F84F80818093BB0085
:1019600085EC83C0809384078BC0E091C90781E038
:101970008E0F8093C9078091BB00F0E0E653F84FCB
:1019800080839091C9078091C8076BC0E091C90717
:1019900081E08E0F8093C9078091BB00F0E0E65391
:1019A000F84F80838091EF0781116AC081E08093B6
:1019B000EE0784EA5EC083E08093F107109285070A
:1019C000CFCF80918507803208F04EC0E091850727
:1019D00081E08E0F809385078091BB00F0E0EA578D
:1019E000F84F8083BDCF0E941E0C80918507803206
:1019F00030F4E0918507F0E0EA57F84F10826091EB
:101A0000850770E0E091EA07F091EB0786E897E040
:101A100019951092850736C084E08093F1071092E3
:101A2000A7071092A607E091EC07F091ED07199532
:101A30008091A607811105C081E08093A6071092CE
:101A4000A807E091A70781E08E0F8093A707F0E039
:101A5000E855F84F80818093BB009091A707809153
:101A6000A607981708F47CCF85E88093BC000AC0CD
:101A700085EC8093BC001092F10704C0109284079B
:101A80000E94140CFF91EF91BF91AF919F918F91A4
:101A90007F916F915F914F913F912F910F900BBE6E
:101AA0000F900FBE0F901F90189581E0809327082C
:101AB00008950F931F93CF93DF93CDB7DEB765974C
:101AC0000FB6F894DEBF0FBECDBF96E0E2E4F2E0C1
:101AD000DE01509601900D929A95E1F78B8B6C8BFD
:101AE0004D8BCE0101960E94820680912802909132
:101AF00029022CE3289FB001299F700D1124CE01EB
:101B000001960E94A20603EC15EF2CE031EC48E4AC
:101B100051EE68E272E4CE0101960E94B306BE0166
:101B2000605F7F4FCE0101960E940D0A2A892093A3
:101B3000230889898093240890E03CE3239F800D4B
:101B4000911D11249093220880932108BE01605FAB
:101B50007F4FCE0101960E94100A2A892093260801
:101B600089898093250890E03CE3239F800D911D97
:101B700011249093200880931F0865960FB6F8945F
:101B8000DEBF0FBECDBFDF91CF911F910F910895A2
:101B90006CE672E082E398E00C94CC25EF92FF9221
:101BA0000F931F93CF93DF93CDB7DEB72C970FB66C
:101BB000F894DEBF0FBECDBF93E1E92E98E0F92E79
:101BC00000E010E0C8010E94AB2E90E0F701819385
:101BD00091937F010F5F1F4F0630110599F70E9407
:101BE000C80D4AE066E070E0CE0107960E94C22769
:101BF0006CE872E0CE0101960E941B27BE01695F6E
:101C00007F4FCE0101960E942E2868E972E00E9463
:101C10004128BC0182E398E00E94BA25CE010196DA
:101C20000E94AD26CE0107960E94AD2687E0E82EE1
:101C300088E0F82EC8010E94AB2E90E0F701819356
:101C400091937F010F5F1F4F0C30110599F70E9490
:101C5000C80D4AE06CE070E0CE0107960E94C227F2
:101C60006CE872E0CE0101960E941B27BE01695FFD
:101C70007F4FCE0101960E942E2868E972E00E94F3
:101C80004128BC0182E398E00E94BA25CE0101966A
:101C90000E94AD26CE0107960E94AD262C960FB667
:101CA000F894DEBF0FBECDBFDF91CF911F910F9192
:101CB000FF90EF900895EF92FF920F931F93CF93B1
:101CC000DF93CDB7DEB72C970FB6F894DEBF0FBE0B
:101CD000CDBF33E1E32E38E0F32E00E010E0F70152
:101CE0006081F2E0EF0EF11CC8010E94B32E0F5F7D
:101CF0001F4F0630110599F70E94C80D4AE066E0B3
:101D000070E0CE0107960E9496276CEB72E0CE0140
:101D100001960E941B27BE01695F7F4FCE0101968D
:101D20000E942E286AEC72E00E944128BC0182E3E6
:101D300098E00E94BA25CE0101960E94AD26CE0100
:101D400007960E94AD2627E0E22E28E0F22EF7014A
:101D50006081F2E0EF0EF11CC8010E94B32E0F5F0C
:101D60001F4F0C30110599F70E94C80D4AE06CE036
:101D700070E0CE0107960E9496276CEB72E0CE01D0
:101D800001960E941B27BE01695F7F4FCE0101961D
:101D90000E942E2861EF72E00E944128BC0182E37C
:101DA00098E00E94BA25CE0101960E94AD26CE0190
:101DB00007960E94AD262C960FB6F894DEBF0FBE94
:101DC000CDBFDF91CF911F910F91FF90EF900895BC
:101DD000CF93DF93CDB7DEB72C970FB6F894DEBF65
:101DE0000FBECDBF4AE0BC01CE0107960E949627E8
:101DF00068E173E0CE0101960E941B27BE01695F76
:101E00007F4FCE0101960E942E28BC0182E398E00C
:101E10000E94BA25CE0101960E94AD26CE010796FA
:101E20000E94AD262C960FB6F894DEBF0FBECDBF34
:101E3000DF91CF9108950F931F93CF93DF93CDB789
:101E4000DEB72C970FB6F894DEBF0FBECDBF00E013
:101E500010E061E0C8010E94B32E0F5F1F4F0630F3
:101E60001105B9F706E010E061E0C8010E94B32E49
:101E70000F5F1F4F0C301105B9F76DE08CE090E05B
:101E80000E94B32E00E010E0C8010E94AB2E81300A
:101E900021F087E090E00E94E80E0F5F1F4F0930AD
:101EA000110591F709E010E0C8010E94AB2E8130C6
:101EB00021F087E090E00E94E80E0F5F1F4F023193
:101EC000110591F782E190E00E94AB2E8D3021F058
:101ED00088E090E00E94E80E0E94C80D4AE062E1AE
:101EE00070E0CE0107960E94962764E273E0CE016F
:101EF00001960E941B27BE01695F7F4FCE010196AC
:101F00000E942E2869E273E00E944128BC0182E30E
:101F100098E00E94BA25CE0101960E94AD26CE011E
:101F200007960E94AD262C960FB6F894DEBF0FBE22
:101F3000CDBFDF91CF911F910F910895EF920F9335
:101F4000CF93DF93CDB7DEB727970FB6F894DEBFF8
:101F50000FBECDBF9EE4940F9F836E838D832B8332
:101F60000A83E98240932102509322026093260261
:101F7000809327022093230200932402CE0101962E
:101F80000E94C70540E050E00E94CA0481E090E052
:101F90000E944D0327960FB6F894DEBF0FBECDBF4B
:101FA000DF91CF910F91EF9008958F929F92AF9212
:101FB000BF92CF92DF92EF92FF92CF93DF93CDB794
:101FC000DEB72E970FB6F894DEBF0FBECDBF80E010
:101FD00090E00E9451044B015C0187E090E00E9478
:101FE00051046B017C01AE01485F5F4FC501B40134
:101FF0000E94F004AE014F5F5F4FC701B6010E941F
:10200000F0048A85A3E2B2E08C938985E4E2F2E0F1
:1020100080838E8590E08E54984F90932202809317
:1020200021028D85809326028C85809327028B85E3
:10203000809325022C91808190E03CE3239F800DCA
:10204000911D112490930608809305082E960FB6D3
:10205000F894DEBF0FBECDBFDF91CF91FF90EF9020
:10206000DF90CF90BF90AF909F908F900895609138
:10207000270270E04AE050E082E398E00E94812667
:102080006DE473E082E398E00E94AD256091260242
:1020900070E04AE050E082E398E00E9481266DE41F
:1020A00073E082E398E00E94AD2560912102709177
:1020B00022024AE050E082E398E00E9481266DE827
:1020C00073E082E398E00E94AD256091230270E006
:1020D0004AE050E082E398E00E94812668EC76E0D6
:1020E00082E398E00E94AD25809124028A3028F492
:1020F00060E382E398E00E94AF25609124024AE009
:1021000050E082E398E00C949626CF93DF93CDB70E
:10211000DEB72C970FB6F894DEBF0FBECDBFBC0163
:102120004AE0CE016A307105E0F407960E94C227AA
:102130006FE473E0CE0101960E941B27BE01695F28
:102140007F4FCE0101960E942E28BC0185EF97E0BB
:102150000E949F25CE0101960E94AD26CE010796D2
:102160000CC001960E94C227BE016F5F7F4F85EFB2
:1021700097E00E949F25CE0101960E94AD262C96E5
:102180000FB6F894DEBF0FBECDBFDF91CF9108959B
:10219000CF93DF93CDB7DEB72C970FB6F894DEBFA1
:1021A0000FBECDBF60EA70E080E090E00E94AF21FA
:1021B00085EF97E00E945502609101087091020836
:1021C0004AE0CE0107960E94C22761E573E0CE0186
:1021D00001960E941B27BE01695F7F4FCE010196C9
:1021E0000E942E28BC0185EF97E00E949F25CE011A
:1021F00001960E94AD26CE0107960E94AD268091E1
:10220000130890911408009769F441E060E085EFAD
:1022100097E00E9463026DE573E085EF97E00E940E
:10222000AD253DC00197B9F541E060E085EF97E04D
:102230000E94630269E673E085EF97E00E94AD2596
:1022400042E060E085EF97E00E94630262E773E09E
:1022500085EF97E00E94AD2543E060E085EF97E0D1
:102260000E94630263E873E085EF97E00E94AD256A
:1022700080911708909118080E94851068EC76E00C
:1022800085EF97E00E94AD258091190890911A087A
:102290000E94851004C08AE090E00E94E80E2C960F
:1022A0000FB6F894DEBF0FBECDBFDF91CF9108957A
:1022B000CF93DF93CDB7DEB72C970FB6F894DEBF80
:1022C0000FBECDBF60EA70E080E090E00E94AF21D9
:1022D00085EF97E00E945502609101087091020815
:1022E0004AE0CE0107960E94C22761E573E0CE0165
:1022F00001960E941B27BE01695F7F4FCE010196A8
:102300000E942E28BC0185EF97E00E949F25CE01F8
:1023100001960E94AD26CE0107960E94AD268091BF
:10232000070890910808009749F441E060E085EFC4
:1023300097E00E9463026DE573E034C00197B9F540
:1023400041E060E085EF97E00E94630269E673E098
:1023500085EF97E00E94AD2542E060E085EF97E0D1
:102360000E9463026FE873E085EF97E00E94AD255D
:1023700080910B0890910C080E94851068EC76E023
:1023800085EF97E00E94AD2580910D0890910E0891
:102390000E94851043E060E085EF97E00E946302B1
:1023A0006BE973E085EF97E00E94AD2504C08AE0F9
:1023B00090E00E94E80E2C960FB6F894DEBF0FBE98
:1023C000CDBFDF91CF910895CF93DF93CDB7DEB727
:1023D0002C970FB6F894DEBF0FBECDBF40E060E093
:1023E00085EF97E00E9463028091270290E00E94AF
:1023F00085106DE473E085EF97E00E94AD25809134
:10240000260290E00E9485106DE473E085EF97E06E
:102410000E94AD2560912102709122024AE0CE0116
:1024200001960E949627BE016F5F7F4F85EF97E070
:102430000E949F25CE0101960E94AD2641E062E0F8
:1024400085EF97E00E94630280912302609123024E
:102450004AE08A30A0F4CE0107960E9469276FE413
:1024600073E0CE0101960E941B27BE01695F7F4F7A
:10247000CE0101960E942E2868EC76E00FC0CE01B6
:1024800007960E946927BE01695F7F4FCE010196C2
:102490000E94482768EC76E0CE0101960E94412810
:1024A000BC0185EF97E00E949F25CE0101960E9416
:1024B000AD26CE0107960E94AD2680912402609140
:1024C00024024AE08A30E8F4CE0107960E94692788
:1024D0006FE473E0CE0101960E941B27BE01695F85
:1024E0007F4FCE0101960E942E28BC0185EF97E018
:1024F0000E949F25CE0101960E94AD26CE0107962F
:102500000DC0CE0101960E946927BE016F5F7F4F0B
:1025100085EF97E00E949F25CE0101960E94AD268F
:1025200040E06FE085EF97E00E946302809123080E
:102530008A3030F46FE473E085EF97E00E94AD25B8
:102540004AE060912308CE0107960E946927BE01E8
:10255000695F7F4FCE0101960E94482768EC76E0C4
:10256000CE0101960E944128BC0185EF97E00E94B0
:102570009F25CE0101960E94AD26CE0107960E94AE
:10258000AD26809124088A3030F46FE473E085EF43
:1025900097E00E94AD254AE060912408CE010196A3
:1025A0000E946927BE016F5F7F4F85EF97E00E9411
:1025B0009F25CE0101960E94AD2641E06FE085EF98
:1025C00097E00E946302809126088A3030F46FE41D
:1025D00073E085EF97E00E94AD254AE06091260800
:1025E000CE0107960E946927BE01695F7F4FCE0129
:1025F00001960E94482768EC76E0CE0101960E9481
:102600004128BC0185EF97E00E949F25CE010196ED
:102610000E94AD26CE0107960E94AD268091250826
:102620008A3030F46FE473E085EF97E00E94AD25C7
:102630004AE060912508CE0101960E946927BE01FB
:102640006F5F7F4F85EF97E00E949F25CE01019637
:102650000E94AD2642E062E085EF97E00E946302AF
:102660006BEA73E085EF97E00E94AD2543E062E0FE
:1026700085EF97E00E9463028091F407882319F0A8
:1026800061EB73E002C06DE873E085EF97E00E94B4
:10269000AD2543E064E085EF97E00E9463028091FE
:1026A000F307882319F061EB73E002C06DE873E073
:1026B00085EF97E00E94AD2543E066E085EF97E067
:1026C0000E9463028091F207882319F061EB73E0A6
:1026D00002C06DE873E085EF97E00E94AD252C966F
:1026E0000FB6F894DEBF0FBECDBFDF91CF91089536
:1026F00085EF97E00E9455028091030890910408AD
:102700000097C9F48091010890910208009711F494
:102710000C94E4118130910519F463EB73E004C06B
:10272000029731F46DEB73E085EF97E00C94AD25E3
:1027300081E090E008C28130910509F09BC0809152
:10274000010890910208009779F467EC73E085EF37
:1027500097E00E94AD2541E060E085EF97E00E94A0
:10276000630260ED73E09DC08130910579F464EF00
:1027700073E085EF97E00E94AD2541E060E085EFD2
:1027800097E00E94630266E074E011C08230910518
:10279000D9F46FE274E085EF97E00E94AD2541E047
:1027A00060E085EF97E00E94630261E474E085EFEA
:1027B00097E00E94AD2542E060E085EF97E00E943F
:1027C000630269E174E01DC08330910539F56FE261
:1027D00074E085EF97E00E94AD2541E060E085EF71
:1027E00097E00E94630266E074E085EF97E00E9444
:1027F000AD2542E060E085EF97E00E94630264E56A
:1028000074E085EF97E00E94AD2543E060E085EF3E
:1028100097E00E94630264E274E086CF049739F582
:102820006FE274E085EF97E00E94AD2541E060E043
:1028300085EF97E00E94630266E074E085EF97E021
:102840000E94AD2542E060E085EF97E00E946302C0
:1028500069E174E085EF97E00E94AD2543E060E018
:1028600085EF97E00E9463026FE574E05DCF82E040
:1028700090E069C18230910569F5809101089091DD
:1028800002080097D9F46AE674E085EF97E00E94A9
:10289000AD2541E060E085EF97E00E94630263E7C9
:1028A00074E085EF97E00E94AD2542E060E085EF9F
:1028B00097E00E94630260EE73E030C081309105C2
:1028C00011F40C94C810029711F40C94581183E081
:1028D00090E039C18330910509F07DC080910108F5
:1028E00090910208009739F56AE674E085EF97E069
:1028F0000E94AD2541E060E085EF97E00E94630211
:1029000060ED73E085EF97E00E94AD2542E060E066
:1029100085EF97E00E94630263E874E085EF97E03B
:102920000E94AD2543E060E085EF97E00E946302DE
:102930006BEE73E0F9CE8130910579F46EE874E0C6
:1029400085EF97E00E94AD2541E060E085EF97E0DC
:102950000E94630260EA74E011C082309105D9F4EC
:1029600064EC74E085EF97E00E94AD2541E060E003
:1029700085EF97E00E94630266ED74E085EF97E0D3
:102980000E94AD2542E060E085EF97E00E9463027F
:1029900061EB74E0C9CE0397D9F464EC74E085EF81
:1029A00097E00E94AD2541E060E085EF97E00E944E
:1029B000630260EA74E085EF97E00E94AD2542E093
:1029C00060E085EF97E00E94630267EE74E0ACCEB2
:1029D00084E090E0B8C0049709F0B3C0809101088A
:1029E00090910208009739F56AE674E085EF97E068
:1029F0000E94AD2541E060E085EF97E00E94630210
:102A000060ED73E085EF97E00E94AD2542E060E065
:102A100085EF97E00E94630260EE73E085EF97E038
:102A20000E94AD2543E060E085EF97E00E946302DD
:102A30006AEF74E079CE8130910579F463E075E056
:102A400085EF97E00E94AD2541E060E085EF97E0DB
:102A50000E94630266E175E011C082309105D9F4ED
:102A600063E475E085EF97E00E94AD2541E060E00A
:102A700085EF97E00E94630266E575E085EF97E0D9
:102A80000E94AD2542E060E085EF97E00E9463027E
:102A900066E275E01DC08330910539F563E475E0A9
:102AA00085EF97E00E94AD2541E060E085EF97E07B
:102AB0000E94630266E175E085EF97E00E94AD2514
:102AC00042E060E085EF97E00E94630266E675E011
:102AD00085EF97E00E94AD2543E060E085EF97E049
:102AE0000E94630268E375E01FCE049739F563E442
:102AF00075E085EF97E00E94AD2541E060E085EF4D
:102B000097E00E94630266E175E085EF97E00E941E
:102B1000AD2542E060E085EF97E00E94630266E247
:102B200075E085EF97E00E94AD2543E060E085EF1A
:102B300097E00E94630268E775E0F6CD85E090E0DB
:102B400002C086E090E00C94E80E0F93CF93DF93E1
:102B5000CDB7DEB727970FB6F894DEBF0FBECDBF57
:102B6000425B4F836E838D832B830A831982CE0150
:102B700001960E94C70547E050E00E94CA0487E022
:102B800090E00E940D0327960FB6F894DEBF0FBEAB
:102B9000CDBFDF91CF910F910895EF920F93CF9317
:102BA000DF93CDB7DEB7A4970FB6F894DEBF0FBEA4
:102BB000CDBF809124028B3308F087C0009124029E
:102BC0002091230260912602809127020F5F40919D
:102BD000210250912202E12C0E94A515609124024D
:102BE00070E06F5F7F4F4AE0CE0101960E9496270A
:102BF000609123024AE0CE0107960E946927609106
:102C00002102709122024AE0CE010D960E94962781
:102C1000609126024AE0CE0143960E9469276091A6
:102C200027024AE0CE014F960E94692763E875E0CB
:102C3000CE0149960E941B27BE01615E7F4FCE01E7
:102C400049960E942E286DE473E00E944128BE013F
:102C50006D5E7F4F0E942E286DE473E00E94412834
:102C6000BE01635F7F4F0E942E286DE873E00E94D3
:102C70004128BE01695F7F4F0E942E2868EC76E0F4
:102C80000E944128BE016F5F7F4F0E942E28BC0129
:102C900082E398E00E94BA25CE0149960E94AD26B3
:102CA000CE014F960E94AD26CE0143960E94AD26DE
:102CB000CE010D960E94AD26CE0107960E94AD264C
:102CC000CE0101960E94AD2653C0809124028B3321
:102CD00009F04EC080912302873170F420912302C5
:102CE00060912602809127022F5F4091210250912E
:102CF0002202E12C00E03AC0809123028731C1F525
:102D000090912702E0912602F0E0E85FFD4F80817C
:102D10004091210250912202981320C080912602F6
:102D20008C30A1F44F5F5F4FE12C00E020E061E0C8
:102D300081E00E94A51580912102909122020196C6
:102D400083709927892B39F18CE126C06091260286
:102D50006F5FE12C00E020E081E008C06091260276
:102D600080912702E12C00E020E08F5F0E94A515F2
:102D700080912302811113C08091240281110FC020
:102D800060912602809127024091210250912202F7
:102D90000E94590D04C08DE180930A02E9CFA496E8
:102DA0000FB6F894DEBF0FBECDBFDF91CF910F916C
:102DB000EF9008958091F407882311F061E001C03D
:102DC00060E080E00E94D1228091F307882311F017
:102DD00061E001C060E081E00E94D1228091F207B1
:102DE000882311F061E001C060E082E00C94D12200
:102DF00020912108309122088091050890910608C1
:102E0000821793073CF040911F08509120088417C7
:102E1000950724F041E04093F40702C01092F407B4
:102E2000409113085091140841305105E1F440914C
:102E300015085091160860911F08709120084617D8
:102E400057075CF48617970724F041E04093F30797
:102E500011C08217930754F006C06417750754F425
:102E6000861797071CF41092F30704C08417950780
:102E700064F3F9CF4091070850910808413051059B
:102E8000F9F44091090850910A082417350794F481
:102E90008217930724F481E08093F20716C0841709
:102EA000950774F020911F0830912008821793072E
:102EB00064F0F1CF8417950734F0821793075CF321
:102EC0001092F20702C01092F3070C94DA160E94D7
:102ED000C80D6EE975E082E398E00E94CC250E945F
:102EE000C80D6AEB75E082E398E00E94AD25809101
:102EF000F407882319F065EC75E002C06CEC75E00E
:102F000082E398E00E94CC2565ED75E082E398E0CD
:102F10000E94AD258091F307882319F065EC75E0D8
:102F200002C06CEC75E082E398E00E94CC2560EE74
:102F300075E082E398E00E94AD258091F207882336
:102F400019F065EC75E002C06CEC75E082E398E086
:102F50000E94CC250E94C80D65E277E082E398E0EC
:102F60000C94CC25EF920F9382E398E00E94B62553
:102F70000E94C80D6BEE75E082E398E00E94CC25BC
:102F80000E94C80D0E94D50F0E9437030E94F816B8
:102F90000E94CD1500912402209123026091260207
:102FA0008091270240912102509122027AE3E72E7C
:102FB0000E949E0F0E9437100F91EF900C9467179C
:102FC00085EF97E00E94AD0226E040E051EE60E020
:102FD00070E082E398E00E9442246BE076E085EFA7
:102FE00097E00E94AD256BE076E082E398E00E94D6
:102FF000CC2568EE73E080E090E00E94AF2161E0B4
:103000008DE00E94982261E08DE00E94D12260E074
:103010008FE20E94982260E08DE20E94982260E098
:1030200083E20E94982260E087E20E94982261E099
:1030300080E00E94982261E081E00E94982261E095
:1030400082E00E94982260E080E00E94D12260E04D
:1030500081E00E94D12260E082E00E94D1220E94A1
:10306000CE0D0E94D50F60912602809127024091DB
:103070002102509122020E94590D0E94370342E022
:1030800050E065E57DE080E00E94791F0E94B21764
:103090000E94E41185EF97E00E9455020E94E4111E
:1030A00068E176E082E398E00C94CC2583E20E940C
:1030B0000723019799F087E20E940723019781F087
:1030C0008DE20E940723019769F08FE20E94072397
:1030D000019711F483E6089580E3089585E7089544
:1030E00084E608958FE608951F93CF93DF936AE2F5
:1030F00076E082E398E00E94CC2541E060E085EF35
:1031000097E00E94630285EF97E00E949F0280E3B0
:103110008093160260EA70E080E090E00E94AF21A8
:10312000C1E0D0E010E3809116028F3651F10E9489
:10313000561880931602843611F08537A1F78091D6
:10314000070890910808009729F4D0930808C093C5
:10315000070806C0019721F410920808109207088A
:10316000109316020E94581141E060E085EF97E04D
:103170000E94630260EA70E080E090E00E94AF216C
:10318000D2CF60EA70E080E090E00E94AF2180E35F
:10319000809316028091070890910808019709F022
:1031A0008FC042E06BE085EF97E00E946302809160
:1031B00016028F3671F160EA70E080E090E00E94C4
:1031C000AF210E9456188093160220910B0830916F
:1031D0000C08853731F4273131054CF72F5F3F4F0D
:1031E00007C0843621F7121613060CF72150310957
:1031F00030930C0820930B0842E06BE085EF97E0DA
:103200000E94630280910B0890910C080E94851027
:10321000C8CF42E06EE085EF97E00E94630280E352
:1032200080931602809116028F36B1F160EA70E049
:1032300080E090E00E94AF210E9456188093160211
:10324000853749F480910D0890910E088B339105D4
:103250004CF701960AC0843629F780910D089091A9
:103260000E0818161906F4F6019790930E0880932D
:103270000D0842E06EE085EF97E00E9463028091C6
:103280000D0890910E080E94851042E06EE085EFD7
:1032900097E00E946302C6CF20910B0830910C0882
:1032A0004CE3429FC001439F900D112420910D08D3
:1032B00030910E08820F931F90930A08809309089B
:1032C000C0E3C093160260EA70E080E090E00E94E4
:1032D000AF210E94C80D68E376E082E398E00E9487
:1032E000CC250E94B217C093160285EF97E0DF91BC
:1032F000CF911F910C9498021F93CF93DF9360E5B9
:1033000076E082E398E00E94CC2541E060E085EF22
:1033100097E00E94630285EF97E00E949F0280E39E
:103320008093160260EA70E080E090E00E94AF2196
:10333000C1E0D0E010E3809116028F3651F10E9477
:10334000561880931602843611F08537A1F78091C4
:10335000130890911408009729F4D0931408C0938F
:10336000130806C0019721F4109214081092130854
:10337000109316020E94C81041E060E085EF97E0CC
:103380000E94630260EA70E080E090E00E94AF215A
:10339000D2CF60EA70E080E090E00E94AF2180E34D
:1033A000809316028091130890911408019709F0F8
:1033B0008FC043E06BE085EF97E00E94630280914D
:1033C00016028F3671F160EA70E080E090E00E94B2
:1033D000AF210E9456188093160220911708309151
:1033E0001808853731F4273131054CF72F5F3F4FEF
:1033F00007C0843621F7121613060CF72150310945
:10340000309318082093170843E06BE085EF97E0AE
:103410000E94630280911708909118080E948510FD
:10342000C8CF43E06EE085EF97E00E94630280E33F
:1034300080931602809116028F36B1F160EA70E037
:1034400080E090E00E94AF210E94561880931602FF
:10345000853749F48091190890911A088B339105AA
:103460004CF701960AC0843629F78091190890918B
:103470001A0818161906F4F6019790931A08809303
:10348000190843E06EE085EF97E00E9463028091A7
:10349000190890911A080E94851043E06EE085EFAC
:1034A00097E00E946302C6CF209117083091180858
:1034B0004CE3429FC001439F900D112420911908B5
:1034C00030911A08820F931F909316088093150865
:1034D000C0E3C093160260EA70E080E090E00E94D2
:1034E000AF210E945B0E0E94C80D68E376E082E384
:1034F00098E00E94CC250E94B217C093160285EF77
:1035000097E0DF91CF911F910C9498028F929F9238
:10351000AF92BF92CF92DF92EF920F931F93CF9310
:10352000DF93CDB7DEB7A4970FB6F894DEBF0FBE1A
:10353000CDBFA0902102B0902202C09026029090B0
:10354000270285EF97E00E9455026EE576E085EF51
:1035500097E00E94AD2585EF97E00E949F0242E030
:1035600060E085EF97E00E94630263E776E085EF15
:1035700097E00E94AD2542E06CE085EF97E00E9465
:1035800063024AE0B501CE0101960E94C227BE0146
:103590006F5F7F4F85EF97E00E949F25CE010196D8
:1035A0000E94AD2642E06FE085EF97E00E94630243
:1035B00080E380931602809116028F3609F455C07D
:1035C00060EA70E080E090E00E94AF210E9456180F
:1035D00080931602853749F484E3A81688E0B8067C
:1035E00050F78FEFA81AB80A0AC0843631F583EB7A
:1035F000A81687E0B806F8F281E0A81AB10842E000
:103600006CE085EF97E00E9463024AE0B501CE01CD
:1036100001960E94C227BE016F5F7F4F85EF97E042
:103620000E949F25CE0101960E94AD2642E06FE0E8
:1036300085EF97E00E946302BECF833609F0BBCFCF
:1036400085EF97E00E94550285EF97E00E9498026F
:1036500069E776E085EF97E00E94AD2568EE73E0BC
:1036600080E090E00E94AF2193C1D12C80E3809351
:10367000160285EF97E00E9455026EE576E085EF31
:1036800097E00E94AD2542E060E085EF97E00E9460
:10369000630263E876E085EF97E00E94AD2542E0A3
:1036A0006EE085EF97E00E946302C6010E948510DC
:1036B00042E06FE085EF97E00E94630285EF97E0BC
:1036C0000E949F02809116028F3681F160EA70E0BD
:1036D00080E090E00E94AF210E945618809316026D
:1036E000853741F48CE0C816D10460F78FEFC81A13
:1036F000D80A09C08436B9F482E0C816D10410F3A0
:1037000081E0C81AD10842E06EE085EF97E00E94A0
:103710006302C6010E94851042E06FE085EF97E0EA
:103720000E946302CFCF833669F68ACF82E0C81643
:10373000D10429F4950123703327232B29F0F601B6
:10374000E85FFD4F008101C00DE110E0892D90E0A0
:1037500048018017910708F44C0180E3809316021A
:1037600085EF97E00E9455026EE576E085EF97E0E1
:103770000E94AD2542E060E085EF97E00E94630281
:1037800069E876E085EF97E00E94AD2542E06EE0C3
:1037900085EF97E00E946302C4010E94851042E019
:1037A0006FE085EF97E00E94630285EF97E00E944B
:1037B0009F02809116028F3679F160EA70E080E016
:1037C00090E00E94AF210E94561880931602853720
:1037D00039F48016910668F78FEF881A980A09C0A5
:1037E0008436B9F482E08816910418F381E0881ACF
:1037F000910842E06EE085EF97E00E946302C40109
:103800000E94851042E06FE085EF97E00E9463021E
:10381000D0CF833671F614CF85EF97E00E94550222
:1038200085EF97E00E9498020091240220912302E4
:10383000E12CA5016C2D882D0E949E0F6091240221
:103840004AE0CE0101960E946927609123024AE076
:10385000CE0107960E9469274AE0B501CE010D9678
:103860000E94C2274AE0B601CE0143960E94C227B9
:103870004AE0B401CE014F960E94C2276FE876E07D
:10388000CE0149960E941B27BE01615E7F4FCE018B
:1038900049960E942E286FE20E945B28BE016D5E51
:1038A0007F4F0E942E286FE20E945B28BE01635F5B
:1038B0007F4F0E942E2869E00E945B28BE01695F4D
:1038C0007F4F0E942E286AE30E945B28BE016F5F33
:1038D0007F4F0E942E28BC0182E398E00E94BA2507
:1038E000CE0149960E94AD26CE014F960E94AD268C
:1038F000CE0143960E94AD26CE010D960E94AD26C4
:10390000CE0107960E94AD26CE0101960E94AD26FB
:1039100041E062E085EF97E00E94630261EA76E0B1
:1039200085EF97E00E94AD2542E063E085EF97E0E8
:103930000E946302C4010E9485106DE473E085EF6C
:1039400097E00E94AD25C6010E9485106DE473E0EA
:1039500085EF97E00E94AD25C5010E94851060911A
:1039600026028091270240912102509122020E945A
:10397000590D60ED77E080E090E00E94AF2185EF87
:1039800097E00E9455020E94B21780E380931602CE
:10399000A4960FB6F894DEBF0FBECDBFDF91CF91D6
:1039A0001F910F91EF90DF90CF90BF90AF909F90BD
:1039B0008F900895AF92BF92CF92DF92EF920F93C4
:1039C000CF93DF93CDB7DEB7A4970FB6F894DEBFE1
:1039D0000FBECDBFA0902302B12CC0902402D12CE9
:1039E00080E38093160285EF97E00E94550260EB1A
:1039F00076E085EF97E00E94AD2541E060E085EF3D
:103A000097E00E94630264EC76E085EF97E00E9405
:103A1000AD2585EF97E00E949F0241E06BE085EFC6
:103A200097E00E946302C5010E94851068EC76E071
:103A300085EF97E00E94AD25C6010E94851041E008
:103A40006CE085EF97E00E946302809116028F364A
:103A5000D9F160EA70E080E090E00E94AF210E941E
:103A6000561880931602853741F487E1A816B104F1
:103A700060F78FEFA81AB80A08C0843671F4A11451
:103A8000B10419F381E0A81AB10841E06BE085EFB9
:103A900097E00E946302C501D0CF8336B1F685EF6F
:103AA00097E00E94550285EF97E00E94980269E72F
:103AB00076E085EF97E00E94AD2568EE73E080E048
:103AC00090E00E94AF21F9C041E060E085EF97E00F
:103AD0000E9463026AEC76E085EF97E00E94AD25D4
:103AE00041E06FE085EF97E00E94630280E38093FE
:103AF0001602809116028F3679F160EA70E080E05C
:103B000090E00E94AF210E945618809316028537DC
:103B100041F48BE3C816D10460F78FEFC81AD80AB6
:103B200008C08436B1F4C114D10419F381E0C81A75
:103B3000D10841E06EE085EF97E00E946302C60184
:103B40000E94851041E06FE085EF97E00E946302DC
:103B5000D0CF833671F6A3CF85EF97E00E94550250
:103B600085EF97E00E9498026091260280912702DB
:103B70004091210250912202E12C0C2D2A2D0E940D
:103B80009E0F4AE0B601CE0101960E94C2274AE08C
:103B9000B501CE0107960E94C22760912102709163
:103BA00022024AE0CE010D960E94962760912602DD
:103BB0004AE0CE0143960E946927609127024AE0BD
:103BC000CE014F960E94692762ED76E0CE014996BC
:103BD0000E941B27BE01615E7F4FCE0149960E9465
:103BE0002E286FE20E945B28BE016D5E7F4F0E940F
:103BF0002E286FE20E945B28BE01635F7F4F0E9408
:103C00002E2869E00E945B28BE01695F7F4F0E94F9
:103C10002E286AE30E945B28BE016F5F7F4F0E94DF
:103C20002E28BC0182E398E00E94BA25CE01499675
:103C30000E94AD26CE014F960E94AD26CE0143963E
:103C40000E94AD26CE010D960E94AD26CE010796AC
:103C50000E94AD26CE0101960E94AD2641E062E0B1
:103C600085EF97E00E94630261EA76E085EF97E0D6
:103C70000E94AD2542E065E085EF97E00E94630277
:103C8000C5010E94851068EC76E085EF97E00E9400
:103C9000AD25C6010E94851060ED77E080E090E0E0
:103CA0000E94AF210E94B21785EF97E00E94550253
:103CB00080E3809316020E94E411A4960FB6F89454
:103CC000DEBF0FBECDBFDF91CF910F91EF90DF90A0
:103CD000CF90BF90AF900895809103089091040811
:103CE0008130910569F4809101089091020881303A
:103CF000910511F40C94DA1C029731F50C94861A94
:103D00008230910569F48091010890910208813018
:103D1000910511F40C947C190297B1F40C94741869
:103D2000049791F4809101089091020881309105E7
:103D300011F40C945B0E8230910511F40C94CE0DAD
:103D4000039711F40C941B0F089580910108909132
:103D50000208209116020097A1F5243669F480919B
:103D60000308909104088430910508F051C0009731
:103D700009F44EC001961DC0253751F48091030807
:103D8000909104088230910508F442C0019711C057
:103D9000233629F4109204081092030839C02F36F4
:103DA000B9F58091030890910408892B39F481E0DA
:103DB00090E090930408809303082AC081E090E08B
:103DC00010C0243699F4E0910308F0910408EE0F36
:103DD000FF1FE95EFD4F2081318182179307C0F4F8
:103DE0000196909302088093010812C0253729F4A8
:103DF0008230910568F00197F4CF233629F41092B0
:103E000002081092010804C02F3611F40E946C1EA3
:103E10000C94781360EA70E080E090E00E94AF219B
:103E20000E94561880931602803329F00E94A51E26
:103E300080E38093160220912708809103089091D7
:103E40000408892B41F4222331F0109227080E94A4
:103E5000B2170E94E4118091030890910408892B05
:103E6000D9F58091010890910208892BA9F56AEF94
:103E700070E080E090E00E94AF210E94561880938D
:103E80001602803329F00E94A51E80E3809316025B
:103E90006AEF70E080E090E00E94AF2180912808F6
:103EA00091E0892780932808609128088DE00E947E
:103EB000D12241E064E085EF97E00E9463028091A7
:103EC0002808811103C06DE873E002C068EC76E059
:103ED00085EF97E00C94AD2508950F9300E024E062
:103EE00044E167E285EF97E00E94E1010F910895B8
:103EF0000895883008F06DC0E82FF0E0EE0FFF1F46
:103F0000E65DFD4F7183608390E0FC013197E730FF
:103F1000F10590F5EE58FF4F0C94152C8091690037
:103F20008C7F842B80936900E89A089580916900C2
:103F3000440F551F440F551F837F842B80936900C6
:103F4000E99A08958091690074E0440F551F7A95AD
:103F5000E1F78F7C842B80936900EA9A0895809121
:103F6000690066E0440F551F6A95E1F78F73842B53
:103F700080936900EB9A089580916A008C7F842B6E
:103F800080936A00EC9A089580916A00440F551F4F
:103F9000440F551F837F842B80936A00ED9A089508
:103FA00080916A0024E0440F551F2A95E1F78F7C29
:103FB000842B80936A00EE9A089580916A0096E0BF
:103FC000440F551F9A95E1F78F73842B80936A00F5
:103FD000EF9A08951F920F920FB60F9211240BB60D
:103FE0000F922F933F934F935F936F937F938F9392
:103FF0009F93AF93BF93EF93FF93E0912E02F091C5
:104000002F021995FF91EF91BF91AF919F918F91E1
:104010007F916F915F914F913F912F910F900BBEC8
:104020000F900FBE0F901F9018951F920F920FB612
:104030000F9211240BB60F922F933F934F935F93E0
:104040006F937F938F939F93AF93BF93EF93FF9360
:10405000E0913002F09131021995FF91EF91BF91FB
:10406000AF919F918F917F916F915F914F913F9110
:104070002F910F900BBE0F900FBE0F901F901895B1
:104080001F920F920FB60F9211240BB60F922F931F
:104090003F934F935F936F937F938F939F93AF93D0
:1040A000BF93EF93FF93E0913202F09133021995A1
:1040B000FF91EF91BF91AF919F918F917F916F9100
:1040C0005F914F913F912F910F900BBE0F900FBEBC
:1040D0000F901F9018951F920F920FB60F921124F8
:1040E0000BB60F922F933F934F935F936F937F93F2
:1040F0008F939F93AF93BF93EF93FF93E09134021D
:10410000F09135021995FF91EF91BF91AF919F9179
:104110008F917F916F915F914F913F912F910F9070
:104120000BBE0F900FBE0F901F9018951F920F920D
:104130000FB60F9211240BB60F922F933F934F930C
:104140005F936F937F938F939F93AF93BF93EF93FF
:10415000FF93E0912A02F0912B021995FF91EF91C4
:10416000BF91AF919F918F917F916F915F914F918F
:104170003F912F910F900BBE0F900FBE0F901F908D
:1041800018951F920F920FB60F9211240BB60F9233
:104190002F933F934F935F936F937F938F939F934F
:1041A000AF93BF93EF93FF93E0912C02F0912D0218
:1041B0001995FF91EF91BF91AF919F918F917F9151
:1041C0006F915F914F913F912F910F900BBE0F9088
:1041D0000FBE0F901F9018951F920F920FB60F925F
:1041E00011240BB60F922F933F934F935F936F93CE
:1041F0007F938F939F93AF93BF93EF93FF93E09140
:104200003602F09137021995FF91EF91BF91AF916E
:104210009F918F917F916F915F914F913F912F91DE
:104220000F900BBE0F900FBE0F901F9018951F920E
:104230000F920FB60F9211240BB60F922F933F934C
:104240004F935F936F937F938F939F93AF93BF939E
:10425000EF93FF93E0913802F09139021995FF91A5
:10426000EF91BF91AF919F918F917F916F915F91EE
:104270004F913F912F910F900BBE0F900FBE0F905B
:104280001F9018951F920F920FB60F9211242F9323
:104290003F938F939F93AF93BF9380912A08909100
:1042A0002B08A0912C08B0912D083091290823E00B
:1042B000230F2D3720F40196A11DB11D05C026E85E
:1042C000230F0296A11DB11D2093290880932A086F
:1042D00090932B08A0932C08B0932D0880912E0862
:1042E00090912F08A0913008B09131080196A11D3E
:1042F000B11D80932E0890932F08A0933008B0939F
:104300003108BF91AF919F918F913F912F910F9065
:104310000FBE0F901F9018953FB7F89480912E080C
:1043200090912F08A0913008B091310826B5A89B34
:1043300005C02F3F19F00196A11DB11D3FBF662793
:10434000782F892F9A2F620F711D811D911D42E0D8
:10435000660F771F881F991F4A95D1F70895CF924E
:10436000DF92EF92FF92CF93DF936B017C010E946B
:104370008C21EB01C114D104E104F10489F00E9405
:1043800069280E948C216C1B7D0B683E734090F362
:1043900081E0C81AD108E108F108C851DC4FEACF22
:1043A000DF91CF91FF90EF90DF90CF900895823012
:1043B000910538F0880F991F880F991F059701976D
:1043C000F1F70895789484B5826084BD84B58160E6
:1043D00084BD85B5826085BD85B5816085BDEEE60D
:1043E000F0E0808181608083E1E8F0E010828081EC
:1043F00082608083808181608083E0E8F0E080815A
:1044000081608083E1EBF0E0808184608083E0EB79
:10441000F0E0808181608083E1E9F0E0808182606A
:104420008083808181608083E0E9F0E08081816029
:104430008083E1EAF0E08081826080838081816016
:104440008083E0EAF0E0808181608083E1E2F1E056
:10445000808182608083808181608083E0E2F1E0FE
:10446000808181608083EAE7F0E0808184608083DE
:104470008081826080838081816080838081806888
:1044800080831092C100089590E0FC013197E231E1
:10449000F10508F04CC0E758FF4F0C94152C8091A3
:1044A00080008F7703C0809180008F7D8093800093
:1044B000089580918000877FF9CF84B58F7702C0FF
:1044C00084B58F7D84BD08958091B0008F7703C03F
:1044D0008091B0008F7D8093B0000895809190000E
:1044E0008F7707C0809190008F7D03C080919000EE
:1044F000877F8093900008958091A0008F7707C0F8
:104500008091A0008F7D03C08091A000877F809361
:10451000A0000895809120018F7707C0809120012D
:104520008F7D03C080912001877F809320010895B3
:10453000CF93DF9390E0FC01E658FD4F2491FC01FE
:10454000E054FD4F8491882349F190E0880F991F32
:10455000FC01E65CFC4FA591B491805E9C4FFC0190
:10456000C591D4919FB7611108C0F8948C912095A2
:1045700082238C93888182230AC0623051F4F8949C
:104580008C91322F309583238C938881822B888362
:1045900004C0F8948C91822B8C939FBFDF91CF91B4
:1045A00008950F931F93CF93DF931F92CDB7DEB77C
:1045B000282F30E0F901EC5CFD4F8491F901E658B9
:1045C000FD4F1491F901E054FD4F04910023C9F00F
:1045D000882321F069830E9444226981E02FF0E062
:1045E000EE0FFF1FE05EFC4FA591B4919FB7F894CA
:1045F0008C91611103C01095812301C0812B8C9394
:104600009FBF0F90DF91CF911F910F910895CF938E
:10461000DF93282F30E0F901EC5CFD4F8491F90124
:10462000E658FD4FD491F901E054FD4FC491CC23DD
:1046300091F081110E944422EC2FF0E0EE0FFF1F59
:10464000EA5FFC4FA591B4912C912D2381E090E07D
:1046500021F480E002C080E090E0DF91CF910895E6
:10466000FC01818D228D90E0805C9F4F821B91091F
:104670008F7399270895FC01918D828D981731F0E1
:10468000828DE80FF11D858D90E008958FEF9FEFEB
:104690000895FC01918D828D981761F0828DDF0164
:1046A000A80FB11D5D968C91928D9F5F9F73928F25
:1046B00090E008958FEF9FEF089584E095E2892BB5
:1046C00041F080E090E0892B21F00E9404258111C7
:1046D00025C080E090E0892B41F080E090E0892BBC
:1046E00021F00E94000081111CC080E090E0892B25
:1046F00041F080E090E0892B21F00E9400008111C0
:1047000013C080E090E0892BA1F080E090E0892B3D
:1047100081F00E94000081110AC008950E940000EB
:10472000D8CF0E940000E1CF0E940000EACF0C9495
:1047300000000895FC01848DDF01A80FB11DA35A6C
:10474000BF4F2C91848D90E001968F739927848FB1
:10475000A689B7892C93A089B1898C9180648C93A8
:10476000938D848D981306C00288F389E02D808193
:104770008F7D80830895CF93DF93EC01888D88230C
:10478000C9F0EA89FB89808185FD05C0A889B989BE
:104790008C9186FD0FC00FB607FCF5CF808185FF99
:1047A000F2CFA889B9898C9185FFEDCFCE010E9407
:1047B0009A23E7CFDF91CF910895CF92DF92FF92B6
:1047C0000F931F93CF93DF931F92CDB7DEB76C018A
:1047D00081E0D60158968C9358975B969C915B9795
:1047E0005C968C915C97981307C05096ED91FC9164
:1047F0005197808185FD2EC0F601038D10E00F5F7B
:104800001F4F0F731127F02EF601848DF81211C07F
:104810000FB607FCF9CFD6015096ED91FC91519758
:10482000808185FFF1CFC60169830E949A23698147
:10483000EBCF838DE80FF11DE35AFF4F6083D60164
:104840005B960C935B975296ED91FC915397808108
:1048500080620CC0D6015696ED91FC91579760830B
:104860005096ED91FC91519780818064808381E026
:1048700090E00F90DF91CF911F910F91FF90DF900B
:10488000CF900895BF92CF92DF92EF92FF92CF9395
:10489000DF93EC016A017B01B22EE889F98982E09D
:1048A0008083411581EE580761057105A1F060E034
:1048B00079E08DE390E0A70196010E94D42B21506E
:1048C0003109410951095695479537952795211585
:1048D00080E1380798F0E889F989108260E874E887
:1048E0008EE190E0A70196010E94D42B215031095E
:1048F000410951095695479537952795EC85FD85D2
:104900003083EE85FF852083188EEC89FD89B08287
:10491000EA89FB89808180618083EA89FB898081C3
:1049200088608083EA89FB89808180688083EA8946
:10493000FB8980818F7D8083DF91CF91FF90EF9005
:10494000DF90CF90BF9008951F920F920FB60F92F5
:1049500011240BB60F922F938F939F93EF93FF9396
:10496000E0914208F09143088081E0914808F0917D
:10497000490882FD12C0908180914B088F5F8F7330
:1049800020914C08821751F0E0914B08F0E0EE5C6A
:10499000F74F958F80934B0801C08081FF91EF9175
:1049A0009F918F912F910F900BBE0F900FBE0F9084
:1049B0001F9018951F920F920FB60F9211240BB6ED
:1049C0000F922F933F934F935F936F937F938F93A8
:1049D0009F93AF93BF93EF93FF9382E398E00E947E
:1049E0009A23FF91EF91BF91AF919F918F917F910A
:1049F0006F915F914F913F912F910F900BBE0F9050
:104A00000FBE0F901F90189582E398E00E9430230C
:104A100021E0892B09F420E0822F089510923508B7
:104A20001092340888EE93E0A0E0B0E0809336085E
:104A300090933708A0933808B093390887E197E03E
:104A4000909333088093320885EC90E090933F0870
:104A500080933E0884EC90E0909341088093400856
:104A600080EC90E0909343088093420881EC90E0C2
:104A7000909345088093440882EC90E09093470817
:104A80008093460886EC90E090934908809348080C
:104A900010924B0810924C0810924D0810924E083C
:104AA000089508950E94E2210E9451250E94E01776
:104AB000CDE5D3E20E940A1F2097E1F30E945D2317
:104AC000F9CFCF92DF92EF92FF920F931F93CF9384
:104AD000DF937C016A01EB0100E010E00C151D057D
:104AE00071F06991D701ED91FC910190F081E02D79
:104AF000C7011995892B19F00F5F1F4FEFCFC80120
:104B0000DF91CF911F910F91FF90EF90DF90CF90A9
:104B100008956115710581F0DB010D900020E9F722
:104B2000AD0141505109461B570BDC01ED91FC9141
:104B30000280F381E02D199480E090E00895DC017B
:104B4000ED91FC91DB0114964D915C9115976D915F
:104B50007C910280F381E02D19940C948925DC016D
:104B6000ED91FC910190F081E02D199463E277E0E2
:104B70000C9489250F931F93CF93DF93EC010E9430
:104B80009F258C01CE010E94B625800F911FDF91D9
:104B9000CF911F910F9108950F931F93CF93DF93A0
:104BA000EC010E9489258C01CE010E94B625800F60
:104BB000911FDF91CF911F910F9108958F929F9236
:104BC000AF92BF92CF92DF92EF92FF920F931F931B
:104BD000CF93DF93CDB7DEB7A1970FB6F894DEBFC2
:104BE0000FBECDBF7C01C42EE52FCB01D22E19A262
:104BF00021E02D1510F02AE0D22E8E010F5D1F4FFF
:104C00008D2C912CA12CB12C6C2D7E2FA501940103
:104C10000E94D42B8C2DD29E801911240150110991
:104C20008A3014F4805D01C0895CF801808321150D
:104C300031054105510521F0C22EE32FCA01E4CF11
:104C4000B801C7010E948925A1960FB6F894DEBF6E
:104C50000FBECDBFDF91CF911F910F91FF90EF90CD
:104C6000DF90CF90BF90AF909F908F900895CF929C
:104C7000DF92EF92FF920F931F93CF93DF93EC019C
:104C80006A017B012115310579F4E881F9810190F0
:104C9000F081E02D642FDF91CF911F910F91FF9054
:104CA000EF90DF90CF9019942A303105E9F477FF27
:104CB0001AC06DE20E94AF258C0144275527BA0126
:104CC0004C195D096E097F092AE0CE010E94DE259C
:104CD000800F911FDF91CF911F910F91FF90EF9067
:104CE000DF90CF9008952AE0B701A601CE01DF91B1
:104CF000CF911F910F91FF90EF90DF90CF900C9488
:104D0000DE259A01AB01662757FD6095762F0C943E
:104D100037262115310541F4DC01ED91FC9101901C
:104D2000F081E02D642F19940C94DE250F931F93CE
:104D3000CF93DF93EC019A01462F50E060E070E0E2
:104D40000E9489268C01CE010E94B625800F911FFA
:104D5000DF91CF911F910F910895FC018081918186
:104D60000C94E82CCF93DF93EC0188819981009714
:104D700011F00E94E82C198218821D821C821B826D
:104D80001A82DF91CF9108950F931F93CF93DF93F2
:104D9000EC018B016F5F7F4F888199810E94772D95
:104DA000009731F0998388831B830A8381E001C0D7
:104DB00080E0DF91CF911F910F910895CF93DF9302
:104DC000EC0188819981892B29F08A819B81861742
:104DD000970760F4CE010E94C426882341F08C819D
:104DE0009D81892B19F4E881F981108281E0DF919E
:104DF000CF910895EF92FF920F931F93CF93DF937C
:104E0000EC017B018A01BA010E94DE26811104C0F7
:104E1000CE010E94B22607C01D830C83B701888192
:104E200099810E94692ECE01DF91CF911F910F9140
:104E3000FF90EF900895FC0111821082138212827C
:104E4000158214826115710559F0FB010190002053
:104E5000E9F7AF0141505109461B570B0C94FA2654
:104E60000895CF93DF93EC01FB018617970761F05C
:104E7000608171816115710529F0448155810E941D
:104E8000FA2602C00E94B226CE01DF91CF9108958A
:104E9000FC011182108213821282158214820C94FA
:104EA0003127CF93DF93EC016115710561F0FB01B0
:104EB00001900020E9F7AF0141505109461B570B03
:104EC0000E94FA2602C00E94B226CE01DF91CF9145
:104ED00008950F931F93CF93DF93CDB7DEB7299734
:104EE0000FB6F894DEBF0FBECDBF8C01862FF80140
:104EF00011821082138212821582148250E0BE0148
:104F00006F5F7F4F90E00E94862EBE016F5F7F4FE4
:104F1000C8010E94512729960FB6F894DEBF0FBE34
:104F2000CDBFDF91CF911F910F9108950F931F93E4
:104F3000CF93DF93CDB7DEB762970FB6F894DEBF9D
:104F40000FBECDBF8C01CB01F801118210821382FC
:104F500012821582148250E0BE016F5F7F4F0E9463
:104F6000702EBE016F5F7F4FC8010E94512762966D
:104F70000FB6F894DEBF0FBECDBFDF91CF911F916A
:104F80000F9108950F931F93CF93DF93CDB7DEB7A3
:104F900061970FB6F894DEBF0FBECDBF8C01CB0179
:104FA000F80111821082138212821582148250E05D
:104FB000BE016F5F7F4F0E94862EBE016F5F7F4FE5
:104FC000C8010E94512761960FB6F894DEBF0FBE4C
:104FD000CDBFDF91CF911F910F910895EF92FF9276
:104FE0000F931F93CF93DF93EC017B010C811D8105
:104FF0006115710511F480E016C04115510591F05D
:10500000040F151FB8010E94DE268823A1F3288112
:1050100039818C819D81B701820F931F0E94692E77
:105020001D830C8381E0DF91CF911F910F91FF9041
:10503000EF900895CF93DF931F921F92CDB7DEB705
:1050400069831A8241E050E0BE016F5F7F4F0E948A
:10505000EE270F900F90DF91CF910895CF93DF93BC
:10506000EC01FB0144815581608171810E94EE2732
:10507000811103C0CE010E94B226CE01DF91CF91F3
:105080000895CF93DF93EC016115710569F0FB0181
:1050900001900020E9F7AF0141505109461B570B21
:1050A0000E94EE27811103C0CE010E94B226CE01DC
:1050B000DF91CF910895CF93DF93EC010E941A28DE
:1050C000811103C0CE010E94B226CE01DF91CF91A3
:1050D000089508959F939F7749D10F9000203AF447
:1050E0009058A2EA2AED3FE049E450E413D0E1C130
:1050F0005058BB27AA270ED0DCC1A5D130F0AAD1C9
:1051000020F031F49F3F11F41EF475C10EF4E095C8
:10511000E7FB6BC1E92FEFD180F3BA176207730782
:105120008407950718F071F49EF507C20EF4E09518
:105130000B2EBA2FA02D0B01B90190010C01CA0151
:10514000A0011124FF27591B99F0593F50F4503EFC
:1051500068F11A16F040A22F232F342F4427585FEE
:10516000F3CF469537952795A795F0405395C9F706
:105170007EF41F16BA0B620B730B840BBAF09150BE
:10518000A1F0FF0FBB1F661F771F881FC2F70EC05D
:10519000BA0F621F731F841F48F487957795679530
:1051A000B795F7959E3F08F0B3CF9395880F08F019
:1051B0009927EE0F97958795089554D1E3958AC165
:1051C0000CD077C147D140F03ED130F021F45F3FA1
:1051D00019F00BC15111B2C10EC18DD198F39923B1
:1051E000C9F35523B1F3951B550BBB27AA276217AB
:1051F0007307840738F09F5F5F4F220F331F441FF0
:10520000AA1FA9F333D00E2E3AF0E0E830D0915027
:105210005040E695001CCAF729D0FE2F27D0660F14
:10522000771F881FBB1F261737074807AB07B0E853
:1052300009F0BB0B802DBF01FF2793585F4F2AF069
:105240009E3F510568F0D1C079C15F3FECF3983EB5
:10525000DCF3869577956795B795F7959F5FC9F7C6
:10526000880F911D9695879597F90895E1E0660F4F
:10527000771F881FBB1F621773078407BA0720F0C8
:10528000621B730B840BBA0BEE1F88F7E095089531
:1052900004D06894B11152C1089535D188F09F5758
:1052A00090F0B92F9927B751A0F0D1F0660F771F72
:1052B000881F991F1AF0BA95C9F712C0B13081F052
:1052C0003CD1B1E0089539C1672F782F8827B85FA6
:1052D00039F0B93FCCF3869577956795B395D9F7B3
:1052E0003EF490958095709561957F4F8F4F9F4FBD
:1052F0000895E89409C097FB3EF4909580957095C9
:1053000061957F4F8F4F9F4F9923A9F0F92F96E911
:10531000BB279395F695879577956795B795F11186
:10532000F8CFFAF4BB0F11F460FF1BC06F5F7F4F23
:105330008F4F9F4F16C0882311F096E911C0772335
:1053400021F09EE8872F762F05C0662371F096E83E
:10535000862F70E060E02AF09A95660F771F881F0D
:10536000DAF7880F9695879597F90895DF93CF938D
:105370001F930F938B01EC01E6E1F1E03FD099D050
:105380009801AE018B01EC0160E070E080E89FE3E2
:10539000AFDE4BD19801AE010F911F91CF91DF91FC
:1053A000E3C0990F0008550FAA0BE0E8FEEF1616B0
:1053B0001706E807F907C0F012161306E407F50709
:1053C00098F0621B730B840B950B39F40A2661F07D
:1053D000232B242B252B21F408950A2609F4A14020
:1053E000A6958FEF811D811D089597F99F6780E82D
:1053F00070E060E008959FEF80EC0895DF93CF9315
:105400001F930F93FF92EF92DF927B018C016894C0
:1054100005C0DA2EEF01A8D0FE01E894A5912591F0
:10542000359145915591AEF3EF0174DEFE01970180
:10543000A801DA9479F7DF90EF90FF900F911F9118
:10544000CF91DF91089500240A94161617061806C6
:105450000906089500240A94121613061406050678
:105460000895C9CF50D0E8F3E894E0E0BB279F57F8
:10547000F0F02AED3FE049EC06C0EE0FBB0F661FCF
:10548000771F881F28F0B23A62077307840728F055
:10549000B25A620B730B840BE3959A9572F78038BE
:1054A00030F49A95BB0F661F771F881FD2F790487C
:1054B0001CC1092E0394000C11F4882352F0BB0F79
:1054C00040F4BF2B11F460FF04C06F5F7F4F8F4F1C
:1054D0009F4F0895EF93E0FF06C0A2EA2AED3FE058
:1054E00049EC5FEB17DEE5DF0F90039401FC905869
:1054F000EEE3F1E00DC157FD9058440F551F59F0F0
:105500005F3F71F04795880F97FB991F61F09F3FB0
:1055100079F087950895121613061406551FF2CFD9
:105520004695F1DF08C0161617061806991FF1CF29
:1055300086957105610508940895E894BB27662750
:105540007727CB0197F908952CDF08F48FEF0895A2
:105550000BD0AFCF78DF28F07DDF18F0952309F06E
:1055600044CF49CF1124EACFC6DFA0F3959FD1F3F2
:10557000950F50E0551F629FF001729FBB27F00D01
:10558000B11D639FAA27F00DB11DAA1F649F662756
:10559000B00DA11D661F829F2227B00DA11D621FA5
:1055A000739FB00DA11D621F839FA00D611D221F5F
:1055B000749F3327A00D611D231F849F600D211D43
:1055C000822F762F6A2F11249F5750408AF0E1F0E6
:1055D00088234AF0EE0FFF1FBB1F661F771F881F2F
:1055E00091505040A9F79E3F510570F0FECEA6CFD6
:1055F0005F3FECF3983EDCF3869577956795B7951A
:10560000F795E7959F5FC1F7FE2B880F911D969543
:10561000879597F908959F9325DF0F9007FCEE5F1C
:1056200059CF11F40EF4E7CE5EC06DDFD0F39923AD
:10563000D9F3CEF39F57550B87FF63D00024A0E624
:1056400040EA900180585695979528F4805C660F43
:10565000771F881F20F026173707480730F4621B92
:10566000730B840B202931294A2BA6951794079494
:10567000202531254A2758F7660F771F881F20F00D
:1056800026173707480730F4620B730B840B200D85
:10569000311D411DA09581F7B901842F9158880FC4
:1056A000969587950895DF93D92FDCDEE695D795FB
:1056B0002AED3FE049E45FE3B33A620773078407EA
:1056C0009507D7952AF0A2EA49EC906823DDF1DE30
:1056D000ECE5F1E01DD0DD0F0BF02BD0DD0F0BF46E
:1056E0009058DF9108959F3F31F0915020F48795B5
:1056F00077956795B795880F911D9695879597F93A
:10570000089591505040660F771F881FD2F7089573
:105710009F938F937F936F93FF93EF939B01AC01C4
:1057200017DFEF91FF916ADE2F913F914F915F91CB
:105730000FCF9B01AC0160E070E080E89FE340CDBB
:10574000991B79E004C0991F961708F0961B881FD3
:105750007A95C9F780950895AA1BBB1B51E107C034
:10576000AA1FBB1FA617B70710F0A61BB70B881FF1
:10577000991F5A95A9F780959095BC01CD01089580
:1057800097FB072E16F4009407D077FD09D00E94EE
:10579000AC2B07FC05D03EF4909581959F4F089562
:1057A000709561957F4F0895A1E21A2EAA1BBB1B2D
:1057B000FD010DC0AA1FBB1FEE1FFF1FA217B307DD
:1057C000E407F50720F0A21BB30BE40BF50B661FF3
:1057D000771F881F991F1A9469F7609570958095B7
:1057E00090959B01AC01BD01CF010895052E97FB5B
:1057F0001EF400940E940D2C57FD07D00E94D42B5C
:1058000007FC03D04EF40C940D2C50954095309528
:1058100021953F4F4F4F5F4F08959095809570951C
:1058200061957F4F8F4F9F4F0895EE0FFF1F05909B
:10583000F491E02D19940E94232C332312F48A1B37
:105840009B0B0C94342CA29FB001B39FC001A39F6B
:10585000700D811D1124911DB29F700D811D1124A9
:10586000911D08950E94232CB7FF0895821B930B6E
:1058700008950E94232CA59F900DB49F900DA49F86
:10588000800D911D11240895B7FF0C94392C0E94AE
:10589000392C821B930B08950790F691E02D1994F3
:1058A000CF93DF938230910510F482E090E0E09195
:1058B000D108F091D20820E030E0A0E0B0E03097CD
:1058C00039F14081518148175907B8F048175907F5
:1058D00071F482819381109729F013969C938E9393
:1058E00012972CC09093D2088093D10827C021151D
:1058F000310531F04217530718F0A901DB0101C04F
:10590000EF019A01BD01DF010280F381E02DD7CFC5
:1059100021153105F9F0281B390B2430310580F4AD
:105920008A819B816115710521F0FB01938382833C
:1059300004C09093D2088093D108FE01329644C0EF
:10594000FE01E20FF31F81939193225031093983B5
:1059500028833AC02091CF083091D008232B41F4FE
:1059600020910202309103023093D0082093CF0897
:1059700020910002309101022115310541F42DB72B
:105980003EB74091040250910502241B350BE09173
:10599000CF08F091D008E217F307A0F42E1B3F0BBD
:1059A0002817390778F0AC014E5F5F4F2417350791
:1059B00048F04E0F5F1F5093D0084093CF0881935B
:1059C000919302C0E0E0F0E0CF01DF91CF91089524
:1059D000CF93DF93009709F487C0FC0132971382BD
:1059E0001282C091D108D091D208209781F42081F1
:1059F0003181280F391F8091CF089091D0088217EC
:105A0000930779F5F093D008E093CF086DC0DE01DD
:105A100020E030E0AE17BF0750F412964D915C9134
:105A200013979D014115510509F1DA01F3CFB383B5
:105A3000A28340815181840F951F8A179B0771F4BF
:105A40008D919C911197840F951F0296918380836D
:105A500012968D919C911397938382832115310522
:105A600029F4F093D208E093D1083EC0D9011396EF
:105A7000FC93EE9312974D915D91A40FB51FEA1719
:105A8000FB0779F480819181840F951F0296D901DB
:105A900011969C938E938281938113969C938E93FF
:105AA0001297E0E0F0E08A819B81009719F0FE01F7
:105AB000EC01F9CFCE01029628813981820F931F24
:105AC0002091CF083091D0082817390769F4309712
:105AD00029F41092D2081092D10802C013821282C7
