:100000000C9466000C948E000C948E000C948E0060
:100010000C948E000C948E000C948E000C948E0028
:100020000C948E000C948E000C948E000C948E0018
:100030000C948E000C948E000C948E000C948E0008
:100040000C94380A0C948E000C94190D0C944B0DE2
:100050000C948E000C948E000C948E000C948E00E8
:100060000C9402060C948E000000000800020100AF
:100070000003040700000000000000000102040863
:100080001020408001020408102001020408102002
:10009000040404040404040402020202020203032E
:1000A00003030303000000002300260029000000D2
:1000B0000000250028002B0000000000240027007D
:1000C0002A00B60118058F097B0D290A11241FBECD
:1000D000CFEFD4E0DEBFCDBF12E0A0E0B1E0EAE4B4
:1000E000F6E202C005900D92AA33B107D9F724E0D9
:1000F000AAE3B2E001C01D92A234B207E1F710E01A
:10010000CAECD0E004C02297FE010E94A710C23CB6
:10011000D107C9F70E94BF0D0C9418130C9400006E
:100120000F93FC011382128283E191E0918380831B
:10013000648340872187028788E083870F91089531
:100140001F93CF93DF93EC01162F6C818AE392E02B
:100150000E949204E0913A02F0913B026B85612B80
:100160000190F081E02D8AE392E009958AE392E024
:10017000DF91CF911F910C9415051F93CF93DF93BF
:10018000EC01162F64600E94A00081E090E00E94C4
:10019000CD0A612F6B7FCE010E94A00082E390E028
:1001A000DF91CF911F910C94CD0A1F93CF93DF93D2
:1001B000EC01162F0E94A000612FCE01DF91CF919C
:1001C0001F910C94BD00EF92FF921F93CF93DF938A
:1001D0001F92CDB7DEB77C01162F607F642B498359
:1001E0000E94D50080E1189FB00111244981642B41
:1001F000C7010F90DF91CF911F91FF90EF900C946A
:10020000D50040E00C94E30061E00E94010180ED24
:1002100097E00C94CD0A62E00E94010180ED97E026
:100220000C94CD0ACF93DF93CDB7DEB728970FB6E6
:10023000F894DEBF0FBECDBF28E0E7E0F1E0DE01BD
:10024000119601900D922A95E1F7FC012185241762
:1002500010F44FEF420FFE013196E40FF11DE40F51
:10026000F11D2081260F2068622F28960FB6F89482
:10027000DEBF0FBECDBFDF91CF910C940101FC0119
:100280006681262F246026836C600C94010141E076
:100290000E94E30081E090E00895CF93DF93EC01AA
:1002A0008AE392E00E9488041D828985823010F0E2
:1002B00098E09D839A85992329F0813019F48D81E6
:1002C00084608D8362E370E080E090E00E94A50A84
:1002D0006B85CE010E94A00068EE73E080E090E0A4
:1002E0000E94A50A60E3CE010E94D50084E991E155
:1002F0000E94CD0A60E3CE010E94D50084E991E11D
:100300000E94CD0A60E3CE010E94D50086E990E00C
:100310000E94CD0A60E2CE010E94D5006D8160622C
:10032000CE010E94010184E08E83CE010E943F0134
:10033000CE010E94040182E08F8366E0CE010E941C
:100340000101CE01DF91CF910C940B01DC01ED9105
:10035000FC910190F081E02D0994982F92959F7067
:100360008F702AE0929F800D112408958AE392E015
:100370000C948804EF92FF920F931F93CF93DF9317
:1003800000D0CDB7DEB77C018B016730710549F035
:100390006B30710549F06115710541F447E050E09B
:1003A00005C044E050E002C043E050E068E670E081
:1003B0008AE392E049835A830E949C04B8018AE34D
:1003C00092E00E94A6018AE392E00E94150549810D
:1003D0005A8168E670E08AE392E00E9412050B30D1
:1003E000110541F08AE392E00E94F9030E94AD01F9
:1003F000F70180838AE392E00E94F9030E94AD0135
:10040000F70181838AE392E00E94F9030E94AD0123
:10041000F70182838AE392E00730110519F00B306F
:10042000110549F40E94F9030E94AD01F70184838C
:10043000158216821FC00E94F9030E94AD01F701C8
:1004400083838AE392E00E94F9030E94AD01F701E1
:1004500084838AE392E00E94F9030E94AD01F701D0
:1004600085838AE392E00E94F9030E94AD01825ED7
:10047000F70186830F900F90DF91CF911F910F911D
:10048000FF90EF900895CF93DF93CDB7DEB7279716
:100490000FB6F894DEBF0FBECDBFBC01CE010196F2
:1004A0000E94BA01CE0101960E94360327960FB62C
:1004B000F894DEBF0FBECDBFDF91CF9108956F924C
:1004C0007F928F929F92AF92BF92CF92DF92EF92E4
:1004D000FF920F931F93CF93DF93EA012CE3C22E79
:1004E000D12CE12CF12CA70196010E944D106883BC
:1004F000CA01B901A70196010E944D106983CA0182
:10050000B90128E130E040E050E00E944D1049017F
:100510005A016A83CA01B9016C5F7F4F8F4F9F4FA9
:1005200027E030E040E050E00E944D106F5F6B83A9
:1005300000E010E0980140E054E6652E712C60E97F
:10054000C62EDD24D394E42FF0E0EE54F84F7F0163
:1005500083E0E822FF24E114F10489F4CF01B30120
:100560000E943910892B29F08EE691E0A0E0B0E0DE
:100570000AC0CF01B6010E943910892BA9F38DE67C
:1005800091E0A0E0B0E0080F191F2A1F3B1FD9011E
:10059000C801AA27BB2788169906AA06BB0610F031
:1005A0004F5FD1CF4E83E114F10499F4CF0164E69B
:1005B00070E00E943910892B29F08EE691E0A0E0CE
:1005C000B0E00BC0CF0160E971E00E943910892BC7
:1005D000A1F38DE691E0A0E0B0E0081B190B2A0B17
:1005E0003B0B801A910AA20AB30ACF0164E670E0BD
:1005F0000E9439109C01CF0160E971E00E9439101E
:10060000E7E1F1E0A0E0A13059F4E114F10451F484
:100610002115310511F04DE106C00097E1F302C04C
:10062000408101C04CE150E060E070E08416950626
:10063000A606B70640F0841A950AA60AB70AAF5F65
:100640003196AC3001F7AF5FAD8383948C82DF913C
:10065000CF911F910F91FF90EF90DF90CF90BF90BF
:10066000AF909F908F907F906F9008956F927F9240
:100670008F929F92AF92BF92CF92DF92EF92FF92B2
:100680000F931F93CF93DF93FC01C680AC2DB0E096
:1006900020E833E341EE51E00E947E104B015C0103
:1006A00022EB37E06D01C4E6D0E000E911E0C901BA
:1006B000825B97408C159D05DCF4C90183709927F6
:1006C000892B99F4C901BE010E943910892B31F49C
:1006D000C901B8010E943910892B39F480E8880ECD
:1006E00081E5981E81E0A81EB11C2F5F3F4FDFCF30
:1006F0006580712C8EE4C81A88EFD80AC60164E6BA
:1007000070E00E9439108C01C60160E971E00E941E
:1007100039107C01C1E0D0E083E0C822DD24C61599
:10072000D7052CF5C230D10589F4C114D10471F478
:100730000115110519F4E114F10441F480E8880E63
:100740008BE3981E86E2A81EB11C0FC0DE01AA5ED4
:10075000BE4FAC91B0E020E831E541E050E00E94AE
:100760007E10860E971EA81EB91E2196D8CF4181F5
:10077000228130E0A0E1BEE00E946F106B017C019D
:10078000242F30E0ACE3B0E00E946F10C60ED71EFD
:10079000E81EF91E8081C80ED11CE11CF11CA48149
:1007A000B0E0119720E831E541E050E00E94891067
:1007B000C60ED71EE81EF91EC80CD91CEA1CFB1C6D
:1007C000C701B601DF91CF911F910F91FF90EF907C
:1007D000DF90CF90BF90AF909F908F907F906F9061
:1007E000089580916A0290E020916B02821B91092A
:1007F000089520916B0280916A02281750F4E22F2D
:10080000F0E0E459FD4F808190E02F5F20936B0270
:1008100008958FEF9FEF0895E0916B0280916A0237
:10082000E81730F4F0E0E459FD4F808190E008953E
:100830008FEF9FEF08950895CF92DF92EF92FF928E
:100840000F931F93CF93DF937C01CB018A012091FB
:100850004602222389F0EB016B01C40ED51ECC1594
:10086000DD0569F06991D701ED91FC910190F0816E
:10087000E02DC7010995F3CF642F0E94D905C80167
:10088000DF91CF911F910F91FF90EF90DF90CF906C
:100890000895CF93DF931F92CDB7DEB76983209180
:1008A00046022223D1F020914702203240F021E07D
:1008B00030E0FC013383228380E090E015C080911A
:1008C0004802E82FF0E0E75BFD4F998190838F5F4E
:1008D000809348028093470205C061E0CE010196F3
:1008E0000E94D90581E090E00F90DF91CF910895AB
:1008F000FC011382128248EE53E060E070E0448312
:1009000055836683778387E291E09183808308959E
:1009100010926B0210926A021092480210924702E3
:100920000C941C0581E0809346026093690210924A
:1009300048021092470208950C9492040F93062FD8
:1009400021E04091470269E472E0809169020E94CF
:1009500082051092480210924702109246020F91AF
:1009600008958F929F92AF92BF92CF92DF92EF92B3
:10097000FF920F931F93CF93DF93EC01F62ED42EAB
:1009800048015901EE2019F10E9492041E2D1430E5
:1009900008F013E01150B8F0E881F98128E0129FC7
:1009A000B0011124A501940104C0569547953795CF
:1009B00027956A95D2F7CA01B9010190F081E02D1F
:1009C000CE010995E7CF60E0CE010E949E044D2D37
:1009D000413208F040E22C2D6CE672E08F2D0E942F
:1009E0003A0510926B0280936A02DF91CF911F91BA
:1009F0000F91FF90EF90DF90CF90BF90AF909F90BE
:100A00008F900895CF92EF920F931F93C22EE12CF7
:100A100000E010E098010E94B1041F910F91EF9047
:100A2000CF90089521E00C94020561E00C949E049F
:100A30008AE392E00C9478041092F90281E08093AA
:100A4000F7021092F60261E082E10E94750B61E00C
:100A500083E10E94750BE9EBF0E080818E7F80835B
:100A600080818D7F808388E48093B80085E48093C3
:100A7000BC000895413208F043C09091F9029111F1
:100A8000FCCF91E09093F9022093F7022FEF20938F
:100A90008C021092D102240F2093D0029093F8027E
:100AA0009091F802880F892B8093F8028091F602CA
:100AB000813061F41092F6028091F8028093BB00BD
:100AC0008091BC0083FDF8CF85EC01C085EE80935A
:100AD000BC008091F9028130E1F38091D10284174A
:100AE00010F44091D10222ED32E0FB01D9018A2FAE
:100AF000821B841718F48D918193F9CF842F089568
:100B000080E008950F93413208F04AC09091F902B5
:100B10009111FCCF92E09093F9020093F7029FEFBE
:100B200090938C021092D1024093D002FB0162EDAF
:100B300072E0DB019A2F961B941718F491919D9304
:100B4000F9CF1092F8029091F802880F892B8093C8
:100B5000F8028091F602813061F41092F6028091E1
:100B6000F8028093BB008091BC0083FDF8CF85EC38
:100B700001C085EE8093BC00222321F08091F90210
:100B80008230E1F380918C028F3F61F080918C0282
:100B9000803251F080918C02803341F483E007C0B1
:100BA00081E005C080E003C082E001C084E00F91D5
:100BB0000895613298F42091F902243089F4609309
:100BC000AE02FC0180EB92E0DC012A2F281B2617E5
:100BD00018F421912D93F9CF80E0089581E00895D4
:100BE00082E0089585ED8093BC008091BC0084FD77
:100BF000FCCF1092F902089585EC8093BC0010920E
:100C0000F90208951F920F920FB60F9211242F939D
:100C10003F934F935F936F937F938F939F93AF9384
:100C2000BF93EF93FF938091B900887F803609F4DA
:100C30009EC078F5883209F45DC090F4803109F4E3
:100C400056C038F4882309F4F5C0883009F44FC041
:100C5000F5C0883109F44EC0803209F45FC0EEC09F
:100C6000803409F46AC058F4803309F457C08833DB
:100C700009F0E4C080938C020E94FC05DFC080353F
:100C800009F44FC0883509F45DC0883409F0D6C036
:100C9000D3C0883909F4C4C0A8F4883709F467C000
:100CA00038F4883609F463C0803709F460C0C6C0E0
:100CB000883809F4B5C0803909F45FC0803809F07C
:100CC000BDC05BC0803B09F483C038F4803A09F4AE
:100CD00066C0883A09F47CC0B1C0803C09F4A4C065
:100CE000883C09F4A1C0883B09F487C0A7C0809163
:100CF000F80210C09091D1028091D002981770F53F
:100D0000E091D10281E08E0F8093D102F0E0EE52AB
:100D1000FD4F80818093BB0085EC83C080938C0263
:100D20008BC0E091D10281E08E0F8093D10280913F
:100D3000BB00F0E0EE52FD4F80839091D102809194
:100D4000D0026BC0E091D10281E08E0F8093D1027E
:100D50008091BB00F0E0EE52FD4F80838091F7025E
:100D600081116AC081E08093F60284EA5EC083E06C
:100D70008093F90210928D02CFCF80918D02803244
:100D800008F04EC0E0918D0281E08E0F80938D02BD
:100D90008091BB00F0E0E257FD4F8083BDCF0E9401
:100DA000FC0580918D02803230F4E0918D02F0E0FC
:100DB000E257FD4F108260918D0270E0E091F202E7
:100DC000F091F3028EE892E0099510928D0236C000
:100DD00084E08093F9021092AF021092AE02E0918B
:100DE000F402F091F50209958091AE02811105C0DF
:100DF00081E08093AE021092B002E091AF0281E0F8
:100E00008E0F8093AF02F0E0E055FD4F808180931C
:100E1000BB009091AF028091AE02981708F47CCF8E
:100E200085E88093BC000AC085EC8093BC001092DA
:100E3000F90204C010928C020E94F205FF91EF911A
:100E4000BF91AF919F918F917F916F915F914F91E2
:100E50003F912F910F900FBE0F901F90189561E05A
:100E60008DE00E943C0B61E08DE00E94750B60E01C
:100E700086E10E943C0B60E087E10E943C0B60E051
:100E800088E10E943C0B60E089E10E943C0B60E03D
:100E90008CE00E943C0B61E08CE00E94750B26E028
:100EA00040E855E260E070E081EA93E00E94B70C10
:100EB0008AE893E00E944D0163E371E08AE893E0E1
:100EC0000E941A0E64EF71E080E090E00E94A50A93
:100ED0008AE893E00C940401843631F480919603FF
:100EE00090919703019607C0853751F4809196033E
:100EF0009091970301979093970380939603089599
:100F00008F3661F3833691F30895CF93DF93EC012D
:100F100062E471E081EA93E00E941A0ECA30D105C2
:100F20002CF460E381EA93E00E941C0E4AE050E05A
:100F3000BE0181EA93E0DF91CF910C94EE0EDF9237
:100F4000EF92FF920F931F93CF93DF93CDB7DEB74E
:100F50002C970FB6F894DEBF0FBECDBFD82EE62E6D
:100F6000F42E122F40E063E08AE893E00E94120121
:100F700089E04AE06D2D8D15A0F0CE0107960E9404
:100F8000B20F69E671E0CE0101960E94640FBE01C6
:100F9000695F7F4FCE0101960E940B1062E471E001
:100FA0000FC0CE0107960E94B20FBE01695F7F4F4E
:100FB000CE0101960E94910F62E471E0CE0101968C
:100FC0000E941E10BC018AE893E00E940C0ECE0124
:100FD00001960E94F60ECE0107960E94F60E89E059
:100FE0004AE06E2D8E15A0F0CE0107960E94B20F3A
:100FF00069E671E0CE0101960E94640FBE01695F4F
:101000007F4FCE0101960E940B1062E471E00FC089
:10101000CE0107960E94B20FBE01695F7F4FCE01DD
:1010200001960E94910F62E471E0CE0101960E9448
:101030001E10BC018AE893E00E940C0ECE010196BE
:101040000E94F60ECE0107960E94F60E89E04AE055
:101050006F2D8F15E8F0CE0107960E94B20F69E65A
:1010600071E0CE0101960E94640FBE01695F7F4F5F
:10107000CE0101960E940B10BC018AE893E00E9409
:101080000C0ECE0101960E94F60ECE0107960DC001
:10109000CE0101960E94B20FBE016F5F7F4F8AE8BA
:1010A00093E00E940C0ECE0101960E94F60E41E0E4
:1010B00064E08AE893E00E9412014AE0612FCE01C9
:1010C00007961A3090F40E94B20F69E671E0CE01E3
:1010D00001960E94640FBE01695F7F4FCE010196A9
:1010E0000E940B1062E471E00DC00E94B20FBE01BD
:1010F000695F7F4FCE0101960E94910F62E471E01B
:10110000CE0101960E941E10BC018AE893E00E9465
:101110000C0ECE0101960E94F60ECE0107960E949B
:10112000F60E4AE0602FCE010A30E0F407960E94E6
:10113000B20F69E671E0CE0101960E94640FBE0114
:10114000695F7F4FCE0101960E940B10BC018AE8B7
:1011500093E00E940C0ECE0101960E94F60ECE0185
:1011600007960CC001960E94B20FBE016F5F7F4FC1
:101170008AE893E00E940C0ECE0101960E94F60EC2
:101180002C960FB6F894DEBF0FBECDBFDF91CF9186
:101190001F910F91FF90EF90DF9008958F929F9293
:1011A000AF92BF92CF92DF92EF92FF920F93CF93C5
:1011B000DF93CDB7DEB72E970FB6F894DEBF0FBE24
:1011C000CDBF80E090E00E9443024B015C0187E0CC
:1011D00090E00E9443026B017C01AE01485F5F4FCB
:1011E000C501B4010E945F02AE014F5F5F4FC701AE
:1011F000B6010E945F026C8570E04AE050E081EA2F
:1012000093E00E94EE0E6BE471E081EA93E00E94AD
:101210001A0E6D8570E04AE050E081EA93E00E948A
:10122000EE0E6BE471E081EA93E00E941A0E6E8587
:1012300070E06E54784F4AE050E081EA93E00E94FB
:10124000EE0E6BE471E081EA93E00E941A0E6A856B
:1012500070E04AE050E081EA93E00E94EE0E89855A
:1012600090E00E948507888590E00E9485076DE4E4
:1012700071E081EA93E00E94270E8AE893E00E94E1
:10128000040109852A854E856D858C850E949F07FE
:101290002E960FB6F894DEBF0FBECDBFDF91CF9173
:1012A0000F91FF90EF90DF90CF90BF90AF909F9005
:1012B0008F90089586E10E94AB0B019789F087E13A
:1012C0000E94AB0B019771F088E10E94AB0B019774
:1012D00059F089E10E94AB0B019741F483E6089530
:1012E00085E7089584E608958FE6089580E30895DC
:1012F0000E945A0980930601803349F0682F81EAE1
:1013000093E00E94390E809106010E946C070E94B2
:10131000CE0864EF71E080E090E00C94A50A0F9392
:1013200000E022E040E167E28AE893E00E9490005A
:1013300062E671E08AEF92E00E94640F6BE471E074
:1013400080E093E00E94640F6BE471E086E093E03C
:101350000E94640F6BE471E08CE093E00E94640FE4
:101360006BE471E082E193E00E94640F6BE471E052
:1013700088E193E00E94640F6BE671E08EE193E0F8
:101380000E94640F64E771E084E293E00E94640FBE
:101390006DE771E08AE293E00E94640F66E871E015
:1013A00080E393E00E94640F6FE871E086E393E0CE
:1013B0000E94640F6BE471E08CE393E00E94640F81
:1013C00068E971E082E493E00E94640F61EA71E0F1
:1013D00088E493E00E94640F6AEA71E08EE493E08F
:1013E0000E94640F6BE471E084E593E00E94640F57
:1013F0006BE471E08AE593E00E94640F6BE471E0B6
:1014000080E693E00E94640F63EB71E086E693E070
:101410000E94640F6CEB71E08CE693E00E94640F15
:1014200065EC71E082E793E00E94640F6EEC71E07E
:1014300088E793E00E94640F67ED71E08EE793E028
:101440000E94640F60EE71E084E893E00F910C94C9
:10145000640FCF93DF93CAE8D3E02697CE010E94B2
:10146000F60E82E0CA3FD807C1F7DF91CF91089509
:101470001F920F920FB60F9211242F933F938F93C9
:101480009F93AF93BF938091990390919A03A091FA
:101490009B03B0919C033091980323E0230F2D37D9
:1014A00020F40196A11DB11D05C026E8230F029668
:1014B000A11DB11D209398038093990390939A03E3
:1014C000A0939B03B0939C0380919D0390919E03F6
:1014D000A0919F03B091A0030196A11DB11D80931F
:1014E0009D0390939E03A0939F03B093A003BF918D
:1014F000AF919F918F913F912F910F900FBE0F90C1
:101500001F9018953FB7F89480919D0390919E038A
:10151000A0919F03B091A00326B5A89B05C02F3FC3
:1015200019F00196A11DB11D3FBF6627782F892FA5
:101530009A2F620F711D811D911D42E0660F771F6A
:10154000881F991F4A95D1F70895CF92DF92EF92A5
:10155000FF92CF93DF936B017C010E94820AEB0123
:10156000C114D104E104F10489F00E9438100E94F2
:10157000820A6C1B7D0B683E734090F381E0C81AB1
:10158000D108E108F108C851DC4FEACFDF91CF91D3
:10159000FF90EF90DF90CF9008958230910538F062
:1015A000880F991F880F991F05970197F1F70895E4
:1015B000789484B5826084BD84B5816084BD85B52E
:1015C000826085BD85B5816085BDEEE6F0E08081F5
:1015D00081608083E1E8F0E0108280818260808316
:1015E000808181608083E0E8F0E080818160808399
:1015F000E1EBF0E0808184608083E0EBF0E08081CB
:1016000081608083EAE7F0E080818460808380816C
:101610008260808380818160808380818068808314
:101620001092C1000895833081F028F4813099F040
:101630008230A1F008958730A9F08830B9F0843065
:10164000D1F4809180008F7D03C0809180008F77DE
:1016500080938000089584B58F7702C084B58F7D14
:1016600084BD08958091B0008F7703C08091B00051
:101670008F7D8093B0000895CF93DF9390E0FC01BD
:10168000E458FF4F2491FC01E057FF4F84918823D9
:1016900049F190E0880F991FFC01E854FF4FA59194
:1016A000B49182559F4FFC01C591D4919FB76111B0
:1016B00008C0F8948C91209582238C938881822392
:1016C0000AC0623051F4F8948C91322F3095832304
:1016D0008C938881822B888304C0F8948C91822B10
:1016E0008C939FBFDF91CF9108950F931F93CF935A
:1016F000DF931F92CDB7DEB7282F30E0F901E8590C
:10170000FF4F8491F901E458FF4F1491F901E0571C
:10171000FF4F04910023C9F0882321F069830E94C0
:10172000130B6981E02FF0E0EE0FFF1FE255FF4F32
:10173000A591B4919FB7F8948C91611103C0109555
:10174000812301C0812B8C939FBF0F90DF91CF919C
:101750001F910F910895CF93DF93282F30E0F90167
:10176000E859FF4F8491F901E458FF4FD491F901F2
:10177000E057FF4FC491CC2391F081110E94130BCD
:10178000EC2FF0E0EE0FFF1FEC55FF4FA591B49149
:101790002C912D2381E090E021F480E002C080E0D4
:1017A00090E0DF91CF910895FC01818D228D90E032
:1017B000805C9F4F821B91098F7399270895FC01CC
:1017C000918D828D981731F0828DE80FF11D858DF6
:1017D00090E008958FEF9FEF0895FC01918D828D29
:1017E000981761F0828DDF01A80FB11D5D968C9175
:1017F000928D9F5F9F73928F90E008958FEF9FEF80
:10180000089581E79DE0892B49F080E090E0892BE5
:1018100029F00E94710D81110C9400000895FC01C3
:10182000848DDF01A80FB11DA35ABF4F2C91848D69
:1018300090E001968F739927848FA689B7892C939E
:10184000A089B1898C9180648C93938D848D981339
:1018500006C00288F389E02D80818F7D8083089502
:10186000CF93DF93EC01888D8823C9F0EA89FB8947
:10187000808185FD05C0A889B9898C9186FD0FC03E
:101880000FB607FCF5CF808185FFF2CFA889B98913
:101890008C9185FFEDCFCE010E940F0CE7CFDF9139
:1018A000CF910895CF92DF92FF920F931F93CF9322
:1018B000DF931F92CDB7DEB76C0181E0D601589659
:1018C0008C9358975B969C915B975C968C915C97F8
:1018D000981307C05096ED91FC915197808185FD3A
:1018E0002EC0F601038D10E00F5F1F4F0F731127FD
:1018F000F02EF601848DF81211C00FB607FCF9CF57
:10190000D6015096ED91FC915197808185FFF1CFE2
:10191000C60169830E940F0C6981EBCF838DE80FAC
:10192000F11DE35AFF4F6083D6015B960C935B97E2
:101930005296ED91FC915397808180620CC0D60144
:101940005696ED91FC91579760835096ED91FC91DE
:10195000519780818064808381E090E00F90DF91D7
:10196000CF911F910F91FF90DF90CF900895BF927C
:10197000CF92DF92EF92FF92CF93DF93EC016A0157
:101980007B01B22EE889F98982E08083411581EEDE
:10199000580761057105A1F060E079E08DE390E002
:1019A000A70196010E944D102150310941095109AA
:1019B0005695479537952795211580E1380798F07A
:1019C000E889F989108260E874E88EE190E0A70167
:1019D00096010E944D102150310941095109569537
:1019E000479537952795EC85FD853083EE85FF85F6
:1019F0002083188EEC89FD89B082EA89FB89808179
:101A000080618083EA89FB89808188608083EA899C
:101A1000FB89808180688083EA89FB8980818F7D52
:101A20008083DF91CF91FF90EF90DF90CF90BF90B8
:101A300008951F920F920FB60F9211242F938F9338
:101A40009F93EF93FF93E091B103F091B2038081F4
:101A5000E091B703F091B80382FD12C090818091AC
:101A6000BA038F5F8F732091BB03821751F0E0910F
:101A7000BA03F0E0EF55FC4F958F8093BA0301C095
:101A80008081FF91EF919F918F912F910F900FBEC9
:101A90000F901F9018951F920F920FB60F9211245E
:101AA0002F933F934F935F936F937F938F939F9366
:101AB000AF93BF93EF93FF9381EA93E00E940F0CE3
:101AC000FF91EF91BF91AF919F918F917F916F9116
:101AD0005F914F913F912F910F900FBE0F901F90EC
:101AE000189581EA93E00E94D40B21E0892B09F438
:101AF00020E0822F08951092A4031092A30388EE91
:101B000093E0A0E0B0E08093A5039093A603A09398
:101B1000A703B093A8038DE192E09093A203809372
:101B2000A10385EC90E09093AE038093AD0384EC29
:101B300090E09093B0038093AF0380EC90E090939B
:101B4000B2038093B10381EC90E09093B40380934F
:101B5000B30382EC90E09093B6038093B50386ECD8
:101B600090E09093B8038093B7031092BA03109259
:101B7000BB031092BC031092BD03089508950E9408
:101B8000D80A0E94BE0D0E942F07C1E0DCE00E942F
:101B900078092097E1F30E94010CF9CFCF92DF92F0
:101BA000EF92FF920F931F93CF93DF937C016A0113
:101BB000EB0100E010E00C151D0571F06991D701F3
:101BC000ED91FC910190F081E02DC7010995892BE1
:101BD00019F00F5F1F4FEFCFC801DF91CF911F9119
:101BE0000F91FF90EF90DF90CF90089561157105F0
:101BF00081F0DB010D900020E9F7AD014150510962
:101C0000461B570BDC01ED91FC910280F381E02D26
:101C1000099480E090E00895DC01ED91FC91DB01F6
:101C200014964D915C9115976D917C910280F38192
:101C3000E02D09940C94F60DDC01ED91FC910190DE
:101C4000F081E02D099469E272E00C94F60D0F9397
:101C50001F93CF93DF93EC010E94F60D8C01CE0110
:101C60000E94230E800F911FDF91CF911F910F9142
:101C700008950F931F93CF93DF93EC010E941C0EE6
:101C80008C01CE010E94230E800F911FDF91CF9116
:101C90001F910F9108958F929F92AF92BF92CF9212
:101CA000DF92EF92FF920F931F93CF93DF93CDB705
:101CB000DEB7A1970FB6F894DEBF0FBECDBF7C0193
:101CC000C42EE52FCB01D22E19A221E02D1510F044
:101CD0002AE0D22E8E010F5D1F4F8D2C912CA12C4E
:101CE000B12C6C2D7E2FA50194010E944D108C2DDE
:101CF000D29E80191124015011098A3014F4805D9C
:101D000001C0895CF8018083211531054105510529
:101D100021F0C22EE32FCA01E4CFB801C7010E940F
:101D2000F60DA1960FB6F894DEBF0FBECDBFDF91C2
:101D3000CF911F910F91FF90EF90DF90CF90BF90C8
:101D4000AF909F908F900895CF92DF92EF92FF9285
:101D50000F931F93CF93DF93EC016A017B01211551
:101D6000310579F4E881F9810190F081E02D642F4B
:101D7000DF91CF911F910F91FF90EF90DF90CF9067
:101D800009942A303105E9F477FF1AC06DE20E9408
:101D90001C0E8C0144275527BA014C195D096E09A8
:101DA0007F092AE0CE010E944B0E800F911FDF9128
:101DB000CF911F910F91FF90EF90DF90CF900895FA
:101DC0002AE0B701A601CE01DF91CF911F910F91BB
:101DD000FF90EF90DF90CF900C944B0E9A01AB01E7
:101DE000662757FD6095762F0C94A40EFC01808128
:101DF00091810C944311CF93DF93EC0188819981F9
:101E0000009711F00E944311198218821D821C82D2
:101E10001B821A82DF91CF9108950F931F93CF9366
:101E2000DF93EC018B016F5F7F4F888199810E9466
:101E3000D211009731F0998388831B830A8381E054
:101E400001C080E0DF91CF911F910F910895CF9352
:101E5000DF93EC0188819981892B29F08A819B810C
:101E60008617970760F4CE010E940D0F882341F07A
:101E70008C819D81892B19F4E881F981108281E0A0
:101E8000DF91CF910895EF92FF920F931F93CF931D
:101E9000DF93EC017B018A01BA010E94270F8111B7
:101EA00004C0CE010E94FB0E07C01D830C83B70146
:101EB000888199810E94A512CE01DF91CF911F9157
:101EC0000F91FF90EF900895FC0111821082138210
:101ED0001282158214826115710559F0FB0101907F
:101EE0000020E9F7AF0141505109461B570B0C94F4
:101EF000430F0895CF93DF93EC01FB0186179707FB
:101F000061F0608171816115710529F0448155810D
:101F10000E94430F02C00E94FB0ECE01DF91CF91C1
:101F20000895FC011182108213821282158214829C
:101F30000C947A0FCF93DF93EC016115710561F07A
:101F4000FB0101900020E9F7AF0141505109461B08
:101F5000570B0E94430F02C00E94FB0ECE01DF917F
:101F6000CF9108950F931F93CF93DF93CDB7DEB733
:101F700029970FB6F894DEBF0FBECDBF8C01862F18
:101F8000F80111821082138212821582148250E0AD
:101F9000BE016F5F7F4F90E00E94AC12BE016F5F89
:101FA0007F4FC8010E949A0F29960FB6F894DEBFA2
:101FB0000FBECDBFDF91CF911F910F910895EF928A
:101FC000FF920F931F93CF93DF93EC017B010C8162
:101FD0001D816115710511F480E016C04115510590
:101FE00091F0040F151FB8010E94270F8823A1F359
:101FF000288139818C819D81B701820F931F0E94B6
:10200000A5121D830C8381E0DF91CF911F910F9169
:10201000FF90EF900895CF93DF93EC01FB01448193
:102020005581608171810E94DF0F811103C0CE0153
:102030000E94FB0ECE01DF91CF910895CF93DF93E5
:10204000EC016115710569F0FB0101900020E9F7D1
:10205000AF0141505109461B570B0E94DF0F811100
:1020600003C0CE010E94FB0ECE01DF91CF910895F7
:10207000089597FB072E16F4009407D077FD09D03A
:102080000E94911007FC05D03EF4909581959F4FDA
:102090000895709561957F4F0895A1E21A2EAA1BAD
:1020A000BB1BFD010DC0AA1FBB1FEE1FFF1FA21708
:1020B000B307E407F50720F0A21BB30BE40BF50B05
:1020C000661F771F881F991F1A9469F7609570958E
:1020D000809590959B01AC01BD01CF010895A29F11
:1020E000B001B39FC001A39F700D811D1124911DEC
:1020F000B29F700D811D1124911D08950E946F10D3
:10210000A59F900DB49F900DA49F800D911D11244B
:102110000895B7FF0C947E100E947E10821B930BD3
:102120000895AA1BBB1B51E107C0AA1FBB1FA6171E
:10213000B70710F0A61BB70B881F991F5A95A9F770
:1021400080959095BC01CD010895EE0FFF1F05907D
:10215000F491E02D0994CF93DF938230910510F430
:1021600082E090E0E0914004F091410420E030E012
:10217000A0E0B0E0309739F140815181481759070C
:10218000B8F04817590771F482819381109729F0AC
:1021900013969C938E9312972CC090934104809336
:1021A000400427C02115310531F04217530718F0BC
:1021B000A901DB0101C0EF019A01BD01DF0102802D
:1021C000F381E02DD7CF21153105F9F0281B390B0C
:1021D0002430310580F48A819B816115710521F0DD
:1021E000FB019383828304C0909341048093400455
:1021F000FE01329644C0FE01E20FF31F81939193DA
:1022000022503109398328833AC020913E0430910D
:102210003F04232B41F420910201309103013093BC
:102220003F0420933E0420910001309101012115CB
:10223000310541F42DB73EB740910401509105019D
:10224000241B350BE0913E04F0913F04E217F307A5
:10225000A0F42E1B3F0B2817390778F0AC014E5F16
:102260005F4F2417350748F04E0F5F1F50933F0410
:1022700040933E048193919302C0E0E0F0E0CF01EF
:10228000DF91CF910895CF93DF93009709F487C032
:10229000FC01329713821282C0914004D091410414
:1022A000209781F420813181280F391F80913E04CD
:1022B00090913F048217930779F5F0933F04E093E0
:1022C0003E046DC0DE0120E030E0AE17BF0750F4E1
:1022D00012964D915C9113979D014115510509F19D
:1022E000DA01F3CFB383A28340815181840F951F1C
:1022F0008A179B0771F48D919C911197840F951FFC
:1023000002969183808312968D919C91139793836B
:1023100082832115310529F4F0934104E0934004B0
:102320003EC0D9011396FC93EE9312974D915D91A7
:10233000A40FB51FEA17FB0779F480819181840F00
:10234000951F0296D90111969C938E938281938159
:1023500013969C938E931297E0E0F0E08A819B8124
:10236000009719F0FE01EC01F9CFCE010296288109
:102370003981820F931F20913E0430913F0428172A
:10238000390769F4309729F41092410410924004FF
:1023900002C013821282D0933F04C0933E04DF91A7
:1023A000CF910895A0E0B0E0E8EDF1E10C94E512E2
:1023B000EC01CB01209719F40E94AB10B8C0FE01CC
:1023C000E60FF71F9E0122503109E217F30708F4C8
:1023D000ACC0D9010D911C91119706171707B8F0E1
:1023E0000530110508F49FC0A80144505109461753
:1023F000570708F498C002501109061B170B0193E8
:1024000011936D937C93CF010E9443118CC05B01AB
:10241000A01AB10A4E01800E911EA0914004B09105
:102420004104612C712C60E070E0109709F449C000
:10243000A815B905C9F5ED90FC901197670142E028
:10244000C40ED11CCA14DB0478F147018A189B081A
:10245000640142E0C40ED11C1296BC9012971396F0
:10246000AC91B5E0CB16D10440F0B282A383918247
:102470008082D9018D939C9309C00E5F1F4F0E0D72
:102480001F1DF90111830083EB2DFA2F61157105D2
:1024900031F0DB011396FC93EE93129744C0F09356
:1024A0004104E09340043FC06D917C911197661602
:1024B000770608F43B01BD0112960D90BC91A02D4A
:1024C000B4CF60913E0470913F0468157905E9F43A
:1024D00068167906D0F44091000150910101411530
:1024E000510541F44DB75EB760910401709105014B
:1024F000461B570BE417F507C0F4F0933F04E09335
:102500003E04F901918380830EC00E94AB107C01D0
:10251000009759F0A801BE010E949C12CE010E94B2
:102520004311C70104C0CE0102C080E090E0CDB7E6
:10253000DEB7EEE00C940113FB01DC0102C0019058
:102540000D9241505040D8F70895FB01DC010190F5
:102550000D920020E1F708954532510520F44230F4
:1025600010F00C94B712FB011082CB010895BB2729
:10257000FB015527AA27880F991FAA1FA41710F03F
:10258000A41B83955051B9F7A05DAA3308F0A95D4B
:10259000A193009779F7B111B1931192CB010C94EB
:1025A000D112DC01FC01672F71917723E1F732979B
:1025B00004C07C916D9370836291AE17BF07C8F31E
:1025C00008952F923F924F925F926F927F928F92D7
:1025D0009F92AF92BF92CF92DF92EF92FF920F93B2
:1025E0001F93CF93DF93CDB7DEB7CA1BDB0B0FB6BC
:1025F000F894DEBF0FBECDBF09942A883988488879
:102600005F846E847D848C849B84AA84B984C8840E
:10261000DF80EE80FD800C811B81AA81B981CE0F05
:10262000D11D0FB6F894DEBF0FBECDBFED010895EA
:1026300010E0CAECD0E004C0FE010E94A710229670
:0A264000CC3CD107C9F7F894FFCF96
:10264A0000004204800030000040001400540000E2
:10265A000000004701CE0D1F1C1F1E1F1E1F1F1E3C
:10266A001F1E1F0000000049041C04F103F9030C9B
:10267A00041B04696E69636961646F2072656C6F1B
:10268A006A003A00414C41524D313A20000900415A
:10269A004C41524D206F666600414C41524D206FAD
:1026AA006E004D656E7520302E30004D656E7520BA
:1026BA00312E30004D656E7520312E31004D656E1C
:1026CA007520312E32004D656E7520312E33004D46
:1026DA00656E7520312E34004D656E7520322E30B0
:1026EA00004D656E7520322E31004D656E752032B3
:1026FA002E32004D656E7520332E30004D656E7595
:10270A0020332E31004D656E7520332E32004D6513
:10271A006E7520332E33004D656E7520332E3400CE
:10272A004D656E7520332E35004A616E004665622E
:10273A00004D617200417072004D6179004A756EF8
:10274A00004A756C0041756700536570004F6374E9
:10275A00004E6F76004465630000000000520CCE04
:10276A000DD40BED0BDF0B300C0D0A006E616E0001
:0A277A00696E66006F7666002E009F
:00000001FF
