:100000000C94B0010C94F3240C941E250C944925F7
:100010000C9474250C949F250C94CA250C94F525FA
:100020000C9420260C94E1010C94E1010C94E10164
:100030000C94E1010C94E1010C94E1010C94E101B8
:100040000C94E1010C94E1010C94E1010C94E101A8
:100050000C94E1010C94E1010C94E1010C944B2609
:100060000C94E1010C94AD290C94E3290C94E1016A
:100070000C94E1010C94E1010C94E1010C94E10178
:100080000C94E1010C94E1010C94E1010C94E10168
:100090000C94E1010C94E1010C94E1010C94260C08
:1000A0000C94E1010C94E1010C94E1010C94E10148
:1000B0000C94E1010C94E1010C94E1010C94E10138
:1000C0000C94E1010C94E1010C94E1010C94E10128
:1000D0000C94E1010C94E1010C94E1010C94E10118
:1000E0000C94E101CD2497249F24AB24B824D92477
:1000F000E6246627692758275C276227A0276D27F3
:10010000712777277B277F27852789278D27A0279A
:10011000932797279B27072C7AA5BA6CC590DA3BC3
:100120009365FC8BBC53F810FD3C5692834DBD8704
:100130009D3AB63DCBC9BF5BBE73DA0FC93F05A878
:100140004CCDB2D44EB93836A9020C50B99186883C
:10015000083CA6AAAA2ABE000000803F0664EC1B49
:100160003C04BC163E3BE5B93CC93C37C29E5A3DF7
:10017000660498083EEA69AAAA3E000000803F0093
:100180000C94600D0C943C0B0C94A0270C94B82498
:100190000C9481240C94400A0C946D270C948527B0
:1001A0000C9497270C9489270C94C5030C9458271A
:1001B0000C941D0A0C94CD240C94150A0C947F27E2
:1001C0000C9466270C94E6240C947B270C94392815
:1001D0000C949F240C946A2A0C943F0A0C94772761
:1001E0000C9462270C94C4280C94300A0C94972425
:1001F0000C94A9020C9476240C9452280C949B27FE
:100200000C94D9240C945C270C9469270C940D2A27
:100210000C94E6280C946D0A0C94AB240C948D2756
:100220000C9493270C94172A0C9444280C94662859
:100230000C9471270C94570D00000A0B02090C0D49
:100240000E08070304010000000000000000000089
:10025000000000000000000000000000000000009E
:10026000000000001211100000000000000000005B
:10027000000000000000000000000000000001027B
:1002800010202008081020401020408002010201A8
:100290000804020101020408102040808040201060
:1002A00008040201800402018040201008040201B9
:1002B0000804020101020408102040800102040821
:1002C00010204080050505050705080808080202FA
:1002D00002020A0A080804040404010101010101E0
:1002E00001010303030303030303040707070C0CC3
:1002F0000C0C0C0C0C0C020202020606060606068A
:1003000006060B0B0B0B0B0B0B0B00002000230046
:10031000260029002C002F003200000100000301FC
:100320000601090100002200250028002B002E00F4
:100330003100340002010000050108010B0100003A
:100340002100240027002A002D0030003300010185
:100350000000040107010A01C5033C0B7624172A9B
:1003600011241FBECFEFD1E2DEBFCDBF00E00CBF36
:1003700019E0A0E0B2E0E6EDFBE600E00BBF02C052
:1003800007900D92AC3DB107D9F72CE0ACEDB9E088
:1003900001C01D92A23DB207E1F713E0C0E6D3E031
:1003A00000E006C022970109FE010BBF0E945531F3
:1003B000C835D10780E00807A9F70E945B2A0C9492
:1003C000E9350C9400000F93FC01138212828CED2E
:1003D00093E091838083648340872187028788E04C
:1003E00083870F9108951F93CF93DF93EC01162F0E
:1003F0006C818CED99E00E94B60AE091DC09F091E5
:10040000DD096B85612B0190F081E02D8CED99E089
:1004100019958CED99E0DF91CF911F910C94390BD8
:100420001F93CF93DF93EC01162F64600E94F301BA
:1004300081E090E00E94E026612F6B7FCE010E9458
:10044000F30182E390E0DF91CF911F910C94E026BD
:100450001F93CF93DF93EC01162F0E94F301612FBE
:10046000CE01DF91CF911F910C941002EF92FF9279
:100470001F93CF93DF931F92CDB7DEB77C01162F6A
:10048000607F642B49830E94280280E1189FB0019D
:1004900011244981642BC7010F90DF91CF911F91E7
:1004A000FF90EF900C94280240E00C94360261E03B
:1004B0000E94540280ED97E00C94E02662E00E94D6
:1004C000540280ED97E00C94E026CF93DF93CDB7F4
:1004D000DEB728970FB6F894DEBF0FBECDBF28E079
:1004E000EAECF3E0DE01119601900D922A95E1F716
:1004F000FC012185241710F44FEF420FFE013196C5
:10050000E40FF11DE40FF11D2081260F2068622FFA
:1005100028960FB6F894DEBF0FBECDBFDF91CF9106
:100520000C945402FC016681262F246026836C60A3
:100530000C945402FC0166816E7F668368600C94A3
:100540005402FC016681262F2160268369600C9489
:10055000540241E00E94360281E090E00895CF937A
:10056000DF93EC018CED99E00E94AC0A1D82898535
:10057000823010F098E09D839A85992329F081308C
:1005800019F48D8184608D8362E370E080E090E0F7
:100590000E94B8266B85CE010E94F30168EE73E0DD
:1005A00080E090E00E94B82660E3CE010E9428021D
:1005B00084E991E10E94E02660E3CE010E942802D6
:1005C00084E991E10E94E02660E3CE010E942802C6
:1005D00086E990E00E94E02660E2CE010E942802B7
:1005E0006D816062CE010E94540284E08E83CE0150
:1005F0000E949202CE010E94570282E08F8366E041
:10060000CE010E945402CE01DF91CF910C945E0284
:10061000DC01ED91FC910190F081E02D1994CF93D4
:10062000DF93EC0168E670E08CED99E00E94C00A6F
:100630006EE070E08CED99E00E94080320910602C4
:1006400030910702279711F4216001C02360309395
:1006500007022093060260910602709107028CED5A
:1006600099E00E9408038CED99E0DF91CF910C9402
:10067000390B68E670E08CED99E00E94C00A6FE0EB
:1006800070E08CED99E00E94080360E070E08CED72
:1006900099E00E9408038CED99E00C94390BCF93FC
:1006A000DF93EC0168E670E08CED99E00E94C00AEF
:1006B0006EE070E08CED99E00E94080380910602E4
:1006C00090910702C130D10569F02CF4CD2B89F44B
:1006D000877E99270AC0C230D10531F0239749F4AB
:1006E000886103C0886001C0806190930702809395
:1006F000060260910602709107028CED99E00E945B
:1007000008038CED99E0DF91CF910C94390B6AE0EE
:100710000E94A93020E1829F900D1124892F089515
:10072000982F92959F708F702AE0929F800D1124D0
:10073000089568E670E08CED99E00E94C00A6FE0D1
:1007400070E08CED99E00E94080360E870E08CEDA9
:1007500099E00E9408038CED99E00C94390B68E64F
:1007600070E08CED99E00E94C00A6FE070E08CEDC3
:1007700099E00E94080360E070E08CED99E00E942F
:1007800008038CED99E00C94390B8CED99E00C94F6
:10079000AC0AEF92FF920F931F93CF93DF931F92B8
:1007A0001F92CDB7DEB77C018B016730710549F030
:1007B0006B30710549F06115710541F447E050E077
:1007C00005C044E050E002C043E050E068E670E05D
:1007D0008CED99E049835A830E94C00AB8018CEDE0
:1007E00099E00E9408038CED99E00E94390B498141
:1007F0005A8168E670E08CED99E00E94360B0B3070
:10080000110541F08CED99E00E941D0A0E949003B1
:10081000F70180838CED99E00E941D0A0E949003ED
:10082000F70181838CED99E00E941D0A0E949003DC
:10083000F70182838CED99E00730110519F00B3038
:10084000110549F40E941D0A0E949003F701848358
:10085000158216821FC00E941D0A0E949003F70194
:1008600083838CED99E00E941D0A0E949003F7019A
:1008700084838CED99E00E941D0A0E949003F70189
:1008800085838CED99E00E941D0A0E949003825E90
:10089000F70186830F900F90DF91CF911F910F91F9
:1008A000FF90EF900895CF93DF93CDB7DEB72797F2
:1008B0000FB6F894DEBF0FBECDBFBC01CE010196CE
:1008C0000E94C903CE0101960E94C90527960FB662
:1008D000F894DEBF0FBECDBFDF91CF9108950F9387
:1008E0001F93CF93DF93EC018B0168E670E08CEDF2
:1008F00099E00E94C00AB8018CED99E00E940803BB
:100900000B30110541F088810E948703682F8CED20
:1009100099E00E946D0A89810E948703682F8CEDFF
:1009200099E00E946D0A8A810E948703682F8CEDEE
:1009300099E00E946D0A0730110519F00B3011057E
:1009400011F48C811AC08B810E948703682F8CED73
:1009500099E00E946D0A8C810E948703682F8CEDBC
:1009600099E00E946D0A8D810E948703682F8CEDAB
:1009700099E00E946D0A8E818E510E948703682F34
:100980008CED99E00E946D0A8CED99E0DF91CF919A
:100990001F910F910C94390B0F931F93CF93DF93FB
:1009A000CDB7DEB727970FB6F894DEBF0FBECDBF29
:1009B0008A01AE014F5F5F4F0E94F2040E949903CB
:1009C000B801CE0101960E946F040E94AF032796E2
:1009D0000FB6F894DEBF0FBECDBFDF91CF911F9150
:1009E0000F9108956F927F928F929F92AF92BF92D4
:1009F000CF92DF92EF92FF920F931F93CF93DF93EB
:100A0000EA012CE3C22ED12CE12CF12CA701960196
:100A10000E94DD306883CA01B901A70196010E94D6
:100A2000DD306983CA01B90128E130E040E050E0DF
:100A30000E94DD3049015A016A83CA01B9016C5F25
:100A40007F4F8F4F9F4F27E030E040E050E00E9403
:100A5000DD306F5F6B8300E010E0980140E054E60A
:100A6000652E712C60E9C62EDD24D394E42FF0E0CE
:100A7000EE54F84F7F0183E0E822FF24E114F104F3
:100A800089F4CF01B3010E94C930892B29F08EE689
:100A900091E0A0E0B0E00AC0CF01B6010E94C930E9
:100AA000892BA9F38DE691E0A0E0B0E0080F191FB3
:100AB0002A1F3B1FD901C801AA27BB278816990600
:100AC000AA06BB0610F04F5FD1CF4E83E114F104AC
:100AD00099F4CF0164E670E00E94C930892B29F0B7
:100AE0008EE691E0A0E0B0E00BC0CF0160E971E0DC
:100AF0000E94C930892BA1F38DE691E0A0E0B0E01F
:100B0000081B190B2A0B3B0B801A910AA20AB30A85
:100B1000CF0164E670E00E94C9309C01CF0160E91A
:100B200071E00E94C930E0EEF3E0A0E0A13059F49A
:100B3000E114F10451F42115310511F04DE106C025
:100B40000097E1F302C0408101C04CE150E060E059
:100B500070E084169506A606B70640F0841A950A3A
:100B6000A60AB70AAF5F3196AC3001F7AF5FAD832D
:100B700083948C82DF91CF911F910F91FF90EF9022
:100B8000DF90CF90BF90AF909F908F907F906F90AD
:100B900008956F927F928F929F92AF92BF92CF9261
:100BA000DF92EF92FF920F931F93CF93DF93FC019D
:100BB000C680AC2DB0E020E833E341EE51E00E9466
:100BC00042314B015C0122EB37E06D01C4E6D0E01D
:100BD00000E911E0C901825B97408C159D05DCF4AA
:100BE000C90183709927892B99F4C901BE010E941C
:100BF000C930892B31F4C901B8010E94C930892B51
:100C000039F480E8880E81E5981E81E0A81EB11CA9
:100C10002F5F3F4FDFCF6580712C8EE4C81A88EFBD
:100C2000D80AC60164E670E00E94C9308C01C60192
:100C300060E971E00E94C9307C01C1E0D0E083E04E
:100C4000C822DD24C615D7052CF5C230D10589F49C
:100C5000C114D10471F40115110519F4E114F10462
:100C600041F480E8880E8BE3981E86E2A81EB11C32
:100C70000FC0DE01A152BC4FAC91B0E020E831E5DD
:100C800041E050E00E944231860E971EA81EB91E18
:100C90002196D8CF4181228130E0A0E1BEE00E94C0
:100CA0002C316B017C01242F30E0ACE3B0E00E94DA
:100CB0002C31C60ED71EE81EF91E8081C80ED11C2D
:100CC000E11CF11CA481B0E0119720E831E541E07E
:100CD00050E00E944D31C60ED71EE81EF91EC80C0A
:100CE000D91CEA1CFB1CC701B601DF91CF911F91F3
:100CF0000F91FF90EF90DF90CF90BF90AF909F90BB
:100D00008F907F906F900895FC0140E050E068ED77
:100D100071E4408351836283738340E050E064EA6E
:100D200072EC448355836683778384ED9EEF9187CD
:100D3000808783E0828782E083878BE0848781E0FD
:100D400085878CE3868708959B0177FF04C022275F
:100D50003327261B370B213D32402CF4FC017187D1
:100D6000608781E0089580E008958F929F92AF920E
:100D7000BF92CF92DF92EF92FF920F931F93CF9388
:100D8000DF93EC016A017B0148015901C901B801F7
:100D90009F7720E030E044E353E40E94AD2F181623
:100DA000ACF020E030E044EB52E4C701B6019F779D
:100DB0000E94AD2F181654F0C882D982EA82FB82B5
:100DC0008C829D82AE82BF8281E001C080E0DF9193
:100DD000CF911F910F91FF90EF90DF90CF90BF9038
:100DE000AF909F908F9008959B01CB0183709927BE
:100DF000892B39F4CB0164E670E00E94C930892B5D
:100E000059F4C90160E971E00E94C93021E0892BE1
:100E100009F020E0822F089581E00895FB016581AB
:100E20002481223049F470E06053784F0E94F40628
:100E3000882361F08DE10895822F8170283010F0B1
:100E400091E08927882321F08FE108958CE10895AE
:100E50008EE108958F929F92AF92BF92CF92DF92D0
:100E6000EF92FF920F931F93CF93DF938C01EB01CF
:100E700069017A018981C80ED11CE11CF11CC701EE
:100E8000B6012CE330E040E050E00E94FF30490121
:100E90005A01F601C601D7FE04C0882799278C198C
:100EA0009D096CE370E00E94C930F7FF02C0AFEF0C
:100EB00001C0A1E09C01BB27A7FDB0950E94243191
:100EC000645C7F4F8F4F9F4F2CE330E040E050E059
:100ED0000E94FF3069838A81880E911CA11CB11C7D
:100EE000C501B40128E130E040E050E00E94FF304D
:100EF00069017A01F401C40197FE04C0882799278B
:100F00008819990968E170E00E94C930F7FF02C0B2
:100F1000AFEF01C0A1E09C01BB27A7FDB0950E94E7
:100F20002431685E7F4F8F4F9F4F28E130E040E0D3
:100F300050E00E94FF306A838B81C80ED11CE11CF7
:100F4000F11CBE01C8010E940E0790E0A0E0B0E0D5
:100F50008C159D05AE05BF0554F4C81AD90AEA0AD6
:100F6000FB0A81E08C0D8B838C818F5F8C831C143A
:100F70001D041E041F044CF08C8181508C83BE0123
:100F8000C8010E940E078C0D8B838D8190E0A0E03C
:100F9000B0E02C81211105C02CE02C830197A10920
:100FA000B1092C812D3028F021E02C830196A11D60
:100FB000B11DBC01CD016C597F4F8F4F9F4F24E66F
:100FC00030E040E050E00E94FF306D83DF91CF9130
:100FD0001F910F91FF90EF90DF90CF90BF90AF9057
:100FE0009F908F9008952F923F924F925F926F92B1
:100FF0007F928F929F92AF92BF92CF92DF92EF92A9
:10100000FF920F931F93CF93DF93CDB7DEB76D970A
:101010000FB6F894DEBF0FBECDBF1C018B014D8F04
:10102000DB011496FC901497FA941396BC90BA9432
:10103000DC0114968D919D910D90BC91A02D8D8B0E
:101040009E8BAF8BB88F21EE3EE245E652E4F10174
:1010500060817181828193810E94E92D69837A8305
:101060008B839C83FD8DF11103C066E0A62E02C028
:1010700052E1A52E6F2D70E080E090E00E94842E5A
:1010800020E030E843EF51E40E94B12F6B017C0176
:101090006B2D70E080E090E00E94842E9B01AC01FB
:1010A000C701B6010E94822D6B017C016A2D70E0A0
:1010B00080E090E00E94842E20E030E040EC51E49B
:1010C0000E94E92D9B01AC01C701B6010E94822D4F
:1010D00022E43DEC4CE85CE30E94B12F6B017C0103
:1010E0000E94E62D6D837E838F839887C701B601AA
:1010F0000E94143069877A878B879C87A7019601A5
:10110000C701B6010E94822D4B015C010E94E62DB1
:101110006D877E878F87988BC501B4010E9414303C
:10112000698B7A8B8B8B9C8B20E030E040E450E421
:10113000C701B6010E94B12F6B017C010E94E62D10
:101140002B013C01C701B6010E9414306B017C01E8
:1011500024E431EC4CEC5EE36D817E818F819885D7
:101160000E94B12F9B01AC0164E670EB82EE9BE321
:101170000E94812D4B015C0127EE32EE4FE85DE3CA
:1011800069857A858B859C850E94B12F9B01AC0176
:10119000C501B4010E94822D4B015C0126E332E7B8
:1011A0004DED5BE36D857E858F8598890E94B12F1B
:1011B0009B01AC01C501B4010E94812D4B015C0172
:1011C0002DEB33EC4DE65AE369897A898B899C894A
:1011D0000E94B12F9B01AC01C501B4010E94822D78
:1011E0004B015C0127E230EC40E35BE3C301B20159
:1011F0000E94B12F9B01AC01C501B4010E94812D59
:101200004B015C012FE83CEF41EC5AE3C701B6010A
:101210000E94B12F9B01AC01C501B4010E94822D37
:101220004B015C0169817A818B819C810E94E62D52
:101230002B013C01C501B4010E94E62D9B01AC01CC
:1012400069817A818B819C81298F3A8F4B8F5C8F4A
:101250000E945C306B017C01C501B4010E945C30CE
:101260004B015C01298D3A8D4B8D5C8DC301B20120
:101270000E94B12F9B01AC0168E879E48EE69CEBFB
:101280000E94E92D2B013C01A5019401C701B60183
:101290000E94B12F9B01AC01C301B2010E94812DBC
:1012A0006B017C019F7720E030E040E85FE30E9423
:1012B000AD2F18160CF499C0C701B6010E94732D0A
:1012C0006B017C018D8D811104C0F7FAF094F7F861
:1012D000F0946D897E898F89988D905821EE3EE239
:1012E00045E652E40E94E92DA70196010E94812D56
:1012F00020E030E040E850E40E94B12F21EE3EE2D1
:1013000045E652E40E94B12F20E030E044E354E48B
:101310000E94822D6B017C012EEA37ED44EF5AE3E7
:101320006D817E818F8198850E94B12F22E539E4FD
:101330004DE958E30E94822D4B015C012CE233E61B
:1013400043E05DE369857A858B859C850E94B12F9A
:101350009B01AC01C501B4010E94812D4B015C01D0
:1013600021EC33E74FE65CE36D857E858F859889B8
:101370000E94B12F9B01AC01C501B4010E94812DD7
:101380004B015C0128E431E547E25DE369897A8934
:101390008B899C890E94B12F9B01AC01C501B401CE
:1013A0000E94812D24E13EE245E653E40E94B12FE4
:1013B0009B01AC01C701B6010E94812D0E94512EF4
:1013C000D10118962D913C911997260F371FF801DE
:1013D000128211821082442737FD4095542FB801A4
:1013E000C1010E942A0781E001C080E06D960FB61E
:1013F000F894DEBF0FBECDBFDF91CF911F910F914B
:10140000FF90EF90DF90CF90BF90AF909F908F9024
:101410007F906F905F904F903F902F90089541E0A4
:101420000C94F30740E00C94F30780910C0A90E0D1
:1014300020910D0A821B9109089520910D0A809137
:101440000C0A281750F4E22FF0E0E25FF54F80819C
:1014500090E02F5F20930D0A08958FEF9FEF08957E
:10146000E0910D0A80910C0AE81730F4F0E0E25F99
:10147000F54F808190E008958FEF9FEF08950895D4
:10148000CF92DF92EF92FF920F931F93CF93DF9350
:101490007C01CB018A012091E809222389F0EB012C
:1014A0006B01C40ED51ECC15DD0569F06991D7011D
:1014B000ED91FC910190F081E02DC7011995F3CFDA
:1014C000642F0E94FD0BC801DF91CF911F910F91F6
:1014D000FF90EF90DF90CF900895CF93DF931F920E
:1014E000CDB7DEB769832091E8092223D1F020919E
:1014F000E909203240F021E030E0FC01338322830F
:1015000080E090E015C08091EA09E82FF0E0E55115
:10151000F64F998190838F5F8093EA098093E90960
:1015200005C061E0CE0101960E94FD0B81E090E0D4
:101530000F90DF91CF910895FC011382128248EE43
:1015400053E060E070E0448355836683778380EFE7
:1015500093E091838083089510920D0A10920C0AF3
:101560001092EA091092E9090C94400B81E08093F3
:10157000E80960930B0A1092EA091092E9090895AC
:101580000C94B60A0F93062F21E04091E9096BEE07
:1015900079E080910B0A0E94A60B1092EA09109242
:1015A000E9091092E8090F9108958F929F92AF92E6
:1015B000BF92CF92DF92EF92FF920F931F93CF9340
:1015C000DF93EC01F62ED42E48015901EE2019F1DB
:1015D0000E94B60A1E2D143008F013E01150B8F026
:1015E000E881F98128E0129FB0011124A50194013E
:1015F00004C056954795379527956A95D2F7CA0145
:10160000B9010190F081E02DCE011995E7CF60E09E
:10161000CE010E94C20A4D2D413208F040E22C2D2D
:101620006EE07AE08F2D0E945E0B10920D0A80937F
:101630000C0ADF91CF911F910F91FF90EF90DF90F7
:10164000CF90BF90AF909F908F900895CF92EF92E0
:101650000F931F93C22EE12C00E010E098010E942E
:10166000D50A1F910F91EF90CF90089521E00C942F
:10167000260B61E00C94C20A8CED99E00C949C0A54
:1016800010929B0A81E08093990A1092980A61E077
:1016900084E10E94DA2761E085E10E94DA27E9EB24
:1016A000F0E080818E7F808380818D7F808388E4DD
:1016B0008093B80085E48093BC000895413208F01F
:1016C00043C090919B0A9111FCCF91E090939B0AAB
:1016D0002093990A2FEF20932E0A1092730A240F59
:1016E0002093720A90939A0A90919A0A880F892BF4
:1016F00080939A0A8091980A813061F41092980A36
:1017000080919A0A8093BB008091BC0083FDF8CF42
:1017100085EC01C085EE8093BC0080919B0A8130EE
:10172000E1F38091730A841710F44091730A24E75F
:101730003AE0FB01D9018A2F821B841718F48D919E
:101740008193F9CF842F089580E008950F9341325B
:1017500008F04AC090919B0A9111FCCF92E09093BF
:101760009B0A0093990A9FEF90932E0A1092730A96
:101770004093720AFB0164E77AE0DB019A2F961B23
:10178000941718F491919D93F9CF10929A0A909121
:101790009A0A880F892B80939A0A8091980A81303F
:1017A00061F41092980A80919A0A8093BB0080910C
:1017B000BC0083FDF8CF85EC01C085EE8093BC00B2
:1017C000222321F080919B0A8230E1F380912E0A3E
:1017D0008F3F61F080912E0A803251F080912E0A65
:1017E000803341F483E007C081E005C080E003C09E
:1017F00082E001C084E00F910895613298F4209155
:101800009B0A243089F46093500AFC0182E59AE037
:10181000DC012A2F281B261718F421912D93F9CFCC
:1018200080E0089581E0089582E0089585ED809339
:10183000BC008091BC0084FDFCCF10929B0A0895EF
:1018400085EC8093BC0010929B0A08951F920F9222
:101850000FB60F9211240BB60F922F933F934F9315
:101860005F936F937F938F939F93AF93BF93EF9308
:10187000FF938091B900887F803609F49EC078F587
:10188000883209F45DC090F4803109F456C038F410
:10189000882309F4F5C0883009F44FC0F5C08831B9
:1018A00009F44EC0803209F45FC0EEC0803409F400
:1018B0006AC058F4803309F457C0883309F0E4C093
:1018C00080932E0A0E94200CDFC0803509F44FC09F
:1018D000883509F45DC0883409F0D6C0D3C0883992
:1018E00009F4C4C0A8F4883709F467C038F488360E
:1018F00009F463C0803709F460C0C6C0883809F4B1
:10190000B5C0803909F45FC0803809F0BDC05BC044
:10191000803B09F483C038F4803A09F466C0883A01
:1019200009F47CC0B1C0803C09F4A4C0883C09F42F
:10193000A1C0883B09F487C0A7C080919A0A10C053
:101940009091730A8091720A981770F5E091730A6A
:1019500081E08E0F8093730AF0E0EC58F54F8081A0
:101960008093BB0085EC83C080932E0A8BC0E091EE
:10197000730A81E08E0F8093730A8091BB00F0E0C0
:10198000EC58F54F80839091730A8091720A6BC076
:10199000E091730A81E08E0F8093730A8091BB00FF
:1019A000F0E0EC58F54F80838091990A81116AC06C
:1019B00081E08093980A84EA5EC083E080939B0A6A
:1019C00010922F0ACFCF80912F0A803208F04EC09C
:1019D000E0912F0A81E08E0F80932F0A8091BB0047
:1019E000F0E0E05DF54F8083BDCF0E94200C809138
:1019F0002F0A803230F4E0912F0AF0E0E05DF54FDD
:101A0000108260912F0A70E0E091940AF091950A9B
:101A100080E39AE0199510922F0A36C084E08093F3
:101A20009B0A1092510A1092500AE091960AF09186
:101A3000970A19958091500A811105C081E0809321
:101A4000500A1092520AE091510A81E08E0F809361
:101A5000510AF0E0EE5AF54F80818093BB009091DF
:101A6000510A8091500A981708F47CCF85E880933A
:101A7000BC000AC085EC8093BC0010929B0A04C095
:101A800010922E0A0E94160CFF91EF91BF91AF9118
:101A90009F918F917F916F915F914F913F912F9186
:101AA0000F900BBE0F900FBE0F901F901895FC016A
:101AB00080819181FB0120813181821B930B0895EC
:101AC00081E08093260C0895209123024091250CFB
:101AD00030E0842F90E001968217930744F46CEF76
:101AE00073E081E39CE00E94D52A81E00895809113
:101AF0002302841306C0909124028091240C98172D
:101B000070F762E174E081E39CE00E94D52A80E0F6
:101B10000895CF93DF93CDB7DEB72C970FB6F89427
:101B2000DEBF0FBECDBF4AE0BC01CE0107960E94CA
:101B30009F2C69E274E0CE0101960E94242CBE0124
:101B4000695F7F4FCE0101960E94372DBC0181E372
:101B50009CE00E94C32ACE0101960E94B62BCE01C2
:101B600007960E94B62B2C960FB6F894DEBF0FBED8
:101B7000CDBFDF91CF9108950F931F93CF93DF9344
:101B8000CDB7DEB765970FB6F894DEBF0FBECDBFF9
:101B900096E0E2EDF3E0DE01509601900D929A9509
:101BA000E1F78B8B6C8B4D8BCE0101960E948406E6
:101BB0008091B8039091B9032CE3289FB001299F2D
:101BC000700D1124CE0101960E94A40603EC15EFBE
:101BD0002CE031EC48E451EE68E272E4CE0101966B
:101BE0000E94B506BE01605F7F4FCE0101960E9444
:101BF0000F0A2A892093220C89898093230C90E074
:101C00003CE3239F800D911D11249093B90A80938A
:101C1000B80ABE01605F7F4FCE0101960E94120A92
:101C20002A892093250C89898093240C90E03CE339
:101C3000239F800D911D11249093B70A8093B60ABB
:101C400065960FB6F894DEBF0FBECDBFDF91CF9182
:101C50001F910F9108956AE374E081E39CE00C9476
:101C6000D52AEF92FF920F931F93CF93DF93CDB7B7
:101C7000DEB72C970FB6F894DEBF0FBECDBF00E0E5
:101C800010E0780189E0E80EF11C61E0C8010E94D3
:101C9000CB350F5F1F4F0E151F05B9F7043B11051C
:101CA00081F76DE084EB90E00E94CB3500E010E01E
:101CB000780189E0E80EF11CC8010E94C33581302B
:101CC00021F087E090E00E94890D0F5F1F4F0E15F5
:101CD0001F0591F7043B110559F784EB90E00E9432
:101CE000C3358D3021F088E090E00E94890D0E947C
:101CF0002B0E4AE064EB70E0CE0107960E949F2C09
:101D00006AE574E0CE0101960E94242CBE01695F51
:101D10007F4FCE0101960E94372D6FE574E00E943F
:101D20004A2DBC0181E39CE00E94C32ACE010196AA
:101D30000E94B62BCE0107960E94B62B2C960FB6AA
:101D4000F894DEBF0FBECDBFDF91CF911F910F91F1
:101D5000FF90EF9008959F92AF92BF92CF92DF9243
:101D6000EF92FF920F931F93CF93DF93CDB7DEB720
:101D70002C970FB6F894DEBF0FBECDBFC12CD12C6F
:101D8000E12CF12C84E1982E00E010E09C9C5001A5
:101D90009D9CB00C1124C8018E0D9F1D0E94C3355F
:101DA000F501E00FF11FE85DFD4F80830F5F1F4FCE
:101DB0000930110581F789E0E80EF11C8FEFC81A90
:101DC000D80A84EBE816F104F9F60E942B0E4AE0DB
:101DD00064EB70E0CE0107960E94CB2C63E874E0C0
:101DE000CE0101960E94242CBE01695F7F4FCE0177
:101DF00001960E94372D6FE874E00E944A2DBC01C5
:101E000081E39CE00E94C32ACE0101960E94B62B7A
:101E1000CE0107960E94B62B2C960FB6F894DEBF23
:101E20000FBECDBFDF91CF911F910F91FF90EF902B
:101E3000DF90CF90BF90AF909F9008959F92AF9208
:101E4000BF92CF92DF92EF92FF920F931F93CF93A7
:101E5000DF93CDB7DEB72C970FB6F894DEBF0FBE79
:101E6000CDBFC12CD12CE12CF12C94E1992E00E0B6
:101E700010E09C9C50019D9CB00C1124F501E00FDA
:101E8000F11FE85DFD4F6081C8018E0D9F1D0E940E
:101E9000CB350F5F1F4F0930110581F789E0E80E40
:101EA000F11C8FEFC81AD80A84EBE816F104F9F692
:101EB0000E942B0E4AE064EB70E0CE0107960E9470
:101EC0009F2C64EA74E0CE0101960E94242CBE018E
:101ED000695F7F4FCE0101960E94372D62EB74E05F
:101EE0000E944A2DBC0181E39CE00E94C32ACE01DE
:101EF00001960E94B62BCE0107960E94B62B2C9617
:101F00000FB6F894DEBF0FBECDBFDF91CF911F910A
:101F10000F91FF90EF90DF90CF90BF90AF909F9088
:101F20000895DF92EF92FF920F931F93CF93DF9369
:101F3000CDB7DEB72C970FB6F894DEBF0FBECDBF7E
:101F40000E942B0E65EE74E081E39CE00E94D52A8E
:101F50000E942B0E00E010E034E1D32E4AE0602F07
:101F6000CE0107960E94722C65E374E0CE010196C3
:101F70000E94242CBE01695F7F4FCE0101960E9412
:101F8000372DBC0181E39CE00E94A82ACE01019676
:101F90000E94B62BCE0107960E94B62BD09EF00170
:101FA000D19EF00D1124E85DFD4F8081813019F440
:101FB0006EEF74E002C06DE075E081E39CE00E948A
:101FC000B62AD09E7001D19EF00C1124C701885D05
:101FD0009D4F7C01FC0161814AE0CE0101960E9487
:101FE000722CBE016F5F7F4F81E39CE00E94A82AA4
:101FF000CE0101960E94B62BF7018281811103C0A8
:102000006FE175E014C0F7018281813019F467E255
:1020100075E00DC0F7018281823019F46EE275E03F
:1020200006C0F7018281833031F466E375E081E315
:102030009CE00E94B62AD09E7001D19EF00C112423
:10204000C701885D9D4F7C01FC0163814AE0CE01A0
:1020500007960E94722C67EF75E0CE0101960E94F0
:10206000242CBE01695F7F4FCE0101960E94372D5F
:10207000BC0181E39CE00E94A82ACE0101960E9447
:10208000B62BCE0107960E94B62BF70164814AE079
:10209000CE0107960E94722C67EF75E0CE01019683
:1020A0000E94242CBE01695F7F4FCE0101960E94E1
:1020B000372DBC0181E39CE00E94A82ACE01019645
:1020C0000E94B62BCE0107960E94B62BF7016581C0
:1020D0004AE0CE0107960E94722C62E779E0CE01B9
:1020E00001960E94242CBE01695F7F4FCE010196AC
:1020F0000E94372DBC0181E39CE00E94A82ACE01FA
:1021000001960E94B62BCE0107960E94B62BF701CE
:102110008681813019F461E475E006C0F70186819B
:10212000823031F46BE475E081E39CE00E94B62AD2
:1021300068EF75E081E39CE00E94D52A0F5F1F4F96
:102140000431110509F00ACF2C960FB6F894DEBFC2
:102150000FBECDBFDF91CF911F910F91FF90EF90F8
:10216000DF90089594E1699FF0011124E85DFD4F2F
:102170009181981306C08081813019F49281933047
:1021800009F080E00895DF92EF92FF920F931F9382
:10219000CF93DF9300D000D0CDB7DEB70E942B0ED7
:1021A00068EA75E081E39CE00E94D52A1AEFE12EEF
:1021B0001BE0F12E00E010E084E1D82ED09EF0016B
:1021C000D19EF00D1124E85DFD4F8481658170E0A2
:1021D0009CE3899F600D711D1124F7016193719338
:1021E0007F014AE0CE0101960E949F2CBE016F5FE5
:1021F0007F4F81E39CE00E94C32ACE0101960E949A
:10220000B62B0F5F1F4F04311105C1F602ED1BE025
:10221000BAEFEB2EBBE0FB2ED12C6D2D81E00E949E
:10222000B210882339F0F70180819181F801918300
:10223000808303C0F80111821082D394F2E0EF0E84
:10224000F11C0E5F1F4F84E1D812E7CF27E53DE078
:1022500042E050E064E170E082ED9BE00E94C63213
:102260000AEA1BE0AAEFEA2EABE0FA2ED12C6D2D84
:1022700082E00E94B210882339F0F70180819181B9
:10228000F8019183808303C0F80111821082D394F6
:10229000F2E0EF0EF11C0E5F1F4F84E1D812E7CF82
:1022A00027E53DE042E050E064E170E08AEA9BE02F
:1022B0000E94C63202E81BE0FAEFEF2EFBE0FF2E91
:1022C000D12C6D2D83E00E94B210882339F0F701E4
:1022D00080819181F8019183808303C0F80111828C
:1022E0001082D394F2E0EF0EF11C0E5F1F4F84E1D9
:1022F000D812E7CF27E53DE042E050E064E170E02E
:1023000082E89BE00E94C6320AE51BE0EAEFEE2E6F
:10231000EBE0FE2ED12C6D2D84E00E94B2108823BC
:1023200039F0F70180819181F8019183808303C0A6
:10233000F80111821082D394F2E0EF0EF11C0E5FCF
:102340001F4F84E1D812E7CF27E53DE042E050E09F
:1023500064E170E08AE59BE00E94C63202E31BE084
:102360007AEFE72E7BE0F72ED12C6D2D85E00E94D1
:10237000B210882339F0F70180819181F8019183AF
:10238000808303C0F80111821082D394F2E0EF0E33
:10239000F11C0E5F1F4F84E1D812E7CF27E53DE027
:1023A00042E050E064E170E082E39BE00E94C632CC
:1023B0000AE01BE06AEFE62E6BE0F62ED12C6D2DC5
:1023C00086E00E94B210882339F0F7018081918164
:1023D000F8019183808303C0F80111821082D394A5
:1023E000F2E0EF0EF11C0E5F1F4F84E1D812E7CF31
:1023F00027E53DE042E050E064E170E08AE09BE0E8
:102400000E94C63202EE1AE05AEFE52E5BE0F52E8E
:10241000D12C6D2D87E00E94B210882339F0F7018E
:1024200080819181F8019183808303C0F80111823A
:102430001082D394F2E0EF0EF11C0E5F1F4F84E187
:10244000D812E7CF27E53DE042E050E064E170E0DC
:1024500082EE9AE00E94C6320AEB1AE04AEFE42EBE
:102460004BE0F42ED12C6D2D88E00E94B210882311
:1024700039F0F70180819181F8019183808303C055
:10248000F80111821082D394F2E0EF0EF11C0E5F7E
:102490001F4F84E1D812E7CF27E53DE042E050E04E
:1024A00064E170E08AEB9AE00E94C63226960FB68D
:1024B000F894DEBF0FBECDBFDF91CF911F910F917A
:1024C000FF90EF90DF900895EF920F93CF93DF93FB
:1024D000CDB7DEB727970FB6F894DEBF0FBECDBFDE
:1024E0009EE4940F9F836E838D832B830A83E982FE
:1024F0004093210250932202609326028093270288
:102500002093230200932402CE0101960E94C90564
:1025100040E050E00E94CC0481E090E00E944F0334
:1025200027960FB6F894DEBF0FBECDBFDF91CF91D7
:102530000F91EF9008958F929F92AF92BF92CF929A
:10254000DF92EF92FF92CF93DF93CDB7DEB72E9756
:102550000FB6F894DEBF0FBECDBF80E090E00E94C2
:1025600053044B015C0187E090E00E9453046B012F
:102570007C01AE01485F5F4FC501B4010E94F204C7
:10258000AE014F5F5F4FC701B6010E94F2048A851A
:10259000A3E2B2E08C938985E4E2F2E080838E8549
:1025A00090E08E54984F90932202809321028D8563
:1025B000809326028C85809327028B858093250249
:1025C0002C91808190E03CE3239F800D911D11248C
:1025D0009093B50A8093B40A2E960FB6F894DEBF96
:1025E0000FBECDBFDF91CF91FF90EF90DF90CF90E6
:1025F000BF90AF909F908F9008956091270270E0F8
:102600004AE050E081E39CE00E948A2B6BEC75E08D
:1026100081E39CE00E94B62A6091260270E04AE0C5
:1026200050E081E39CE00E948A2B6BEC75E081E333
:102630009CE00E94B62A60912102709122024AE039
:1026400050E081E39CE00E948A2B68EF75E081E313
:102650009CE00E94B62A6091230270E04AE050E0BC
:1026600081E39CE00E948A2B62E779E081E39CE0B1
:102670000E94B62A809124028A3028F460E381E324
:102680009CE00E94B82A609124024AE050E081E375
:102690009CE00C949F2BCF93DF93CDB7DEB72C97A4
:1026A0000FB6F894DEBF0FBECDBFBC014AE0CE012D
:1026B0006A307105E0F407960E94CB2C6DEC75E052
:1026C000CE0101960E94242CBE01695F7F4FCE018E
:1026D00001960E94372DBC0184EA9AE00E94A82A44
:1026E000CE0101960E94B62BCE0107960CC0019632
:1026F0000E94CB2CBE016F5F7F4F84EA9AE00E945C
:10270000A82ACE0101960E94B62B2C960FB6F894FB
:10271000DEBF0FBECDBFDF91CF9108951F93CF9342
:10272000DF93CDB7DEB72D970FB6F894DEBF0FBE9F
:10273000CDBF8091B00A81508D8760EA70E080E063
:1027400090E00E94B82684EA9AE00E9457026091C5
:10275000B00A7091B10A4AE0CE0107960E94CB2CD4
:102760006FEC75E0CE0101960E94242CBE01695FDA
:102770007F4FCE0101960E94372DBC0184EA9AE07A
:102780000E94A82ACE0101960E94B62BCE01079680
:102790000E94B62BED8514E11E9FF0011124E85D27
:1027A000FD4F8081811139C041E060E084EA9AE008
:1027B0000E94650265ED75E084EA9AE00E94B62AFF
:1027C00040E06AE084EA9AE00E9465026FE474E007
:1027D00084EA9AE00E94B62A41E06AE084EA9AE03C
:1027E0000E9465026FE474E084EA9AE00E94B62ACF
:1027F00042E06AE084EA9AE00E9465026FE474E0D5
:1028000084EA9AE00E94B62A43E06DE084EA9AE006
:102810000E94650264E574E06DC0AD851A9FD00129
:102820001124A85DBD4F8C91813009F0FDC040E0BE
:102830006AE084EA9AE00E946502AD851A9FD001A1
:102840001124A85DBD4F11966C914AE0CE01079608
:102850000E94722C69ED75E0CE0101960E94242C35
:10286000BE01695F7F4FCE0101960E94372DBC01EA
:1028700084EA9AE00E94A82ACE0101960E94B62B13
:10288000CE0107960E94B62B41E060E084EA9AE010
:102890000E94650261EE75E084EA9AE00E94B62A21
:1028A00041E06AE084EA9AE00E946502AD851A9FE1
:1028B000D0011124A85DBD4F12968C9181111FC0CB
:1028C00064EE75E084EA9AE00E94B62A42E06AE08B
:1028D00084EA9AE00E9465026FEE75E084EA9AE06D
:1028E0000E94B62A43E06DE084EA9AE00E94650205
:1028F00064EF75E084EA9AE00E94B62A99C0AD853B
:102900001A9FD0011124A85DBD4F12968C91813081
:1029100029F56AEF75E084EA9AE00E94B62A42E05F
:102920006AE084EA9AE00E946502AD851A9FD001B0
:102930001124A85DBD4F16968C91813019F465E085
:1029400076E0CCCFED851E9FF0011124E85DFD4FB0
:102950008681823039F660E176E0C0CFAD851A9F7E
:10296000D0011124A85DBD4F12968C91823019F4CC
:102970006BE176E0D0CFAD851A9FD0011124A85D20
:10298000BD4F12968C91833009F04BC066E276E021
:1029900084EA9AE00E94B62A42E06AE084EA9AE079
:1029A0000E946502AD851A9FD0011124A85DBD4F1C
:1029B00016968C91813019F465E076E00BC0ED85B8
:1029C0001E9FF0011124E85DFD4F8681823031F4B5
:1029D00060E176E084EA9AE00E94B62A43E06DE086
:1029E00084EA9AE00E946502AD8514E11A9FD00145
:1029F0001124A85DBD4F14968C9190E00E944B135A
:102A000062E779E084EA9AE00E94B62AED851E9F8B
:102A1000F0011124E85DFD4F858190E00E944B1389
:102A200007C08BE090E002C08AE090E00E94890D30
:102A30002D960FB6F894DEBF0FBECDBFDF91CF91BC
:102A40001F910895CF93DF93CDB7DEB72C970FB6C4
:102A5000F894DEBF0FBECDBF40E060E084EA9AE0AC
:102A60000E9465028091270290E00E944B136BEC5C
:102A700075E084EA9AE00E94B62A8091260290E0EE
:102A80000E944B136BEC75E084EA9AE00E94B62A30
:102A900060912102709122024AE0CE0101960E94CB
:102AA0009F2CBE016F5F7F4F84EA9AE00E94A82AA4
:102AB000CE0101960E94B62B41E062E084EA9AE0E2
:102AC0000E94650280912302609123024AE08A30CD
:102AD000A0F4CE0107960E94722C6DEC75E0CE0139
:102AE00001960E94242CBE01695F7F4FCE010196A2
:102AF0000E94372D62E779E00FC0CE0107960E9451
:102B0000722CBE01695F7F4FCE0101960E94512C4D
:102B100062E779E0CE0101960E944A2DBC0184EA69
:102B20009AE00E94A82ACE0101960E94B62BCE01FF
:102B300007960E94B62B80912402609124024AE0FD
:102B40008A30E8F4CE0107960E94722C6DEC75E095
:102B5000CE0101960E94242CBE01695F7F4FCE01F9
:102B600001960E94372DBC0184EA9AE00E94A82AAF
:102B7000CE0101960E94B62BCE0107960DC0CE0164
:102B800001960E94722CBE016F5F7F4F84EA9AE02B
:102B90000E94A82ACE0101960E94B62B40E06FE069
:102BA00084EA9AE00E9465028091220C8A3030F417
:102BB0006DEC75E084EA9AE00E94B62A4AE06091E2
:102BC000220CCE0107960E94722CBE01695F7F4FD6
:102BD000CE0101960E94512C62E779E0CE01019668
:102BE0000E944A2DBC0184EA9AE00E94A82ACE01E4
:102BF00001960E94B62BCE0107960E94B62B8091BB
:102C0000230C8A3030F46DEC75E084EA9AE00E947F
:102C1000B62A4AE06091230CCE0101960E94722CE4
:102C2000BE016F5F7F4F84EA9AE00E94A82ACE011E
:102C300001960E94B62B41E06FE084EA9AE00E9480
:102C400065028091250C8A3030F46DEC75E084EAE1
:102C50009AE00E94B62A4AE06091250CCE010796C0
:102C60000E94722CBE01695F7F4FCE0101960E94C7
:102C7000512C62E779E0CE0101960E944A2DBC01F9
:102C800084EA9AE00E94A82ACE0101960E94B62BFF
:102C9000CE0107960E94B62B8091240C8A3030F426
:102CA0006DEC75E084EA9AE00E94B62A4AE06091F1
:102CB000240CCE0101960E94722CBE016F5F7F4FE3
:102CC00084EA9AE00E94A82ACE0101960E94B62BBF
:102CD00042E062E084EA9AE00E94650260E376E006
:102CE00084EA9AE00E94B62A43E062E084EA9AE02D
:102CF0000E9465028091A30A882319F060E476E0BF
:102D000002C068EF75E084EA9AE00E94B62A43E0C8
:102D100064E084EA9AE00E9465028091A20A882316
:102D200019F060E476E002C068EF75E084EA9AE0AA
:102D30000E94B62A43E066E084EA9AE00E946502B7
:102D40008091A10A882319F060E476E002C068EF60
:102D500075E084EA9AE00E94B62A43E068E084EADB
:102D60009AE00E9465028091A00A882319F060E42D
:102D700076E002C068EF75E084EA9AE00E94B62A25
:102D800043E06AE084EA9AE00E94650280919F0A2B
:102D9000882319F060E476E002C068EF75E084EA09
:102DA0009AE00E94B62A43E06CE084EA9AE00E942E
:102DB000650280919E0A882319F060E476E002C0E3
:102DC00068EF75E084EA9AE00E94B62A43E06EE07C
:102DD00084EA9AE00E94650280919D0A882319F096
:102DE00060E476E002C068EF75E084EA9AE00E9451
:102DF000B62A43E060E184EA9AE00E94650280918D
:102E00009C0A882319F060E476E002C068EF75E060
:102E100084EA9AE00E94B62A2C960FB6F894DEBF98
:102E20000FBECDBFDF91CF91089584EA9AE00E9452
:102E300057028091B20A9091B30A0097C9F4809129
:102E4000B00A9091B10A009711F40C9422158130C8
:102E5000910519F462E476E004C0029731F46CE461
:102E600076E084EA9AE00C94B62A81E090E008C209
:102E70008130910509F09BC08091B00A9091B10A10
:102E8000009779F466E576E084EA9AE00E94B62A33
:102E900041E060E084EA9AE00E9465026FE576E036
:102EA0009DC08130910579F463E876E084EA9AE088
:102EB0000E94B62A41E060E084EA9AE00E9465023E
:102EC00065E976E011C082309105D9F46EEB76E0C9
:102ED00084EA9AE00E94B62A41E060E084EA9AE03F
:102EE0000E94650260ED76E084EA9AE00E94B62ACC
:102EF00042E060E084EA9AE00E94650268EA76E0D7
:102F00001DC08330910539F56EEB76E084EA9AE0D6
:102F10000E94B62A41E060E084EA9AE00E946502DD
:102F200065E976E084EA9AE00E94B62A42E060E031
:102F300084EA9AE00E94650263EE76E084EA9AE011
:102F40000E94B62A43E060E084EA9AE00E946502AB
:102F500063EB76E086CF049739F56EEB76E084EA92
:102F60009AE00E94B62A41E060E084EA9AE00E947A
:102F7000650265E976E084EA9AE00E94B62A42E0BA
:102F800060E084EA9AE00E94650268EA76E084EAFA
:102F90009AE00E94B62A43E060E084EA9AE00E9448
:102FA00065026EEE76E05DCF82E090E069C182302E
:102FB000910569F58091B00A9091B10A0097D9F412
:102FC00069EF76E084EA9AE00E94B62A41E060E088
:102FD00084EA9AE00E94650262E077E084EA9AE07F
:102FE0000E94B62A42E060E084EA9AE00E9465020C
:102FF0006FE676E030C020911B0230911C0228174A
:10300000390710F00C948E1383E090E039C18330BF
:10301000910509F07DC08091B00A9091B10A0097A6
:1030200039F569EF76E084EA9AE00E94B62A41E039
:1030300060E084EA9AE00E9465026FE576E084EA47
:103040009AE00E94B62A42E060E084EA9AE00E9498
:10305000650262E177E084EA9AE00E94B62A43E0E2
:1030600060E084EA9AE00E9465026AE776E0F9CEC1
:103070008130910579F46DE177E084EA9AE00E946D
:10308000B62A41E060E084EA9AE00E9465026FE2BD
:1030900077E011C082309105D9F463E577E084EAE6
:1030A0009AE00E94B62A41E060E084EA9AE00E9439
:1030B000650265E677E084EA9AE00E94B62A42E07B
:1030C00060E084EA9AE00E94650260E477E0C9CE9D
:1030D0000397D9F463E577E084EA9AE00E94B62A80
:1030E00041E060E084EA9AE00E9465026FE277E0E6
:1030F00084EA9AE00E94B62A42E060E084EA9AE01C
:103100000E94650266E777E0ACCE84E090E0B8C04C
:10311000049709F0B3C08091B00A9091B10A00976A
:1031200039F569EF76E084EA9AE00E94B62A41E038
:1031300060E084EA9AE00E9465026FE576E084EA46
:103140009AE00E94B62A42E060E084EA9AE00E9497
:1031500065026FE676E084EA9AE00E94B62A43E0D0
:1031600060E084EA9AE00E94650269E877E079CE3F
:103170008130910579F462E977E084EA9AE00E946F
:10318000B62A41E060E084EA9AE00E94650265EABE
:1031900077E011C082309105D9F462ED77E084EADE
:1031A0009AE00E94B62A41E060E084EA9AE00E9438
:1031B000650265EE77E084EA9AE00E94B62A42E072
:1031C00060E084EA9AE00E94650265EB77E01DC04A
:1031D0008330910539F562ED77E084EA9AE00E9448
:1031E000B62A41E060E084EA9AE00E94650265EA5E
:1031F00077E084EA9AE00E94B62A42E060E084EA3E
:103200009AE00E94650265EF77E084EA9AE00E9406
:10321000B62A43E060E084EA9AE00E94650267EC27
:1032200077E01FCE049739F562ED77E084EA9AE003
:103230000E94B62A41E060E084EA9AE00E946502BA
:1032400065EA77E084EA9AE00E94B62A42E060E00C
:1032500084EA9AE00E94650265EB77E084EA9AE0EE
:103260000E94B62A43E060E084EA9AE00E94650288
:1032700067E078E0F6CD85E090E002C086E090E07F
:103280000C94890D0F93CF93DF93CDB7DEB72797BB
:103290000FB6F894DEBF0FBECDBF425B4F836E8387
:1032A0008D832B830A831982CE0101960E94C90562
:1032B00047E050E00E94CC0487E090E00E940F03BA
:1032C00027960FB6F894DEBF0FBECDBFDF91CF912A
:1032D0000F910895EF920F93CF93DF93CDB7DEB7A1
:1032E000A4970FB6F894DEBF0FBECDBF8091240225
:1032F0008B3308F087C00091240220912302609153
:103300002602809127020F5F4091210250912202F4
:10331000E12C0E9442196091240270E06F5F7F4FA0
:103320004AE0CE0101960E949F2C609123024AE060
:10333000CE0107960E94722C6091210270912202A8
:103340004AE0CE010D960E949F2C609126024AE031
:10335000CE0143960E94722C609127024AE0CE0172
:103360004F960E94722C62E178E0CE0149960E944D
:10337000242CBE01615E7F4FCE0149960E94372DFD
:103380006BEC75E00E944A2DBE016D5E7F4F0E947E
:10339000372D6BEC75E00E944A2DBE01635F7F4FB5
:1033A0000E94372D68EF75E00E944A2DBE01695FCB
:1033B0007F4F0E94372D62E779E00E944A2DBE01BF
:1033C0006F5F7F4F0E94372DBC0181E39CE00E941C
:1033D000C32ACE0149960E94B62BCE014F960E9479
:1033E000B62BCE0143960E94B62BCE010D960E94BD
:1033F000B62BCE0107960E94B62BCE0101960E94F5
:10340000B62B53C0809124028B3309F04EC08091BB
:103410002302873170F4209123026091260280916B
:1034200027022F5F4091210250912202E12C00E0FF
:103430003AC0809123028731C1F590912702E09133
:103440002602F0E0E85FFD4F80814091210250911B
:103450002202981320C0809126028C30A1F44F5F85
:103460005F4FE12C00E020E061E081E00E94421922
:103470008091210290912202019683709927892BD5
:1034800039F18CE126C0609126026F5FE12C00E0EB
:1034900020E081E008C06091260280912702E12CA3
:1034A00000E020E08F5F0E94421980912302811189
:1034B00013C08091240281110FC060912602809177
:1034C000270240912102509122020E94BC0D04C0AB
:1034D0008DE180930A02E9CFA4960FB6F894DEBF7F
:1034E0000FBECDBFDF91CF910F91EF90089589303E
:1034F00070F5813019F48093A30A0895823021F485
:1035000081E08093A20A0895833021F481E08093C2
:10351000A10A0895843021F481E08093A00A0895DF
:10352000853021F481E080939F0A0895863021F44C
:1035300081E080939E0A0895873021F481E0809392
:103540009D0A0895883019F481E080939C0A0895BB
:10355000893038F5813019F41092A30A0895823029
:1035600019F41092A20A0895833019F41092A10A56
:103570000895843019F41092A00A0895853019F442
:1035800010929F0A0895863019F410929E0A0895A9
:10359000873019F410929D0A0895883011F4109222
:1035A0009C0A08951F93CF93DF93C0E0D0E014E10D
:1035B0001C9FF0011D9FF00D1124E85DFD4F8081DF
:1035C000813019F58281811120C08091B40A9091D7
:1035D000B50A2091B80A3091B90A821793073CF0D6
:1035E0002091B60A3091B70A821793075CF01C9FAE
:1035F000F0011D9FF00D1124E85DFD4F81810E94B7
:10360000771A03C08C2F0E94A81A2196C431D105C5
:1036100079F6DF91CF911F91089580E090E024E149
:10362000289FF001299FF00D1124E85DFD4F3081A6
:10363000313009F4328101968431910589F708957A
:10364000FF920F931F93CF93DF9300E010E094E17C
:10365000F92EF09EE001F19ED00D1124C85DDD4FE2
:1036600088818130A1F48A81823089F40E94640DBE
:10367000882369F08E81813021F489810E94771A34
:1036800006C08E81823019F489810E94A81A0F5FCA
:103690001F4F04311105E9F6DF91CF911F910F9172
:1036A000FF9008958091A30A882311F061E001C082
:1036B00060E080E00E94DA278091A20A882311F05E
:1036C00061E001C060E081E00E94DA278091A10AF8
:1036D000882311F061E001C060E082E00E94DA27F7
:1036E0008091A00A882311F061E001C060E083E0CE
:1036F0000E94DA2780919F0A882311F061E001C0BF
:1037000060E084E00E94DA2780919E0A882311F00D
:1037100061E001C060E085E00E94DA2780919D0AA7
:10372000882311F061E001C060E086E00E94DA27A2
:1037300080919C0A882311F061E001C060E087E07D
:103740000C94DA270E942B0E6DE278E081E39CE076
:103750000E94D52A0E942B0E69E478E081E39CE068
:103760000E94B62A8091A30A882319F064E578E0C4
:1037700002C06BE578E081E39CE00E94D52A64E614
:1037800078E081E39CE00E94B62A8091A20A882317
:1037900019F064E578E002C06BE578E081E39CE035
:1037A0000E94D52A6FE678E081E39CE00E94B62A69
:1037B0008091A10A882319F064E578E002C06BE5E6
:1037C00078E081E39CE00E94D52A6AE778E081E313
:1037D0009CE00E94B62A8091A00A882319F064E533
:1037E00078E002C06BE578E081E39CE00E94D52A96
:1037F00065E878E081E39CE00E94B62A80919F0A08
:10380000882319F064E578E002C06BE578E081E395
:103810009CE00E94D52A60E978E081E39CE00E9468
:10382000B62A80919E0A882319F064E578E002C0E8
:103830006BE578E081E39CE00E94D52A6BE978E0B3
:1038400081E39CE00E94B62A80919D0A882319F0AA
:1038500064E578E002C06BE578E081E39CE00E94DB
:10386000D52A66EA78E081E39CE00E94B62A80913E
:103870009C0A882319F064E578E002C06BE578E0E3
:1038800081E39CE00E94D52A0E942B0E6FEC79E028
:1038900081E39CE00C94D52AEF920F9381E39CE0A6
:1038A0000E94BF2A0E942B0E61EB78E081E39CE02E
:1038B0000E94D52A0E942B0E0E949B120E9439035F
:1038C0000E94D21A0E940D1B0E94201B0E94521BB4
:1038D0000E946A190091240220912302609126021D
:1038E0008091270240912102509122023AE3E32E77
:1038F0000E9464120E94FD120F91EF900C94A21B83
:1039000084EA9AE00E94AF0226E040E051EE60E0D7
:1039100070E081E39CE00E944B2961ED78E084EA4D
:103920009AE00E94B62A61ED78E081E39CE00E9473
:10393000D52A68EE73E080E090E00E94B82661E04E
:103940008DE00E94A12761E08DE00E94DA2760E00F
:103950008FE20E94A12760E08DE20E94A12760E033
:1039600083E20E94A12760E087E20E94A12761E034
:1039700080E00E94A12761E081E00E94A12761E030
:1039800082E00E94A12761E083E00E94A12761E01C
:1039900084E00E94A12761E085E00E94A12761E008
:1039A00086E00E94A12761E087E00E94A12760E0F5
:1039B00080E00E94DA2760E081E00E94DA2760E080
:1039C00082E00E94DA2760E083E00E94DA2760E06C
:1039D00084E00E94DA2760E085E00E94DA2760E058
:1039E00086E00E94DA2760E087E00E94DA270E94E2
:1039F000AB0E0E949B12609126028091270240919B
:103A00002102509122020E94BC0D0E94390342E023
:103A100050E060E67DE080E00E9482240E944C1C21
:103A20000E94221584EA9AE00E9457020E94221501
:103A30000E94910F6EED78E081E39CE00C94D52A12
:103A400083E20E941028019799F087E20E941028D3
:103A5000019781F08DE20E941028019769F08FE2B2
:103A60000E941028019711F483E6089580E30895D9
:103A700085E7089584E608958FE60895EF92FF9212
:103A80000F931F93CF93DF931F92CDB7DEB7809133
:103A9000B00A8150898341E062E084EA9AE00E94A2
:103AA000650284EA9AE00E94A10280E380931602F4
:103AB00060EA70E080E090E00E94B82614E101E046
:103AC00060E3F62E809116028F36A1F10E94201D30
:103AD00080931602843611F08537A1F7E9811E9F85
:103AE000F0011124E85DFD4F8081E9811E9FF00106
:103AF0001124E85DFD4F813011F410820AC08081ED
:103B0000811107C0E9811E9FF0011124E85DFD4F7E
:103B10000083F09216020E948E1341E062E084EA74
:103B20009AE00E94650260EA70E080E090E00E9406
:103B3000B826C8CF60EA70E080E090E00E94B82626
:103B400080E380931602E98184E1E89FF00111246B
:103B5000E85DFD4F8081813001F110E31093160282
:103B600060EA70E080E090E00E94B8260E941E0F9C
:103B70000E942B0E60EF78E081E39CE00E94D52A42
:103B80000E94910F0E944C1C1093160284EA9AE046
:103B90000E949A020E94C310C5C140E06AE084EA14
:103BA0009AE00E94650200E314E1809116028F36CC
:103BB000E9F1009316020E94201D809316028537BA
:103BC00091F4E9811E9FF0011124E85DFD4F818190
:103BD000883058F7E9811E9FF0011124E85DFD4F00
:103BE00081818F5F13C0843601F7E9811E9FF00148
:103BF0001124E85DFD4F81818230B8F2E9811E9F7A
:103C0000F0011124E85DFD4F8181815081830E9484
:103C10008E1340E06AE084EA9AE00E94650260EA5E
:103C200070E080E090E00E94B826BFCF80E38093F0
:103C3000160260EA70E080E090E00E94B82641E061
:103C40006AE084EA9AE00E94650200E314E1809150
:103C500016028F36E9F1009316020E94201D809310
:103C60001602853791F4E9811E9FF0011124E85D69
:103C7000FD4F8281833058F7E9811E9FF0011124A6
:103C8000E85DFD4F82818F5F13C0843601F7E981C3
:103C90001E9FF0011124E85DFD4F82818823B9F257
:103CA000E9811E9FF0011124E85DFD4F8281815062
:103CB00082830E948E1341E06AE084EA9AE00E94C7
:103CC000650260EA70E080E090E00E94B826BFCF15
:103CD00080E38093160260EA70E080E090E00E944A
:103CE000B826E98184E1E89FF0011124E85DFD4FE9
:103CF0008281882309F431CF42E06AE084EA9AE0C5
:103D00000E94650214E101E042E0F42E50E3E52E4A
:103D1000809116028F36A1F10E94201D8093160219
:103D2000843611F08537A1F7E9811E9FF001112437
:103D3000E85DFD4F8681E9811E9FF0011124E85D59
:103D4000FD4F813011F4F6820AC08681823039F449
:103D5000E9811E9FF0011124E85DFD4F0683E0928A
:103D600016020E948E1342E06AE084EA9AE00E9402
:103D7000650260EA70E080E090E00E94B826C8CF5B
:103D800080E38093160260EA70E080E090E00E9499
:103D9000B826E98184E1E89FF0011124E85DFD4F38
:103DA0008281833009F0D9CE43E06DE084EA9AE065
:103DB0000E94650214E1809116028F3609F443C017
:103DC00060EA70E080E090E00E94B8260E94201D2A
:103DD00080931602E9811E9FF0011124E85DFD4FDA
:103DE0009481E9811E9FF0011124E85DFD4F853724
:103DF00029F4973118F484818F5F0DC09481843643
:103E0000D1F69923C1F2E9811E9FF0011124E85DEA
:103E1000FD4F84818150848343E06DE084EA9AE021
:103E20000E946502E9811E9FF0011124E85DFD4FAB
:103E3000848190E00E944B1343E06DE084EA9AE0B5
:103E40000E946502B8CF43E060E184EA9AE00E94F4
:103E5000650280E38093160214E1809116028F368A
:103E600009F47BCE60EA70E080E090E00E94B82622
:103E70000E94201D80931602853791F4E9811E9FD0
:103E8000F0011124E85DFD4F85818B3330F7E98126
:103E90001E9FF0011124E85DFD4F85818F5F13C0E7
:103EA000843649F5E9811E9FF0011124E85DFD4F3C
:103EB0008581882391F2E9811E9FF0011124E85D3C
:103EC000FD4F85818150858343E060E184EA9AE07B
:103ED0000E946502E9811E9FF0011124E85DFD4FFB
:103EE000858190E00E944B1343E060E184EA9AE010
:103EF0000E946502B2CF833609F0AFCF84EA9AE020
:103F00000E94570284EA9AE00E949A0268E079E0EF
:103F100084EA9AE00E94B62A68EE73E080E090E0BE
:103F20000E94B8260F90DF91CF911F910F91FF90C3
:103F3000EF9008958F929F92AF92BF92CF92DF92AF
:103F4000EF920F931F93CF93DF93CDB7DEB7A49774
:103F50000FB6F894DEBF0FBECDBFA0902102B09087
:103F60002202C09026029090270284EA9AE00E94E2
:103F7000570262E179E084EA9AE00E94B62A84EA74
:103F80009AE00E94A10242E060E084EA9AE00E9486
:103F9000650267E279E084EA9AE00E94B62A42E08C
:103FA0006CE084EA9AE00E9465024AE0B501CE0125
:103FB00001960E94CB2CBE016F5F7F4F84EA9AE08E
:103FC0000E94A82ACE0101960E94B62B42E06FE023
:103FD00084EA9AE00E94650280E380931602809151
:103FE00016028F3609F455C060EA70E080E090E078
:103FF0000E94B8260E94201D80931602853749F43E
:1040000084E3A81688E0B80650F78FEFA81AB80A1C
:104010000AC0843631F583EBA81687E0B806F8F2BB
:1040200081E0A81AB10842E06CE084EA9AE00E94BC
:1040300065024AE0B501CE0101960E94CB2CBE017B
:104040006F5F7F4F84EA9AE00E94A82ACE01019612
:104050000E94B62B42E06FE084EA9AE00E9465027B
:10406000BECF833609F0BBCF84EA9AE00E945702A4
:1040700084EA9AE00E949A0268E079E084EA9AE091
:104080000E94B62A68EE73E080E090E00E94B826B5
:1040900093C1D12C80E38093160284EA9AE00E94B7
:1040A000570262E179E084EA9AE00E94B62A42E08F
:1040B00060E084EA9AE00E9465026DE279E084EAB9
:1040C0009AE00E94B62A42E06EE084EA9AE00E94FA
:1040D0006502C6010E944B1342E06FE084EA9AE059
:1040E0000E94650284EA9AE00E94A1028091160271
:1040F0008F3681F160EA70E080E090E00E94B8269F
:104100000E94201D80931602853741F48CE0C8166A
:10411000D10460F78FEFC81AD80A09C08436B9F401
:1041200082E0C816D10410F381E0C81AD10842E039
:104130006EE084EA9AE00E946502C6010E944B1379
:1041400042E06FE084EA9AE00E946502CFCF8336B6
:1041500069F68ACF82E0C816D10429F4950123704C
:104160003327232B29F0F601E85FFD4F008101C0C2
:104170000DE110E0892D90E048018017910708F4C7
:104180004C0180E38093160284EA9AE00E94570271
:1041900062E179E084EA9AE00E94B62A42E060E0B7
:1041A00084EA9AE00E94650263E379E084EA9AE097
:1041B0000E94B62A42E06EE084EA9AE00E9465021C
:1041C000C4010E944B1342E06FE084EA9AE00E942F
:1041D000650284EA9AE00E94A102809116028F365D
:1041E00079F160EA70E080E090E00E94B8260E94D9
:1041F000201D80931602853739F48016910668F7E2
:104200008FEF881A980A09C08436B9F482E08816BC
:10421000910418F381E0881A910842E06EE084EA84
:104220009AE00E946502C4010E944B1342E06FE0D5
:1042300084EA9AE00E946502D0CF833671F614CFEB
:1042400084EA9AE00E94570284EA9AE00E949A0265
:104250000091240220912302E12CA5016C2D882DD0
:104260000E946412609124024AE0CE0101960E94ED
:10427000722C609123024AE0CE0107960E94722CB4
:104280004AE0B501CE010D960E94CB2C4AE0B60162
:10429000CE0143960E94CB2C4AE0B401CE014F964A
:1042A0000E94CB2C69E379E0CE0149960E94242C30
:1042B000BE01615E7F4FCE0149960E94372D6FE2AD
:1042C0000E94642DBE016D5E7F4F0E94372D6FE20C
:1042D0000E94642DBE01635F7F4F0E94372D69E00D
:1042E0000E94642DBE01695F7F4F0E94372D6AE3F3
:1042F0000E94642DBE016F5F7F4F0E94372DBC016D
:1043000081E39CE00E94C32ACE0149960E94B62B0D
:10431000CE014F960E94B62BCE0143960E94B62B3B
:10432000CE010D960E94B62BCE0107960E94B62BA9
:10433000CE0101960E94B62B41E062E084EA9AE049
:104340000E9465026BE479E084EA9AE00E94B62A52
:1043500042E063E084EA9AE00E946502C4010E94A0
:104360004B136BEC75E084EA9AE00E94B62AC60112
:104370000E944B136BEC75E084EA9AE00E94B62A27
:10438000C5010E944B136091260280912702409143
:104390002102509122020E94BC0D60ED77E080E086
:1043A00090E00E94B82684EA9AE00E9457020E9498
:1043B0004C1C80E380931602A4960FB6F894DEBFDF
:1043C0000FBECDBFDF91CF911F910F91EF90DF9086
:1043D000CF90BF90AF909F908F900895AF92BF9273
:1043E000CF92DF92EF920F93CF93DF93CDB7DEB7EB
:1043F000A4970FB6F894DEBF0FBECDBFA0902302E6
:10440000B12CC0902402D12C80E38093160284EA60
:104410009AE00E9457026AE579E084EA9AE00E94F5
:10442000B62A41E060E084EA9AE00E9465026EE606
:1044300079E084EA9AE00E94B62A84EA9AE00E942F
:10444000A10241E06BE084EA9AE00E946502C501A6
:104450000E944B1362E779E084EA9AE00E94B62A50
:10446000C6010E944B1341E06CE084EA9AE00E948E
:104470006502809116028F36D9F160EA70E080E023
:1044800090E00E94B8260E94201D80931602853776
:1044900041F487E1A816B10460F78FEFA81AB80AB3
:1044A00008C0843671F4A114B10419F381E0A81A8C
:1044B000B10841E06BE084EA9AE00E946502C50120
:1044C000D0CF8336B1F684EA9AE00E94570284EA9C
:1044D0009AE00E949A0268E079E084EA9AE00E94F9
:1044E000B62A68EE73E080E090E00E94B826F9C03A
:1044F00041E060E084EA9AE00E94650264E779E0C6
:1045000084EA9AE00E94B62A41E06FE084EA9AE0E9
:104510000E94650280E380931602809116028F3616
:1045200079F160EA70E080E090E00E94B8260E9495
:10453000201D80931602853741F48BE3C816D10401
:1045400060F78FEFC81AD80A08C08436B1F4C114D6
:10455000D10419F381E0C81AD10841E06EE084EA81
:104560009AE00E946502C6010E944B1341E06FE091
:1045700084EA9AE00E946502D0CF833671F6A3CF19
:1045800084EA9AE00E94570284EA9AE00E949A0222
:1045900060912602809127024091210250912202CF
:1045A000E12C0C2D2A2D0E9464124AE0B601CE01A6
:1045B00001960E94CB2C4AE0B501CE0107960E94DD
:1045C000CB2C60912102709122024AE0CE010D961F
:1045D0000E949F2C609126024AE0CE0143960E94E1
:1045E000722C609127024AE0CE014F960E94722CF5
:1045F0006CE779E0CE0149960E94242CBE01615EF1
:104600007F4FCE0149960E94372D6FE20E94642DA4
:10461000BE016D5E7F4F0E94372D6FE20E94642DB8
:10462000BE01635F7F4F0E94372D69E00E94642DB9
:10463000BE01695F7F4F0E94372D6AE30E94642D9F
:10464000BE016F5F7F4F0E94372DBC0181E39CE06C
:104650000E94C32ACE0149960E94B62BCE014F96E6
:104660000E94B62BCE0143960E94B62BCE010D962A
:104670000E94B62BCE0107960E94B62BCE01019662
:104680000E94B62B41E062E084EA9AE00E94650253
:104690006BE479E084EA9AE00E94B62A42E065E0A1
:1046A00084EA9AE00E946502C5010E944B1362E70A
:1046B00079E084EA9AE00E94B62AC6010E944B1370
:1046C00060ED77E080E090E00E94B8260E944C1CEC
:1046D00084EA9AE00E94570280E3809316020E94C7
:1046E0002215A4960FB6F894DEBF0FBECDBFDF91A2
:1046F000CF910F91EF90DF90CF90BF90AF90089542
:104700008091B20A9091B30A8130910569F4809149
:10471000B00A9091B10A8130910511F40C94EE2108
:104720000297D9F40C949A1F8230910511F40C94DD
:104730003E1D049791F48091B00A9091B10A8130A6
:10474000910511F40C941E0F8230910511F40C9414
:10475000AB0E039711F40C94310E08958091B00ABA
:104760009091B10A209116020097A1F5243669F4C0
:104770008091B20A9091B30A8430910508F051C03B
:10478000009709F44EC001961DC0253751F4809161
:10479000B20A9091B30A8230910508F442C00197A1
:1047A00011C0233629F41092B30A1092B20A39C00C
:1047B0002F36B9F58091B20A9091B30A892B39F45A
:1047C00081E090E09093B30A8093B20A2AC081E01E
:1047D00090E010C0243699F4E091B20AF091B30A47
:1047E000EE0FFF1FE95EFD4F208131818217930795
:1047F000C0F401969093B10A8093B00A12C0253795
:1048000029F48230910568F00197F4CF233629F41A
:104810001092B10A1092B00A04C02F3611F40E940F
:1048200080230C94151760EA70E080E090E00E940D
:10483000B8260E94201D80931602803329F00E9422
:10484000AE2380E3809316022091260C8091B20A59
:104850009091B30A892B41F4222331F01092260C57
:104860000E944C1C0E9422158091B20A9091B30ABA
:10487000892BD9F58091B00A9091B10A892BA9F5BD
:104880006AEF70E080E090E00E94B8260E94201D50
:1048900080931602803329F00E94AE2380E3809338
:1048A00016026AEF70E080E090E00E94B8268091E6
:1048B000270C91E089278093270C6091270C8DE0CD
:1048C0000E94DA2741E064E084EA9AE00E946502EF
:1048D0008091270C811103C068EF75E002C062E788
:1048E00079E084EA9AE00C94B62A08950F9300E0E8
:1048F00024E044E167E284EA9AE00E94E3010F9138
:1049000008950895883008F06DC0E82FF0E0EE0FAC
:10491000FF1FE654FC4F7183608390E0FC013197E8
:10492000E730F10590F5EE58FF4F0C941E31809161
:1049300069008C7F842B80936900E89A08958091A8
:104940006900440F551F440F551F837F842B8093AC
:104950006900E99A08958091690074E0440F551F39
:104960007A95E1F78F7C842B80936900EA9A089509
:104970008091690066E0440F551F6A95E1F78F73D7
:10498000842B80936900EB9A089580916A008C7F54
:10499000842B80936A00EC9A089580916A00440FFA
:1049A000551F440F551F837F842B80936A00ED9A17
:1049B000089580916A0024E0440F551F2A95E1F77D
:1049C0008F7C842B80936A00EE9A089580916A0010
:1049D00096E0440F551F9A95E1F78F73842B8093CF
:1049E0006A00EF9A08951F920F920FB60F9211244A
:1049F0000BB60F922F933F934F935F936F937F93D9
:104A00008F939F93AF93BF93EF93FF93E091BE0378
:104A1000F091BF031995FF91EF91BF91AF919F91D5
:104A20008F917F916F915F914F913F912F910F9057
:104A30000BBE0F900FBE0F901F9018951F920F92F4
:104A40000FB60F9211240BB60F922F933F934F93F3
:104A50005F936F937F938F939F93AF93BF93EF93E6
:104A6000FF93E091C003F091C1031995FF91EF917D
:104A7000BF91AF919F918F917F916F915F914F9176
:104A80003F912F910F900BBE0F900FBE0F901F9074
:104A900018951F920F920FB60F9211240BB60F921A
:104AA0002F933F934F935F936F937F938F939F9336
:104AB000AF93BF93EF93FF93E091C203F091C303D1
:104AC0001995FF91EF91BF91AF919F918F917F9138
:104AD0006F915F914F913F912F910F900BBE0F906F
:104AE0000FBE0F901F9018951F920F920FB60F9246
:104AF00011240BB60F922F933F934F935F936F93B5
:104B00007F938F939F93AF93BF93EF93FF93E09126
:104B1000C403F091C5031995FF91EF91BF91AF9137
:104B20009F918F917F916F915F914F913F912F91C5
:104B30000F900BBE0F900FBE0F901F9018951F92F5
:104B40000F920FB60F9211240BB60F922F933F9333
:104B50004F935F936F937F938F939F93AF93BF9385
:104B6000EF93FF93E091BA03F091BB031995FF9186
:104B7000EF91BF91AF919F918F917F916F915F91D5
:104B80004F913F912F910F900BBE0F900FBE0F9042
:104B90001F9018951F920F920FB60F9211240BB60B
:104BA0000F922F933F934F935F936F937F938F93C6
:104BB0009F93AF93BF93EF93FF93E091BC03F0916A
:104BC000BD031995FF91EF91BF91AF919F918F9187
:104BD0007F916F915F914F913F912F910F900BBEFD
:104BE0000F900FBE0F901F9018951F920F920FB647
:104BF0000F9211240BB60F922F933F934F935F9315
:104C00006F937F938F939F93AF93BF93EF93FF9394
:104C1000E091C603F091C7031995FF91EF91BF9101
:104C2000AF919F918F917F916F915F914F913F9144
:104C30002F910F900BBE0F900FBE0F901F901895E5
:104C40001F920F920FB60F9211240BB60F922F9353
:104C50003F934F935F936F937F938F939F93AF9304
:104C6000BF93EF93FF93E091C803F091C9031995A7
:104C7000FF91EF91BF91AF919F918F917F916F9134
:104C80005F914F913F912F910F900BBE0F900FBEF0
:104C90000F901F9018951F920F920FB60F9211242C
:104CA0002F933F938F939F93AF93BF938091290C42
:104CB00090912A0CA0912B0CB0912C0C3091280CC7
:104CC00023E0230F2D3720F40196A11DB11D05C04F
:104CD00026E8230F0296A11DB11D2093280C809376
:104CE000290C90932A0CA0932B0CB0932C0C809140
:104CF0002D0C90912E0CA0912F0CB091300C0196A0
:104D0000A11DB11D80932D0C90932E0CA0932F0C00
:104D1000B093300CBF91AF919F918F913F912F91A4
:104D20000F900FBE0F901F9018953FB7F894809189
:104D30002D0C90912E0CA0912F0CB091300C26B51B
:104D4000A89B05C02F3F19F00196A11DB11D3FBFC3
:104D50006627782F892F9A2F620F711D811D911D53
:104D600042E0660F771F881F991F4A95D1F7089573
:104D7000CF92DF92EF92FF92CF93DF936B017C0192
:104D80000E949526EB01C114D104E104F10489F0DD
:104D90000E94722D0E9495266C1B7D0B683E73400D
:104DA00090F381E0C81AD108E108F108C851DC4F3E
:104DB000EACFDF91CF91FF90EF90DF90CF900895F1
:104DC0008230910538F0880F991F880F991F059739
:104DD0000197F1F70895789484B5826084BD84B515
:104DE000816084BD85B5826085BD85B5816085BDE6
:104DF000EEE6F0E0808181608083E1E8F0E01082FF
:104E0000808182608083808181608083E0E8F0E03F
:104E1000808181608083E1EBF0E080818460808329
:104E2000E0EBF0E0808181608083E1E9F0E0808167
:104E300082608083808181608083E0E9F0E080810E
:104E400081608083E1EAF0E08081826080838081FC
:104E500081608083E0EAF0E0808181608083E1E22C
:104E6000F1E0808182608083808181608083E0E2E4
:104E7000F1E0808181608083EAE7F0E080818460F6
:104E80008083808182608083808181608083808153
:104E9000806880831092C100089590E0FC013197F2
:104EA000E231F10508F04CC0E758FF4F0C941E3179
:104EB000809180008F7703C0809180008F7D8093E8
:104EC0008000089580918000877FF9CF84B58F7727
:104ED00002C084B58F7D84BD08958091B0008F7726
:104EE00003C08091B0008F7D8093B00008958091C1
:104EF00090008F7707C0809190008F7D03C08091D4
:104F00009000877F8093900008958091A0008F7714
:104F100007C08091A0008F7D03C08091A000877F93
:104F20008093A0000895809120018F7707C0809121
:104F300020018F7D03C080912001877F8093200115
:104F40000895CF93DF9390E0FC01E258FD4F249148
:104F5000FC01EC53FD4F8491882349F190E0880FC8
:104F6000991FFC01E25CFC4FA591B4918C5D9C4FB4
:104F7000FC01C591D4919FB7611108C0F8948C9140
:104F8000209582238C93888182230AC0623051F459
:104F9000F8948C91322F309583238C938881822BC7
:104FA000888304C0F8948C91822B8C939FBFDF91EF
:104FB000CF9108950F931F93CF93DF931F92CDB797
:104FC000DEB7282F30E0F901E85CFD4F8491F9014C
:104FD000E258FD4F1491F901EC53FD4F0491002369
:104FE000C9F0882321F069830E944D276981E02F51
:104FF000F0E0EE0FFF1FEC5DFC4FA591B4919FB761
:10500000F8948C91611103C01095812301C0812B0C
:105010008C939FBF0F90DF91CF911F910F910895B7
:10502000CF93DF93282F30E0F901E85CFD4F8491A6
:10503000F901E258FD4FD491F901EC53FD4FC491B1
:10504000CC2391F081110E944D27EC2FF0E0EE0F60
:10505000FF1FE65FFC4FA591B4912C912D2381E0B9
:1050600090E021F480E002C080E090E0DF91CF91F9
:105070000895FC01818D228D90E0805C9F4F821B02
:1050800091098F7399270895FC01918D828D98174E
:1050900031F0828DE80FF11D858D90E008958FEF3E
:1050A0009FEF0895FC01918D828D981761F0828D9C
:1050B000DF01A80FB11D5D968C91928D9F5F9F734C
:1050C000928F90E008958FEF9FEF08958DE09AE220
:1050D000892B41F080E090E0892B21F00E940D2A7D
:1050E000811125C080E090E0892B41F080E090E0C4
:1050F000892B21F00E94000081111CC080E090E00B
:10510000892B41F080E090E0892B21F00E94000083
:10511000811113C080E090E0892BA1F080E090E045
:10512000892B81F00E94000081110AC008950E941D
:105130000000D8CF0E940000E1CF0E940000EACF1B
:105140000C9400000895FC01848DDF01A80FB11DAF
:10515000A35ABF4F2C91848D90E001968F739927AD
:10516000848FA689B7892C93A089B1898C9180649A
:105170008C93938D848D981306C00288F389E02D5B
:1051800080818F7D80830895CF93DF93EC01888D9C
:105190008823C9F0EA89FB89808185FD05C0A8893B
:1051A000B9898C9186FD0FC00FB607FCF5CF8081C1
:1051B00085FFF2CFA889B9898C9185FFEDCFCE010B
:1051C0000E94A328E7CFDF91CF910895CF92DF927D
:1051D000FF920F931F93CF93DF931F92CDB7DEB74C
:1051E0006C0181E0D60158968C9358975B969C9100
:1051F0005B975C968C915C97981307C05096ED91E5
:10520000FC915197808185FD2EC0F601038D10E041
:105210000F5F1F4F0F731127F02EF601848DF812C8
:1052200011C00FB607FCF9CFD6015096ED91FC9155
:105230005197808185FFF1CFC60169830E94A32821
:105240006981EBCF838DE80FF11DE35AFF4F608337
:10525000D6015B960C935B975296ED91FC91539718
:10526000808180620CC0D6015696ED91FC915797D3
:1052700060835096ED91FC9151978081806480838A
:1052800081E090E00F90DF91CF911F910F91FF90FF
:10529000DF90CF900895BF92CF92DF92EF92FF926E
:1052A000CF93DF93EC016A017B01B22EE889F98983
:1052B00082E08083411581EE580761057105A1F0F8
:1052C00060E079E08DE390E0A70196010E94DD3077
:1052D0002150310941095109569547953795279530
:1052E000211580E1380798F0E889F989108260E893
:1052F00074E88EE190E0A70196010E94DD30215014
:105300003109410951095695479537952795EC85FF
:10531000FD853083EE85FF852083188EEC89FD891D
:10532000B082EA89FB89808180618083EA89FB8978
:10533000808188608083EA89FB898081806880839E
:10534000EA89FB8980818F7D8083DF91CF91FF90F7
:10535000EF90DF90CF90BF9008951F920F920FB6FD
:105360000F9211240BB60F922F938F939F93EF936D
:10537000FF93E091410CF091420C8081E091470C49
:10538000F091480C82FD12C0908180914A0C8F5F91
:105390008F7320914B0C821751F0E0914A0CF0E092
:1053A000EF5CF34F958F80934A0C01C08081FF9191
:1053B000EF919F918F912F910F900BBE0F900FBE89
:1053C0000F901F9018951F920F920FB60F921124F5
:1053D0000BB60F922F933F934F935F936F937F93EF
:1053E0008F939F93AF93BF93EF93FF9381E39CE0E1
:1053F0000E94A328FF91EF91BF91AF919F918F9150
:105400007F916F915F914F913F912F910F900BBEC4
:105410000F900FBE0F901F90189581E39CE00E94A3
:10542000392821E0892B09F420E0822F0895109279
:10543000340C1092330C88EE93E0A0E0B0E080933F
:10544000350C9093360CA093370CB093380C81EC4C
:1054500099E09093320C8093310C85EC90E090931E
:105460003E0C80933D0C84EC90E09093400C809334
:105470003F0C80EC90E09093420C8093410C81ECC7
:1054800090E09093440C8093430C82EC90E09093D6
:10549000460C8093450C86EC90E09093480C8093EA
:1054A000470C10924A0C10924B0C10924C0C10921C
:1054B0004D0C089508950E94EB260E945A2A0E94DE
:1054C000801CC6E6D8E20E9413242097E1F30E94D4
:1054D0006628F9CFCF92DF92EF92FF920F931F933E
:1054E000CF93DF937C016A01EB0100E010E00C1523
:1054F0001D0571F06991D701ED91FC910190F0814A
:10550000E02DC7011995892B19F00F5F1F4FEFCFC1
:10551000C801DF91CF911F910F91FF90EF90DF9025
:10552000CF9008956115710581F0DB010D90002089
:10553000E9F7AD0141505109461B570BDC01ED91D4
:10554000FC910280F381E02D199480E090E00895B1
:10555000DC01ED91FC91DB0114964D915C91159766
:105560006D917C910280F381E02D19940C94922A24
:10557000DC01ED91FC910190F081E02D19946DEC2E
:1055800079E00C94922A0F931F93CF93DF93EC0151
:105590000E94A82A8C01CE010E94BF2A800F911F71
:1055A000DF91CF911F910F9108950F931F93CF9388
:1055B000DF93EC010E94922A8C01CE010E94BF2A47
:1055C000800F911FDF91CF911F910F9108958F92BE
:1055D0009F92AF92BF92CF92DF92EF92FF920F9382
:1055E0001F93CF93DF93CDB7DEB7A1970FB6F89493
:1055F000DEBF0FBECDBF7C01C42EE52FCB01D22E66
:1056000019A221E02D1510F02AE0D22E8E010F5D97
:105610001F4F8D2C912CA12CB12C6C2D7E2FA50110
:1056200094010E94DD308C2DD29E801911240150EE
:1056300011098A3014F4805D01C0895CF80180830F
:10564000211531054105510521F0C22EE32FCA0174
:10565000E4CFB801C7010E94922AA1960FB6F89430
:10566000DEBF0FBECDBFDF91CF911F910F91FF9095
:10567000EF90DF90CF90BF90AF909F908F90089564
:10568000CF92DF92EF92FF920F931F93CF93DF930E
:10569000EC016A017B012115310579F4E881F9817A
:1056A0000190F081E02D642FDF91CF911F910F9138
:1056B000FF90EF90DF90CF9019942A303105E9F4F4
:1056C00077FF1AC06DE20E94B82A8C014427552743
:1056D000BA014C195D096E097F092AE0CE010E94CA
:1056E000E72A800F911FDF91CF911F910F91FF90BB
:1056F000EF90DF90CF9008952AE0B701A601CE0188
:10570000DF91CF911F910F91FF90EF90DF90CF909D
:105710000C94E72A9A01AB01662757FD6095762F16
:105720000C94402B2115310541F4DC01ED91FC91E5
:105730000190F081E02D642F19940C94E72A0F93C7
:105740001F93CF93DF93EC019A01462F50E060E066
:1057500070E00E94922B8C01CE010E94BF2A800F24
:10576000911FDF91CF911F910F910895FC018081CE
:1057700091810C94F131CF93DF93EC018881998171
:10578000009711F00E94F131198218821D821C824B
:105790001B821A82DF91CF9108950F931F93CF93AD
:1057A000DF93EC018B016F5F7F4F888199810E94AD
:1057B0008F34009731F0998388831B830A8381E0BB
:1057C00001C080E0DF91CF911F910F910895CF9399
:1057D000DF93EC0188819981892B29F08A819B8153
:1057E0008617970760F4CE010E94CD2B882341F0E5
:1057F0008C819D81892B19F4E881F981108281E0E7
:10580000DF91CF910895EF92FF920F931F93CF9363
:10581000DF93EC017B018A01BA010E94E72B811121
:1058200004C0CE010E94BB2B07C01D830C83B701AF
:10583000888199810E948135CE01DF91CF911F919E
:105840000F91FF90EF900895FC0111821082138256
:105850001282158214826115710559F0FB010190C5
:105860000020E9F7AF0141505109461B570B0C943A
:10587000032C0895CF93DF93EC01FB018617970764
:1058800061F0608171816115710529F04481558154
:105890000E94032C02C00E94BB2BCE01DF91CF914E
:1058A0000895FC01118210821382128215821482E3
:1058B0000C943A2CCF93DF93EC016115710561F0E4
:1058C000FB0101900020E9F7AF0141505109461B4F
:1058D000570B0E94032C02C00E94BB2BCE01DF910C
:1058E000CF9108950F931F93CF93DF93CDB7DEB77A
:1058F00029970FB6F894DEBF0FBECDBF8C01862F5F
:10590000F80111821082138212821582148250E0F3
:10591000BE016F5F7F4F90E00E949E35BE016F5FBA
:105920007F4FC8010E945A2C29960FB6F894DEBF0B
:105930000FBECDBFDF91CF911F910F9108950F93AF
:105940001F93CF93DF93CDB7DEB762970FB6F8946E
:10595000DEBF0FBECDBF8C01CB01F80111821082DA
:10596000138212821582148250E0BE016F5F7F4F56
:105970000E948835BE016F5F7F4FC8010E945A2C7C
:1059800062960FB6F894DEBF0FBECDBFDF91CF9108
:105990001F910F9108950F931F93CF93DF93CDB76E
:1059A000DEB761970FB6F894DEBF0FBECDBF8C0196
:1059B000CB01F801118210821382128215821482A7
:1059C00050E0BE016F5F7F4F0E949E35BE016F5F4A
:1059D0007F4FC8010E945A2C61960FB6F894DEBF23
:1059E0000FBECDBFDF91CF911F910F910895EF9220
:1059F000FF920F931F93CF93DF93EC017B010C81F8
:105A00001D816115710511F480E016C04115510525
:105A100091F0040F151FB8010E94E72B8823A1F312
:105A2000288139818C819D81B701820F931F0E944B
:105A300081351D830C8381E0DF91CF911F910F9100
:105A4000FF90EF900895CF93DF931F921F92CDB7F1
:105A5000DEB769831A8241E050E0BE016F5F7F4F7D
:105A60000E94F72C0F900F90DF91CF910895CF9364
:105A7000DF93EC01FB0144815581608171810E94BB
:105A8000F72C811103C0CE010E94BB2BCE01DF9108
:105A9000CF910895CF93DF93EC016115710569F003
:105AA000FB0101900020E9F7AF0141505109461B6D
:105AB000570B0E94F72C811103C0CE010E94BB2B13
:105AC000CE01DF91CF910895CF93DF93EC010E9437
:105AD000232D811103C0CE010E94BB2BCE01DF918B
