:100000000C94AE010C946A220C9495220C94C0229C
:100010000C94EB220C9416230C9441230C946C2327
:100020000C9497230C94DF010C94DF010C94DF01F6
:100030000C94DF010C94DF010C94DF010C94DF01C0
:100040000C94DF010C94DF010C94DF010C94DF01B0
:100050000C94DF010C94DF010C94DF010C94C2239B
:100060000C94DF010C9424270C945A270C94DF0184
:100070000C94DF010C94DF010C94DF010C94DF0180
:100080000C94DF010C94DF010C94DF010C94DF0170
:100090000C94DF010C94DF010C94DF010C94240C10
:1000A0000C94DF010C94DF010C94DF010C94DF0150
:1000B0000C94DF010C94DF010C94DF010C94DF0140
:1000C0000C94DF010C94DF010C94DF010C94DF0130
:1000D0000C94DF010C94DF010C94DF010C94DF0120
:1000E0000C94DF0144220E22162222222F225022BB
:1000F0005D22DD24E024CF24D324D9241725E42451
:10010000E824EE24F224F624FC24002504251725F7
:100110000A250E251225072C7AA5BA6CC590DA3B64
:100120009365FC8BBC53F810FD3C5692834DBD8704
:100130009D3AB63DCBC9BF5BBE73DA0FC93F05A878
:100140004CCDB2D44EB93836A9020C50B99186883C
:10015000083CA6AAAA2ABE000000803F0664EC1B49
:100160003C04BC163E3BE5B93CC93C37C29E5A3DF7
:10017000660498083EEA69AAAA3E000000803F0093
:100180000C943A0B0C9416220C9444220C943E0AC4
:100190000C942F220C94C9250C945D260C94C30357
:1001A0000C941B0A0C94E1270C94130A0C9404255C
:1001B0000C940E250C9412250C94EE240C94E0243F
:1001C0000C94FC240C943D0A0C94D3240C94F2243B
:1001D0000C94F6240C94D9240C94F8210C948E27BA
:1001E0000C945D220C94DD240C9422220C94ED21BD
:1001F0000C94CF240C942E0A0C940E220C94842779
:100200000C94A7020C94DD250C9450220C9400252C
:100210000C94E4240C94B0250C94BB250C946B0A2C
:100220000C94E8240C940A250C943B260C94172576
:100230000C94550D00000A0B02090C0D0E08070363
:1002400004010000000000000000000000000000A9
:10025000000000000000000000000000000000009E
:10026000121110000000000000000000000000005B
:100270000000000000000000000001021020200823
:1002800008102040102040800201020108040201F1
:100290000102040810204080804020100804020160
:1002A00080040201804020100804020108040201B9
:1002B0000102040810204080010204081020408040
:1002C00005050505070508080808020202020A0AD2
:1002D00008080404040401010101010101010303F0
:1002E000030303030303040707070C0C0C0C0C0C9B
:1002F0000C0C0202020206060606060606060B0B98
:100300000B0B0B0B0B0B0000200023002600290019
:100310002C002F003200000100000301060109013A
:1003200000002200250028002B002E0031003400A0
:1003300002010000050108010B010000210024005A
:1003400027002A002D0030003300010100000401C5
:1003500007010A01C3033A0BED218E2711241FBEAA
:10036000CFEFD1E2DEBFCDBF00E00CBF1AE0A0E0CE
:10037000B2E0EAEFF0E600E00BBF02C007900D929A
:10038000A23DB107D9F72CE0A2EDBAE001C01D9261
:10039000AA35B207E1F713E0CCE5D3E000E006C0F0
:1003A00022970109FE010BBF0E94F62DC435D1072B
:1003B00080E00807A9F70E94D2270C947B300C94A8
:1003C00000000F93FC01138212828CED93E0918365
:1003D0008083648340872187028788E083870F9129
:1003E00008951F93CF93DF93EC01162F6C8182ED5C
:1003F0009AE00E94B40AE091D20AF091D30A6B8588
:10040000612B0190F081E02D82ED9AE0199582ED4B
:100410009AE0DF91CF911F910C94370B1F93CF93EC
:10042000DF93EC01162F64600E94F10181E090E0FF
:100430000E945724612F6B7FCE010E94F10182E35D
:1004400090E0DF91CF911F910C9457241F93CF938D
:10045000DF93EC01162F0E94F101612FCE01DF9195
:10046000CF911F910C940E02EF92FF921F93CF93A6
:10047000DF931F92CDB7DEB77C01162F607F642B10
:1004800049830E94260280E1189FB001112449810E
:10049000642BC7010F90DF91CF911F91FF90EF90D8
:1004A0000C94260240E00C94340261E00E94520257
:1004B00080ED97E00C94572462E00E94520280ED98
:1004C00097E00C945724CF93DF93CDB7DEB72897EE
:1004D0000FB6F894DEBF0FBECDBF28E0EAECF3E024
:1004E000DE01119601900D922A95E1F7FC0121851C
:1004F000241710F44FEF420FFE013196E40FF11D67
:10050000E40FF11D2081260F2068622F28960FB678
:10051000F894DEBF0FBECDBFDF91CF910C94520295
:10052000FC016681262F246026836C600C945202A5
:10053000FC0166816E7F668368600C945202FC0148
:100540006681262F2160268369600C94520241E067
:100550000E94340281E090E00895CF93DF93EC0194
:1005600082ED9AE00E94AA0A1D828985823010F0ED
:1005700098E09D839A85992329F0813019F48D8123
:1005800084608D8362E370E080E090E00E942F241D
:100590006B85CE010E94F10168EE73E080E090E08F
:1005A0000E942F2460E3CE010E94260284E991E19B
:1005B0000E94572460E3CE010E94260284E991E163
:1005C0000E94572460E3CE010E94260286E990E053
:1005D0000E94572460E2CE010E9426026D81606273
:1005E000CE010E94520284E08E83CE010E949002CE
:1005F000CE010E94550282E08F8366E0CE010E9408
:100600005202CE01DF91CF910C945C02DC01ED919E
:10061000FC910190F081E02D1994CF93DF93EC01D0
:1006200068E670E082ED9AE00E94BE0A6EE070E03B
:1006300082ED9AE00E9406032091060230910702A3
:10064000279711F4216001C02360309307022093A3
:100650000602609106027091070282ED9AE00E9404
:10066000060382ED9AE0DF91CF910C94370B68E698
:1006700070E082ED9AE00E94BE0A6FE070E082EDC9
:100680009AE00E94060360E070E082ED9AE00E942A
:10069000060382ED9AE00C94370BCF93DF93EC01C5
:1006A00068E670E082ED9AE00E94BE0A6EE070E0BB
:1006B00082ED9AE00E940603809106029091070263
:1006C000C130D10569F02CF4CD2B89F4877E9927B0
:1006D0000AC0C230D10531F0239749F4886103C0C4
:1006E000886001C080619093070280930602609148
:1006F00006027091070282ED9AE00E94060382EDE5
:100700009AE0DF91CF910C94370B6AE00E944A2D5A
:1007100020E1829F900D1124892F0895982F9295A2
:100720009F708F702AE0929F800D1124089568E6D3
:1007300070E082ED9AE00E94BE0A6FE070E082ED08
:100740009AE00E94060360E870E082ED9AE00E9461
:10075000060382ED9AE00C94370B68E670E082EDB8
:100760009AE00E94BE0A6FE070E082ED9AE00E947B
:10077000060360E070E082ED9AE00E94060382EDDD
:100780009AE00C94370B82ED9AE00C94AA0AEF924F
:10079000FF920F931F93CF93DF931F921F92CDB7BA
:1007A000DEB77C018B016730710549F06B30710554
:1007B00049F06115710541F447E050E005C044E09F
:1007C00050E002C043E050E068E670E082ED9AE05D
:1007D00049835A830E94BE0AB80182ED9AE00E94C2
:1007E000060382ED9AE00E94370B49815A8168E640
:1007F00070E082ED9AE00E94340B0B30110541F05D
:1008000082ED9AE00E941B0A0E948E03F70180830A
:1008100082ED9AE00E941B0A0E948E03F7018183F9
:1008200082ED9AE00E941B0A0E948E03F7018283E8
:1008300082ED9AE00730110519F00B30110549F4EB
:100840000E941B0A0E948E03F70184831582168280
:100850001FC00E941B0A0E948E03F701838382ED52
:100860009AE00E941B0A0E948E03F701848382EDA6
:100870009AE00E941B0A0E948E03F701858382ED95
:100880009AE00E941B0A0E948E03825EF701868313
:100890000F900F90DF91CF911F910F91FF90EF90EC
:1008A0000895CF93DF93CDB7DEB727970FB6F894AF
:1008B000DEBF0FBECDBFBC01CE0101960E94C703B3
:1008C000CE0101960E94C70527960FB6F894DEBFA9
:1008D0000FBECDBFDF91CF9108950F931F93CF939C
:1008E000DF93EC018B0168E670E082ED9AE00E94F4
:1008F000BE0AB80182ED9AE00E9406030B30110592
:1009000041F088810E948503682F82ED9AE00E9461
:100910006B0A89810E948503682F82ED9AE00E940C
:100920006B0A8A810E948503682F82ED9AE00E94FB
:100930006B0A0730110519F00B30110511F48C8189
:100940001AC08B810E948503682F82ED9AE00E9475
:100950006B0A8C810E948503682F82ED9AE00E94C9
:100960006B0A8D810E948503682F82ED9AE00E94B8
:100970006B0A8E818E510E948503682F82ED9AE06A
:100980000E946B0A82ED9AE0DF91CF911F910F9147
:100990000C94370B0F931F93CF93DF93CDB7DEB734
:1009A00027970FB6F894DEBF0FBECDBF8A01AE0108
:1009B0004F5F5F4F0E94F0040E949703B801CE0181
:1009C00001960E946D040E94AD0327960FB6F8941D
:1009D000DEBF0FBECDBFDF91CF911F910F91089564
:1009E0006F927F928F929F92AF92BF92CF92DF923F
:1009F000EF92FF920F931F93CF93DF93EA012CE3C3
:100A0000C22ED12CE12CF12CA70196010E947E2D43
:100A10006883CA01B901A70196010E947E2D6983EE
:100A2000CA01B90128E130E040E050E00E947E2D8B
:100A300049015A016A83CA01B9016C5F7F4F8F4F28
:100A40009F4F27E030E040E050E00E947E2D6F5F36
:100A50006B8300E010E0980140E054E6652E712CB5
:100A600060E9C62EDD24D394E42FF0E0EE54F84F75
:100A70007F0183E0E822FF24E114F10489F4CF012F
:100A8000B3010E946A2D892B29F08EE691E0A0E047
:100A9000B0E00AC0CF01B6010E946A2D892BA9F3EC
:100AA0008DE691E0A0E0B0E0080F191F2A1F3B1F60
:100AB000D901C801AA27BB2788169906AA06BB0632
:100AC00010F04F5FD1CF4E83E114F10499F4CF01C0
:100AD00064E670E00E946A2D892B29F08EE691E091
:100AE000A0E0B0E00BC0CF0160E971E00E946A2D88
:100AF000892BA1F38DE691E0A0E0B0E0081B190B73
:100B00002A0B3B0B801A910AA20AB30ACF0164E6B2
:100B100070E00E946A2D9C01CF0160E971E00E94A3
:100B20006A2DE0EEF3E0A0E0A13059F4E114F10405
:100B300051F42115310511F04DE106C00097E1F3A4
:100B400002C0408101C04CE150E060E070E08416DA
:100B50009506A606B70640F0841A950AA60AB70AB3
:100B6000AF5F3196AC3001F7AF5FAD8383948C8279
:100B7000DF91CF911F910F91FF90EF90DF90CF9079
:100B8000BF90AF909F908F907F906F9008956F92DD
:100B90007F928F929F92AF92BF92CF92DF92EF920D
:100BA000FF920F931F93CF93DF93FC01C680AC2D70
:100BB000B0E020E833E341EE51E00E94E32D4B0129
:100BC0005C0122EB37E06D01C4E6D0E000E911E002
:100BD000C901825B97408C159D05DCF4C9018370C7
:100BE0009927892B99F4C901BE010E946A2D892B8E
:100BF00031F4C901B8010E946A2D892B39F480E8CB
:100C0000880E81E5981E81E0A81EB11C2F5F3F4F22
:100C1000DFCF6580712C8EE4C81A88EFD80AC60130
:100C200064E670E00E946A2D8C01C60160E971E003
:100C30000E946A2D7C01C1E0D0E083E0C822DD245F
:100C4000C615D7052CF5C230D10589F4C114D104DD
:100C500071F40115110519F4E114F10441F480E86F
:100C6000880E8BE3981E86E2A81EB11C0FC0DE0121
:100C7000A152BC4FAC91B0E020E831E541E050E03A
:100C80000E94E32D860E971EA81EB91E2196D8CF6E
:100C90004181228130E0A0E1BEE00E94CD2D6B01B8
:100CA0007C01242F30E0ACE3B0E00E94CD2DC60ED5
:100CB000D71EE81EF91E8081C80ED11CE11CF11C54
:100CC000A481B0E0119720E831E541E050E00E94B6
:100CD000EE2DC60ED71EE81EF91EC80CD91CEA1C44
:100CE000FB1CC701B601DF91CF911F910F91FF90BF
:100CF000EF90DF90CF90BF90AF909F908F907F90BC
:100D00006F900895FC0140E050E068ED71E440838D
:100D100051836283738340E050E064EA72EC448361
:100D200055836683778384ED9EEF9187808783E088
:100D3000828782E083878BE0848781E085878CE3EC
:100D4000868708959B0177FF04C022273327261B3F
:100D5000370B213D32402CF4FC017187608781E024
:100D6000089580E008958F929F92AF92BF92CF92A4
:100D7000DF92EF92FF920F931F93CF93DF93EC01DB
:100D80006A017B0148015901C901B8019F7720E040
:100D900030E044E353E40E944E2C1816ACF020E0FF
:100DA00030E044EB52E4C701B6019F770E944E2C1D
:100DB000181654F0C882D982EA82FB828C829D8206
:100DC000AE82BF8281E001C080E0DF91CF911F91B0
:100DD0000F91FF90EF90DF90CF90BF90AF909F90DA
:100DE0008F9008959B01CB0183709927892B39F44B
:100DF000CB0164E670E00E946A2D892B59F4C90189
:100E000060E971E00E946A2D21E0892B09F020E061
:100E1000822F089581E00895FB01658124812230AD
:100E200049F470E06053784F0E94F206882361F025
:100E30008DE10895822F8170283010F091E089278C
:100E4000882321F08FE108958CE108958EE10895C3
:100E50008F929F92AF92BF92CF92DF92EF92FF92CA
:100E60000F931F93CF93DF938C01EB0169017A01FC
:100E70008981C80ED11CE11CF11CC701B6012CE30D
:100E800030E040E050E00E94A02D49015A01F601F7
:100E9000C601D7FE04C0882799278C199D096CE3E9
:100EA00070E00E946A2DF7FF02C0AFEF01C0A1E021
:100EB0009C01BB27A7FDB0950E94C52D645C7F4FA8
:100EC0008F4F9F4F2CE330E040E050E00E94A02D78
:100ED00069838A81880E911CA11CB11CC501B401D3
:100EE00028E130E040E050E00E94A02D69017A0145
:100EF000F401C40197FE04C088279927881999092D
:100F000068E170E00E946A2DF7FF02C0AFEF01C0F8
:100F1000A1E09C01BB27A7FDB0950E94C52D685E8E
:100F20007F4F8F4F9F4F28E130E040E050E00E941C
:100F3000A02D6A838B81C80ED11CE11CF11CBE015F
:100F4000C8010E940C0790E0A0E0B0E08C159D0560
:100F5000AE05BF0554F4C81AD90AEA0AFB0A81E0B3
:100F60008C0D8B838C818F5F8C831C141D041E045D
:100F70001F044CF08C8181508C83BE01C8010E94FB
:100F80000C078C0D8B838D8190E0A0E0B0E02C816C
:100F9000211105C02CE02C830197A109B1092C81F6
:100FA0002D3028F021E02C830196A11DB11DBC013C
:100FB000CD016C597F4F8F4F9F4F24E630E040E0CA
:100FC00050E00E94A02D6D83DF91CF911F910F9172
:100FD000FF90EF90DF90CF90BF90AF909F908F9059
:100FE00008952F923F924F925F926F927F928F92CD
:100FF0009F92AF92BF92CF92DF92EF92FF920F93A8
:101000001F93CF93DF93CDB7DEB76D970FB6F894EC
:10101000DEBF0FBECDBF1C018B014D8FDB011496CF
:10102000FC901497FA941396BC90BA94DC01149631
:101030008D919D910D90BC91A02D8D8B9E8BAF8B32
:10104000B88F21EE3EE245E652E4F1016081718104
:10105000828193810E948A2A69837A838B839C830D
:10106000FD8DF11103C066E0A62E02C052E1A52E4F
:101070006F2D70E080E090E00E94252B20E030E8AA
:1010800043EF51E40E94522C6B017C016B2D70E008
:1010900080E090E00E94252B9B01AC01C701B601C6
:1010A0000E94232A6B017C016A2D70E080E090E0B1
:1010B0000E94252B20E030E040EC51E40E948A2A77
:1010C0009B01AC01C701B6010E94232A22E43DEC3A
:1010D0004CE85CE30E94522C6B017C010E94872A41
:1010E0006D837E838F839887C701B6010E94B52CDC
:1010F00069877A878B879C87A7019601C701B6010C
:101100000E94232A4B015C010E94872A6D877E87FB
:101110008F87988BC501B4010E94B52C698B7A8B9F
:101120008B8B9C8B20E030E040E450E4C701B6019B
:101130000E94522C6B017C010E94872A2B013C01EA
:10114000C701B6010E94B52C6B017C0124E431EC8F
:101150004CEC5EE36D817E818F8198850E94522CDC
:101160009B01AC0164E670EB82EE9BE30E94222AB5
:101170004B015C0127EE32EE4FE85DE369857A852D
:101180008B859C850E94522C9B01AC01C501B4014A
:101190000E94232A4B015C0126E332E74DED5BE31D
:1011A0006D857E858F8598890E94522C9B01AC01AC
:1011B000C501B4010E94222A4B015C012DEB33ECE6
:1011C0004DE65AE369897A898B899C890E94522C61
:1011D0009B01AC01C501B4010E94232A4B015C01B3
:1011E00027E230EC40E35BE3C301B2010E94522CE2
:1011F0009B01AC01C501B4010E94222A4B015C0194
:101200002FE83CEF41EC5AE3C701B6010E94522C93
:101210009B01AC01C501B4010E94232A4B015C0172
:1012200069817A818B819C810E94872A2B013C01F4
:10123000C501B4010E94872A9B01AC0169817A81B2
:101240008B819C81298F3A8F4B8F5C8F0E94FD2C64
:101250006B017C01C501B4010E94FD2C4B015C01B6
:10126000298D3A8D4B8D5C8DC301B2010E94522CA9
:101270009B01AC0168E879E48EE69CEB0E948A2A27
:101280002B013C01A5019401C701B6010E94522C1B
:101290009B01AC01C301B2010E94222A6B017C01B7
:1012A0009F7720E030E040E85FE30E944E2C181664
:1012B0000CF499C0C701B6010E94142A6B017C018D
:1012C0008D8D811104C0F7FAF094F7F8F0946D89D0
:1012D0007E898F89988D905821EE3EE245E652E452
:1012E0000E948A2AA70196010E94222A20E030E06B
:1012F00040E850E40E94522C21EE3EE245E652E4E2
:101300000E94522C20E030E044E354E40E94232A5F
:101310006B017C012EEA37ED44EF5AE36D817E814B
:101320008F8198850E94522C22E539E44DE958E3DB
:101330000E94232A4B015C012CE233E643E05DE38B
:1013400069857A858B859C850E94522C9B01AC0116
:10135000C501B4010E94222A4B015C0121EC33E754
:101360004FE65CE36D857E858F8598890E94522CBF
:101370009B01AC01C501B4010E94222A4B015C0112
:1013800028E431E547E25DE369897A898B899C89A4
:101390000E94522C9B01AC01C501B4010E94222A7B
:1013A00024E13EE245E653E40E94522C9B01AC014D
:1013B000C701B6010E94222A0E94F22AD101189682
:1013C0002D913C911997260F371FF8011282118237
:1013D0001082442737FD4095542FB801C1010E9467
:1013E000280781E001C080E06D960FB6F894DEBF5B
:1013F0000FBECDBFDF91CF911F910F91FF90EF9066
:10140000DF90CF90BF90AF909F908F907F906F9024
:101410005F904F903F902F90089541E00C94F1071A
:1014200040E00C94F1078091020B90E02091030BB7
:10143000821B910908952091030B8091020B2817BC
:1014400050F4E22FF0E0EC5FF44F808190E02F5FEA
:101450002093030B08958FEF9FEF0895E091030B06
:101460008091020BE81730F4F0E0EC5FF44F8081DC
:1014700090E008958FEF9FEF08950895CF92DF9247
:10148000EF92FF920F931F93CF93DF937C01CB01D9
:101490008A012091DE0A222389F0EB016B01C40E40
:1014A000D51ECC15DD0569F06991D701ED91FC9150
:1014B0000190F081E02DC7011995F3CF642F0E94B0
:1014C000FB0BC801DF91CF911F910F91FF90EF901F
:1014D000DF90CF900895CF93DF931F92CDB7DEB703
:1014E00069832091DE0A2223D1F02091DF0A203285
:1014F00040F021E030E0FC013383228380E090E083
:1015000015C08091E00AE82FF0E0EF51F54F998186
:1015100090838F5F8093E00A8093DF0A05C061E0CB
:10152000CE0101960E94FB0B81E090E00F90DF91CD
:10153000CF910895FC011382128248EE53E060E0DF
:1015400070E0448355836683778380EF93E09183D3
:10155000808308951092030B1092020B1092E00A00
:101560001092DF0A0C943E0B81E08093DE0A6093B8
:10157000010B1092E00A1092DF0A08950C94B40A4D
:101580000F93062F21E04091DF0A61EE7AE080910F
:10159000010B0E94A40B1092E00A1092DF0A109235
:1015A000DE0A0F9108958F929F92AF92BF92CF92D1
:1015B000DF92EF92FF920F931F93CF93DF93EC0193
:1015C000F62ED42E48015901EE2019F10E94B40ADA
:1015D0001E2D143008F013E01150B8F0E881F981A5
:1015E00028E0129FB0011124A501940104C0569572
:1015F0004795379527956A95D2F7CA01B9010190A9
:10160000F081E02DCE011995E7CF60E0CE010E9478
:10161000C00A4D2D413208F040E22C2D64E07BE001
:101620008F2D0E945C0B1092030B8093020BDF91B5
:10163000CF911F910F91FF90EF90DF90CF90BF90CF
:10164000AF909F908F900895CF92EF920F931F933A
:10165000C22EE12C00E010E098010E94D30A1F91F5
:101660000F91EF90CF90089521E00C94240B61E04E
:101670000C94C00A82ED9AE00C949A0A1092910B95
:1016800081E080938F0B10928E0B61E084E10E94C9
:10169000512561E085E10E945125E9EBF0E0808170
:1016A0008E7F808380818D7F808388E48093B800E3
:1016B00085E48093BC000895413208F043C09091C6
:1016C000910B9111FCCF91E09093910B20938F0B94
:1016D0002FEF2093240B1092690B240F2093680B9B
:1016E0009093900B9091900B880F892B8093900B87
:1016F00080918E0B813061F410928E0B8091900B53
:101700008093BB008091BC0083FDF8CF85EC01C0C5
:1017100085EE8093BC008091910B8130E1F3809144
:10172000690B841710F44091690B2AE63BE0FB013A
:10173000D9018A2F821B841718F48D918193F9CFD8
:10174000842F089580E008950F93413208F04AC035
:101750009091910B9111FCCF92E09093910B00939B
:101760008F0B9FEF9093240B1092690B4093680BA3
:10177000FB016AE67BE0DB019A2F961B941718F4B5
:1017800091919D93F9CF1092900B9091900B880FAF
:10179000892B8093900B80918E0B813061F4109295
:1017A0008E0B8091900B8093BB008091BC0083FDD9
:1017B000F8CF85EC01C085EE8093BC00222321F098
:1017C0008091910B8230E1F38091240B8F3F61F087
:1017D0008091240B803251F08091240B803341F4AE
:1017E00083E007C081E005C080E003C082E001C063
:1017F00084E00F910895613298F42091910B243088
:1018000089F46093460BFC0188E49BE0DC012A2FFD
:10181000281B261718F421912D93F9CF80E0089505
:1018200081E0089582E0089585ED8093BC00809169
:10183000BC0084FDFCCF1092910B089585EC809341
:10184000BC001092910B08951F920F920FB60F9249
:1018500011240BB60F922F933F934F935F936F9387
:101860007F938F939F93AF93BF93EF93FF93809159
:10187000B900887F803609F49EC078F5883209F473
:101880005DC090F4803109F456C038F4882309F41F
:10189000F5C0883009F44FC0F5C0883109F44EC056
:1018A000803209F45FC0EEC0803409F46AC058F495
:1018B000803309F457C0883309F0E4C08093240BC7
:1018C0000E941E0CDFC0803509F44FC0883509F432
:1018D0005DC0883409F0D6C0D3C0883909F4C4C0CB
:1018E000A8F4883709F467C038F4883609F463C06F
:1018F000803709F460C0C6C0883809F4B5C08039A3
:1019000009F45FC0803809F0BDC05BC0803B09F4BA
:1019100083C038F4803A09F466C0883A09F47CC080
:10192000B1C0803C09F4A4C0883C09F4A1C0883B44
:1019300009F487C0A7C08091900B10C09091690BEB
:101940008091680B981770F5E091690B81E08E0F1C
:101950008093690BF0E0E659F44F80818093BB00DF
:1019600085EC83C08093240B8BC0E091690B81E0F0
:101970008E0F8093690B8091BB00F0E0E659F44F25
:1019800080839091690B8091680B6BC0E091690B2B
:1019900081E08E0F8093690B8091BB00F0E0E659E7
:1019A000F44F808380918F0B81116AC081E0809316
:1019B0008E0B84EA5EC083E08093910B1092250B1E
:1019C000CFCF8091250B803208F04EC0E091250BDF
:1019D00081E08E0F8093250B8091BB00F0E0EA5DE3
:1019E000F44F8083BDCF0E941E0C8091250B803266
:1019F00030F4E091250BF0E0EA5DF44F1082609145
:101A0000250B70E0E0918A0BF0918B0B86E29BE056
:101A100019951092250B36C084E08093910B10929B
:101A2000470B1092460BE0918C0BF0918D0B1995A2
:101A30008091460B811105C081E08093460B109286
:101A4000480BE091470B81E08E0F8093470BF0E04D
:101A5000E85BF44F80818093BB009091470B8091AD
:101A6000460B981708F47CCF85E88093BC000AC029
:101A700085EC8093BC001092910B04C01092240B53
:101A80000E94140CFF91EF91BF91AF919F918F91A4
:101A90007F916F915F914F913F912F910F900BBE6E
:101AA0000F900FBE0F901F90189581E08093AE0BA2
:101AB0000895CF93DF93CDB7DEB72C970FB6F89488
:101AC000DEBF0FBECDBF4AE0BC01CE0107960E942B
:101AD00040296CEF73E0CE0101960E94C528BE013B
:101AE000695F7F4FCE0101960E94D829BC0189EB26
:101AF0009BE00E943328CE0101960E945728CE0118
:101B000007960E9457282C960FB6F894DEBF0FBE9A
:101B1000CDBFDF91CF910895EF92FF920F931F9366
:101B2000CF93DF93CDB7DEB72C970FB6F894DEBF17
:101B30000FBECDBF00E010E0780189E0E80EF11C97
:101B400061E0C8010E945D300F5F1F4F0E151F0539
:101B5000B9F7043B110581F76DE084EB90E00E943A
:101B60005D3000E010E0780189E0E80EF11CC8016A
:101B70000E945530813021F087E090E00E94590D9D
:101B80000F5F1F4F0E151F0591F7043B110559F705
:101B900084EB90E00E9455308D3021F088E090E099
:101BA0000E94590D67E777E089EB9BE00E9445288A
:101BB0004AE064EB70E0CE0107960E94402968E09D
:101BC00074E0CE0101960E94C528BE01695F7F4F77
:101BD000CE0101960E94D8296DE074E00E94EB29A5
:101BE000BC0189EB9BE00E943328CE0101960E9444
:101BF0005728CE0107960E9457282C960FB6F894C6
:101C0000DEBF0FBECDBFDF91CF911F910F91FF902F
:101C1000EF9008959F92AF92BF92CF92DF92EF9292
:101C2000FF920F931F93CF93DF93CDB7DEB72C971F
:101C30000FB6F894DEBF0FBECDBFC12CD12CE12C66
:101C4000F12C84E1982E00E010E09C9C50019D9CBA
:101C5000B00C1124C8018E0D9F1D0E945530F50156
:101C6000E00FF11FE85DFD4F80830F5F1F4F0930CC
:101C7000110581F789E0E80EF11C8FEFC81AD80A28
:101C800084EBE816F104F9F667E777E089EB9BE06F
:101C90000E9445284AE064EB70E0CE0107960E945E
:101CA0006C2961E374E0CE0101960E94C528BE0153
:101CB000695F7F4FCE0101960E94D8296DE374E0E1
:101CC0000E94EB29BC0189EB9BE00E943328CE01E6
:101CD00001960E945728CE0107960E9457282C96FD
:101CE0000FB6F894DEBF0FBECDBFDF91CF911F912D
:101CF0000F91FF90EF90DF90CF90BF90AF909F90AB
:101D000008959F92AF92BF92CF92DF92EF92FF928F
:101D10000F931F93CF93DF93CDB7DEB72C970FB6FA
:101D2000F894DEBF0FBECDBFC12CD12CE12CF12C1D
:101D300094E1992E00E010E09C9C50019D9CB00C19
:101D40001124F501E00FF11FE85DFD4F6081C8012E
:101D50008E0D9F1D0E945D300F5F1F4F09301105D2
:101D600081F789E0E80EF11C8FEFC81AD80A84EBDE
:101D7000E816F104F9F667E777E089EB9BE00E944B
:101D800045284AE064EB70E0CE0107960E944029A6
:101D900062E574E0CE0101960E94C528BE01695F2C
:101DA0007F4FCE0101960E94D82960E674E00E9420
:101DB000EB29BC0189EB9BE00E943328CE01019600
:101DC0000E945728CE0107960E9457282C960FB6DE
:101DD000F894DEBF0FBECDBFDF91CF911F910F9161
:101DE000FF90EF90DF90CF90BF90AF909F900895BD
:101DF000DF92EF92FF920F931F93CF93DF93CDB7B4
:101E0000DEB72C970FB6F894DEBF0FBECDBF64E7E8
:101E100077E089EB9BE00E94452868E974E089EB54
:101E20009BE00E94452864E777E089EB9BE00E94F5
:101E3000452800E010E034E1D32E4AE0602FCE01C7
:101E400007960E94132963E974E0CE0101960E946F
:101E5000C528BE01695F7F4FCE0101960E94D82937
:101E6000BC0189EB9BE00E941F28CE0101960E94D5
:101E70005728CE0107960E945728D09EF001D19E88
:101E8000F00D1124E85DFD4F8081813019F461EB84
:101E900074E002C060EC74E089EB9BE00E942D28A6
:101EA000D09E7001D19EF00C1124C701885D9D4F1A
:101EB0007C01FC0161814AE0CE0101960E94132958
:101EC000BE016F5F7F4F89EB9BE00E941F28CE0110
:101ED00001960E945728F7018281811103C062EDAB
:101EE00074E014C0F7018281813019F46AED74E066
:101EF0000DC0F7018281823019F461EE74E006C0F2
:101F0000F7018281833031F469EE74E089EB9BE064
:101F10000E942D28D09E7001D19EF00C1124C70183
:101F2000885D9D4F7C01FC0163814AE0CE010796EC
:101F30000E94132967E375E0CE0101960E94C5282F
:101F4000BE01695F7F4FCE0101960E94D829BC0176
:101F500089EB9BE00E941F28CE0101960E94572822
:101F6000CE0107960E945728F70164814AE0CE010E
:101F700007960E94132967E375E0CE0101960E943F
:101F8000C528BE01695F7F4FCE0101960E94D82906
:101F9000BC0189EB9BE00E941F28CE0101960E94A4
:101FA0005728CE0107960E945728F70165814AE01D
:101FB000CE0107960E94132968E67AE0CE010196C9
:101FC0000E94C528BE01695F7F4FCE0101960E9425
:101FD000D829BC0189EB9BE00E941F28CE01019605
:101FE0000E945728CE0107960E945728F701868144
:101FF000813019F464EF74E006C0F7018681823005
:1020000031F46EEF74E089EB9BE00E942D2868E3C9
:1020100075E089EB9BE00E9445280F5F1F4F04315C
:10202000110509F00ACF2C960FB6F894DEBF0FBE4B
:10203000CDBFDF91CF911F910F91FF90EF90DF9077
:1020400008950F931F93CF93DF93CDB7DEB76597B6
:102050000FB6F894DEBF0FBECDBF96E0E2EDF3E021
:10206000DE01509601900D929A95E1F78B8B6C8B67
:102070004D8BCE0101960E9482068091B80390910B
:10208000B9032CE3289FB001299F700D1124CE01C4
:1020900001960E94A20603EC15EF2CE031EC48E417
:1020A00051EE68E272E4CE0101960E94B306BE01D1
:1020B000605F7F4FCE0101960E940D0A8A8980934E
:1020C000AA0B89898093AB0BBE01605F7F4FCE0165
:1020D00001960E94100A8A898093AD0B89898093AA
:1020E000AC0B65960FB6F894DEBF0FBECDBFDF9187
:1020F000CF911F910F9108950F93CF93DF93CDB799
:10210000DEB727970FB6F894DEBF0FBECDBF9EE4B3
:10211000940F9F836E838D832B830A831982409350
:10212000210250932202609326028093270220937B
:10213000230200932402CE0101960E94C70540E0CD
:1021400050E00E94CA0481E090E00E944D0327966F
:102150000FB6F894DEBF0FBECDBFDF91CF910F91C8
:1021600008958F929F92AF92BF92CF92DF92EF929B
:10217000FF92CF93DF93CDB7DEB72E970FB6F894CB
:10218000DEBF0FBECDBF80E090E00E9451044B0146
:102190005C0187E090E00E9451046B017C01AE017C
:1021A000485F5F4FC501B4010E94F004AE014F5F6C
:1021B0005F4FC701B6010E94F0048A858093230215
:1021C0008985809324028E8590E08E54984F909359
:1021D0002202809321028D85809326028C85809334
:1021E00027028B85809325022E960FB6F894DEBFCA
:1021F0000FBECDBFDF91CF91FF90EF90DF90CF90DA
:10220000BF90AF909F908F900895CF93DF93CDB7FD
:10221000DEB72C970FB6F894DEBF0FBECDBFBC0162
:102220004AE0CE016A307105E0F407960E946C29FD
:102230006DE075E0CE0101960E94C528BE01695F80
:102240007F4FCE0101960E94D829BC018AE99BE00C
:102250000E941F28CE0101960E945728CE010796A2
:102260000CC001960E946C29BE016F5F7F4F8AE906
:102270009BE00E941F28CE0101960E9457282C96B1
:102280000FB6F894DEBF0FBECDBFDF91CF9108959A
:102290001F93CF93DF93CDB7DEB72D970FB6F8948A
:1022A000DEBF0FBECDBF8091A60B81508D8760EA47
:1022B00070E080E090E00E942F248AE99BE00E9479
:1022C00055026091A60B7091A70B4AE0CE010796CC
:1022D0000E946C296FE075E0CE0101960E94C5282E
:1022E000BE01695F7F4FCE0101960E94D829BC01D3
:1022F0008AE99BE00E941F28CE0101960E94572880
:10230000CE0107960E945728ED8514E11E9FF0012B
:102310001124E85DFD4F8081811139C041E060E00A
:102320008AE99BE00E94630265E175E08AE99BE02F
:102330000E942D2840E06AE08AE99BE00E94630247
:1023400061E877E08AE99BE00E942D2841E06AE09D
:102350008AE99BE00E94630261E877E08AE99BE0FA
:102360000E942D2842E06AE08AE99BE00E94630215
:1023700061E877E08AE99BE00E942D2843E06DE068
:102380008AE99BE00E94630266E877E06DC0AD8554
:102390001A9FD0011124A85DBD4F8C91813009F0A6
:1023A000FDC040E06AE08AE99BE00E946302AD85DF
:1023B0001A9FD0011124A85DBD4F11966C914AE07F
:1023C000CE0107960E94132969E175E0CE010196BE
:1023D0000E94C528BE01695F7F4FCE0101960E9411
:1023E000D829BC018AE99BE00E941F28CE010196F2
:1023F0000E945728CE0107960E94572841E060E0CE
:102400008AE99BE00E94630261E275E08AE99BE051
:102410000E942D2841E06AE08AE99BE00E94630265
:10242000AD851A9FD0011124A85DBD4F12968C91E5
:1024300081111FC064E275E08AE99BE00E942D28AB
:1024400042E06AE08AE99BE00E9463026FE275E085
:102450008AE99BE00E942D2843E06DE08AE99BE039
:102460000E94630264E375E08AE99BE00E942D28E4
:1024700099C0AD851A9FD0011124A85DBD4F129659
:102480008C91813029F56AE375E08AE99BE00E942E
:102490002D2842E06AE08AE99BE00E946302AD8554
:1024A0001A9FD0011124A85DBD4F16968C918130E2
:1024B00019F465E475E0CCCFED851E9FF001112481
:1024C000E85DFD4F8681823039F660E575E0C0CF6A
:1024D000AD851A9FD0011124A85DBD4F12968C9135
:1024E000823019F46BE575E0D0CFAD851A9FD0012D
:1024F0001124A85DBD4F12968C91833009F04BC01A
:1025000066E675E08AE99BE00E942D2842E06AE0D9
:102510008AE99BE00E946302AD851A9FD0011124D5
:10252000A85DBD4F16968C91813019F465E475E075
:102530000BC0ED851E9FF0011124E85DFD4F8681E3
:10254000823031F460E575E08AE99BE00E942D2835
:1025500043E06DE08AE99BE00E946302AD8514E1EF
:102560001A9FD0011124A85DBD4F14968C9190E064
:102570000E94051168E67AE08AE99BE00E942D2816
:10258000ED851E9FF0011124E85DFD4F858190E0EF
:102590000E94051107C08BE090E002C08AE090E045
:1025A0000E94590D2D960FB6F894DEBF0FBECDBF19
:1025B000DF91CF911F910895CF93DF93CDB7DEB711
:1025C0002C970FB6F894DEBF0FBECDBF40E060E0A1
:1025D0008AE99BE00E9463028091270290E00E94BA
:1025E00005116BE075E08AE99BE00E942D2880913F
:1025F000260290E00E9405116BE075E08AE99BE0FD
:102600000E942D2860912102709122024AE0CE01A1
:1026100001960E944029BE016F5F7F4F8AE99BE0CF
:102620000E941F28CE0101960E94572841E062E0D7
:102630008AE99BE00E946302809123026091230259
:102640004AE08A30A0F4CE0107960E9413296DE07B
:1026500075E0CE0101960E94C528BE01695F7F4FDB
:10266000CE0101960E94D82968E67AE00FC0CE011B
:1026700007960E941329BE01695F7F4FCE01019624
:102680000E94F22868E67AE0CE0101960E94EB29CA
:10269000BC018AE99BE00E941F28CE0101960E949E
:1026A0005728CE0107960E945728809124026091F6
:1026B00024024AE08A30E8F4CE0107960E941329EA
:1026C0006DE075E0CE0101960E94C528BE01695FEC
:1026D0007F4FCE0101960E94D829BC018AE99BE078
:1026E0000E941F28CE0101960E945728CE0107960E
:1026F0000DC0CE0101960E941329BE016F5F7F4F6E
:102700008AE99BE00E941F28CE0101960E9457286B
:1027100040E06FE08AE99BE00E9463028091AA0B8F
:102720008A3030F46DE075E08AE99BE00E942D2844
:102730004AE06091AA0BCE0107960E941329BE01C0
:10274000695F7F4FCE0101960E94F22868E67AE029
:10275000CE0101960E94EB29BC018AE99BE00E9410
:102760001F28CE0101960E945728CE0107960E948D
:1027700057288091AB0B8A3030F46DE075E08AE920
:102780009BE00E942D284AE06091AB0BCE010196A0
:102790000E941329BE016F5F7F4F8AE99BE00E9470
:1027A0001F28CE0101960E94572841E06FE08AE978
:1027B0009BE00E9463028091AD0B8A3030F46DE0A3
:1027C00075E08AE99BE00E942D284AE06091AD0BFC
:1027D000CE0107960E941329BE01695F7F4FCE018B
:1027E00001960E94F22868E67AE0CE0101960E94E6
:1027F000EB29BC018AE99BE00E941F28CE010196CB
:102800000E945728CE0107960E9457288091AC0B52
:102810008A3030F46DE075E08AE99BE00E942D2853
:102820004AE06091AC0BCE0101960E941329BE01D3
:102830006F5F7F4F8AE99BE00E941F28CE010196BF
:102840000E94572842E062E08AE99BE00E9463020E
:1028500060E775E08AE99BE00E942D2843E062E092
:102860008AE99BE00E9463028091990B882319F00A
:1028700060E875E002C068E375E08AE99BE00E94C9
:102880002D2843E064E08AE99BE00E946302809186
:10289000980B882319F060E875E002C068E375E0E2
:1028A0008AE99BE00E942D2843E066E08AE99BE0EC
:1028B0000E9463028091970B882319F060E875E00D
:1028C00002C068E375E08AE99BE00E942D2843E09E
:1028D00068E08AE99BE00E9463028091960B88235E
:1028E00019F060E875E002C068E375E08AE99BE0F2
:1028F0000E942D2843E06AE08AE99BE00E9463027F
:102900008091950B882319F060E875E002C068E3B8
:1029100075E08AE99BE00E942D2843E06CE08AE99B
:102920009BE00E9463028091940B882319F060E879
:1029300075E002C068E375E08AE99BE00E942D28FB
:1029400043E06EE08AE99BE00E9463028091930B72
:10295000882319F060E875E002C068E375E08AE951
:102960009BE00E942D2843E060E18AE99BE00E9401
:1029700063028091920B882319F060E875E002C031
:1029800068E375E08AE99BE00E942D282C960FB63B
:10299000F894DEBF0FBECDBFDF91CF9108958AE9D5
:1029A0009BE00E9455028091A80B9091A90B009783
:1029B000C9F48091A60B9091A70B009711F40C9489
:1029C000DC128130910519F462E875E004C00297C9
:1029D00031F46CE875E08AE99BE00C942D2881E0E5
:1029E00090E008C28130910509F09BC08091A60B50
:1029F0009091A70B009779F466E975E08AE99BE06E
:102A00000E942D2841E060E08AE99BE00E94630279
:102A10006FE975E09DC08130910579F463EC75E054
:102A20008AE99BE00E942D2841E060E08AE99BE072
:102A30000E94630265ED75E011C082309105D9F402
:102A40006EEF75E08AE99BE00E942D2841E060E08E
:102A50008AE99BE00E94630260E176E08AE99BE0FC
:102A60000E942D2842E060E08AE99BE00E94630218
:102A700068EE75E01DC08330910539F56EEF75E0A5
:102A80008AE99BE00E942D2841E060E08AE99BE012
:102A90000E94630265ED75E08AE99BE00E942D28A3
:102AA00042E060E08AE99BE00E94630263E276E034
:102AB0008AE99BE00E942D2843E060E08AE99BE0E0
:102AC0000E94630263EF75E086CF049739F56EEFDD
:102AD00075E08AE99BE00E942D2841E060E08AE9E8
:102AE0009BE00E94630265ED75E08AE99BE00E942D
:102AF0002D2842E060E08AE99BE00E94630268EED4
:102B000075E08AE99BE00E942D2843E060E08AE9B5
:102B10009BE00E9463026EE276E05DCF82E090E08F
:102B200069C18230910569F58091A60B9091A70B40
:102B30000097D9F469E376E08AE99BE00E942D28AA
:102B400041E060E08AE99BE00E94630262E476E093
:102B50008AE99BE00E942D2842E060E08AE99BE040
:102B60000E9463026FEA75E030C020911B02309131
:102B70001C022817390710F00C94481183E090E0EC
:102B800039C18330910509F07DC08091A60B9091E9
:102B9000A70B009739F569E376E08AE99BE00E948C
:102BA0002D2841E060E08AE99BE00E9463026FE922
:102BB00075E08AE99BE00E942D2842E060E08AE906
:102BC0009BE00E94630262E576E08AE99BE00E9456
:102BD0002D2843E060E08AE99BE00E9463026AEBF3
:102BE00075E0F9CE8130910579F46DE576E08AE9FA
:102BF0009BE00E942D2841E060E08AE99BE00E9472
:102C000063026FE676E011C082309105D9F463E982
:102C100076E08AE99BE00E942D2841E060E08AE9A5
:102C20009BE00E94630265EA76E08AE99BE00E94ED
:102C30002D2842E060E08AE99BE00E94630260E8A0
:102C400076E0C9CE0397D9F463E976E08AE99BE0A0
:102C50000E942D2841E060E08AE99BE00E94630227
:102C60006FE676E08AE99BE00E942D2842E060E072
:102C70008AE99BE00E94630266EB76E0ACCE84E0DA
:102C800090E0B8C0049709F0B3C08091A60B909172
:102C9000A70B009739F569E376E08AE99BE00E948B
:102CA0002D2841E060E08AE99BE00E9463026FE921
:102CB00075E08AE99BE00E942D2842E060E08AE905
:102CC0009BE00E9463026FEA75E08AE99BE00E9444
:102CD0002D2843E060E08AE99BE00E94630269ECF2
:102CE00076E079CE8130910579F462ED76E08AE97B
:102CF0009BE00E942D2841E060E08AE99BE00E9471
:102D0000630265EE76E011C082309105D9F462E18C
:102D100077E08AE99BE00E942D2841E060E08AE9A3
:102D20009BE00E94630265E277E08AE99BE00E94F3
:102D30002D2842E060E08AE99BE00E94630265EF93
:102D400076E01DC08330910539F562E177E08AE9CC
:102D50009BE00E942D2841E060E08AE99BE00E9410
:102D6000630265EE76E08AE99BE00E942D2842E04E
:102D700060E08AE99BE00E94630265E377E08AE90C
:102D80009BE00E942D2843E060E08AE99BE00E94DE
:102D9000630267E077E01FCE049739F562E177E0E0
:102DA0008AE99BE00E942D2841E060E08AE99BE0EF
:102DB0000E94630265EE76E08AE99BE00E942D287E
:102DC00042E060E08AE99BE00E94630265EF76E002
:102DD0008AE99BE00E942D2843E060E08AE99BE0BD
:102DE0000E94630267E477E0F6CD85E090E002C0E0
:102DF00086E090E00C94590D0F93CF93DF93CDB7FD
:102E0000DEB727970FB6F894DEBF0FBECDBF425B8B
:102E10004F836E838D832B830A831982CE010196A3
:102E20000E94C70547E050E00E94CA0487E090E096
:102E30000E940D0327960FB6F894DEBF0FBECDBFDC
:102E4000DF91CF910F910895EF920F93CF93DF937E
:102E5000CDB7DEB7A4970FB6F894DEBF0FBECDBFD7
:102E6000809124028B3308F087C0009124022091C6
:102E7000230260912602809127020F5F4091210278
:102E800050912202E12C0E94FC166091240270E015
:102E90006F5F7F4F4AE0CE0101960E94402960910A
:102EA00023024AE0CE0107960E9413296091210275
:102EB000709122024AE0CE010D960E944029609155
:102EC00026024AE0CE0143960E9413296091270210
:102ED0004AE0CE014F960E94132962E577E0CE01C9
:102EE00049960E94C528BE01615E7F4FCE0149967A
:102EF0000E94D8296BE075E00E94EB29BE016D5E4F
:102F00007F4F0E94D8296BE075E00E94EB29BE013B
:102F1000635F7F4F0E94D82968E375E00E94EB2928
:102F2000BE01695F7F4F0E94D82968E67AE00E945F
:102F3000EB29BE016F5F7F4F0E94D829BC0189EB4E
:102F40009BE00E943328CE0149960E945728CE016B
:102F50004F960E945728CE0143960E945728CE01D3
:102F60000D960E945728CE0107960E945728CE0141
:102F700001960E94572853C0809124028B3309F098
:102F80004EC080912302873170F42091230260911A
:102F90002602809127022F5F409121025091220248
:102FA000E12C00E03AC0809123028731C1F5909175
:102FB0002702E0912602F0E0E85FFD4F808140911A
:102FC000210250912202981320C0809126028C3059
:102FD000A1F44F5F5F4FE12C00E020E061E081E071
:102FE0000E94FC168091210290912202019683702A
:102FF0009927892B39F18CE126C0609126026F5FF9
:10300000E12C00E020E081E008C060912602809180
:103010002702E12C00E020E08F5F0E94FC168091E7
:103020002302811113C08091240281110FC060918D
:1030300026028091270240912102509122020E9493
:10304000211004C08DE180930A02E9CFA4960FB647
:10305000F894DEBF0FBECDBFDF91CF910F91EF90FF
:103060000895CF93C82F893088F561E00E945125DB
:10307000C13019F4C093990B29C0C23021F481E00A
:103080008093980B23C0C33021F481E08093970B89
:103090001DC0C43021F481E08093960B17C0C53069
:1030A00021F481E08093950B11C0C63021F481E0BA
:1030B0008093940B0BC0C73021F481E08093930B75
:1030C00005C0C83019F481E08093920BCF91089528
:1030D000CF93C82F893050F560E00E945125C13050
:1030E00019F41092990B22C0C23019F41092980B67
:1030F0001DC0C33019F41092970B18C0C43019F4D6
:103100001092960B13C0C53019F41092950B0EC097
:10311000C63019F41092940B09C0C73019F41092FC
:10312000930B04C0C83011F41092920BCF91089504
:10313000DF92EF92FF920F931F93CF93DF93CDB760
:10314000DEB72C970FB6F894DEBF0FBECDBF89EB6C
:103150009BE00E942F286DE677E089EB9BE00E94C0
:1031600045286CE877E089EB9BE00E9445286DE6F6
:1031700077E089EB9BE00E9445280E94B1100E94F5
:10318000DC120E943703E12CF12C44E1D42E6CE1D7
:1031900078E089EB9BE00E9445284AE06E2DCE0145
:1031A00007960E9413296CEA77E0CE0101960E94EF
:1031B000C528BE01695F7F4FCE0101960E94D829C4
:1031C0006CED77E00E94EB29BC0189EB9BE00E944B
:1031D0001F28CE0101960E945728CE0107960E9413
:1031E0005728DE9C8001DF9C100D1124085D1D4FC7
:1031F000F8018081813009F0A3C066EB77E089EBAC
:103200009BE00E942D28F8018281813041F564EC19
:1032100077E089EB9BE00E942D289091230280911A
:10322000AA0B981778F0909124028091AB0B981715
:1032300048F0F8018681813009F0A4C0F80181814D
:103240000E943118DE9CF001DF9CF00D1124E85D36
:10325000FD4F8681813009F47DC086817BC0F801F5
:103260008281823019F46AEC77E070C0F8018281C3
:1032700081115FC061ED77E089EB9BE00E942D2812
:103280006CE178E089EB9BE00E9445289091230255
:103290008091AD0B981718F060EE77E002C067EEF2
:1032A00077E089EB9BE00E942D2890912402809189
:1032B000AC0B981738F060EE77E089EB9BE00E944A
:1032C000452806C06FEE77E089EB9BE00E942D2831
:1032D000909123028091AA0B891718F067EF77E08D
:1032E00002C06EEF77E089EB9BE00E942D28909161
:1032F00024028091AB0B981738F466E078E089EBF4
:103300009BE00E94452806C06CE078E089EB9BE0DA
:103310000E942D28909123028091AD0B9817B8F14F
:10332000909124028091AC0B981788F16AE278E0C2
:103330003CC0F8018281833069F464E178E006C022
:10334000F8018081811106C06DE178E089EB9BE096
:103350000E942D28FFEFEF1AFF0A84E1E816F1041E
:1033600009F015CF0E9424172C960FB6F894DEBFF3
:103370000FBECDBFDF91CF911F910F91FF90EF90C6
:10338000DF900895F80181810E9468185BCF9091C9
:1033900023028091AA0B8917B8F0909124028091A2
:1033A000AB0B981788F467E378E089EB9BE00E9409
:1033B0004528DE9CF001DF9CF00D1124E85DFD4FF7
:1033C00081810E943118C6CFDE9CF001DF9CF00D98
:1033D0001124E85DFD4F81810E9468186FE978E053
:1033E00089EB9BE00E944528B5CF8AE99BE00E94CB
:1033F000AD0226E040E855E260E070E089EB9BE03A
:103400000E94C22667E478E08AE99BE00E942D28AA
:1034100067E478E089EB9BE00E94452868EE73E062
:1034200080E090E00E942F2461E08DE00E9418254A
:1034300061E08DE00E94512560E08FE20E94182536
:1034400060E08DE20E94182560E083E20E9418256A
:1034500060E087E20E94182561E080E00E94182564
:1034600061E081E00E94182561E082E00E94182559
:1034700061E083E00E94182561E084E00E94182545
:1034800061E085E00E94182561E086E00E94182531
:1034900061E087E00E94182560E080E00E945125ED
:1034A00060E081E00E94512560E082E00E945125A9
:1034B00060E083E00E94512560E084E00E94512595
:1034C00060E085E00E94512560E086E00E94512581
:1034D00060E087E00E9451250E940A0E0E94B11010
:1034E0006091260280912702409121025091220290
:1034F0000E9421100E94370342E050E065E57DE024
:1035000080E00E94F9210E9498188AE99BE00E94BD
:1035100055020E94DC120E94F80E64E578E089EB07
:103520009BE00C94452883E20E948725019799F03F
:1035300087E20E948725019781F08DE20E9487250E
:10354000019769F08FE20E948725019711F483E6C5
:10355000089580E3089585E7089584E608958FE649
:103560000895EF92FF920F931F93CF93DF931F92D3
:10357000CDB7DEB78091A60B8150898341E062E030
:103580008AE99BE00E9463028AE99BE00E949F0215
:1035900080E38093160260EA70E080E090E00E9491
:1035A0002F2414E101E070E3F72E809116028F368C
:1035B000A1F10E94931A80931602843611F0853788
:1035C000A1F7E9811E9FF0011124E85DFD4F808184
:1035D000E9811E9FF0011124E85DFD4F813011F457
:1035E00010820AC08081811107C0E9811E9FF0010D
:1035F0001124E85DFD4F0083F09216020E944811ED
:1036000041E062E08AE99BE00E94630260EA70E0C8
:1036100080E090E00E942F24C8CF60EA70E080E054
:1036200090E00E942F2480E380931602E98184E1D8
:10363000E89FF0011124E85DFD4F8081813091F019
:1036400010E31093160260EA70E080E090E00E94C0
:103650002F240E94810E109316028AE99BE00E949B
:103660009802D9C140E06AE08AE99BE00E946302C7
:1036700000E314E1809116028F36E9F100931602FF
:103680000E94931A80931602853791F4E9811E9F58
:10369000F0011124E85DFD4F8181883058F7E98100
:1036A0001E9FF0011124E85DFD4F81818F5F13C0E3
:1036B000843601F7E9811E9FF0011124E85DFD4F7A
:1036C00081818230B8F2E9811E9FF0011124E85D0A
:1036D000FD4F8181815081830E94481140E06AE062
:1036E0008AE99BE00E94630260EA70E080E090E07B
:1036F0000E942F24BFCF80E38093160260EA70E01F
:1037000080E090E00E942F2441E06AE08AE99BE09B
:103710000E94630200E314E1809116028F36E9F102
:10372000009316020E94931A80931602853791F433
:10373000E9811E9FF0011124E85DFD4F82818330F5
:1037400058F7E9811E9FF0011124E85DFD4F828149
:103750008F5F13C0843601F7E9811E9FF0011124A9
:10376000E85DFD4F82818823B9F2E9811E9FF00157
:103770001124E85DFD4F8281815082830E944811AF
:1037800041E06AE08AE99BE00E94630260EA70E03F
:1037900080E090E00E942F24BFCF80E38093160248
:1037A00060EA70E080E090E00E942F24E98184E1EB
:1037B000E89FF0011124E85DFD4F8281882309F420
:1037C0003FCF42E06AE08AE99BE00E94630214E195
:1037D00001E052E0F52E60E3E62E809116028F366E
:1037E000A1F10E94931A80931602843611F0853756
:1037F000A1F7E9811E9FF0011124E85DFD4F86814C
:10380000E9811E9FF0011124E85DFD4F813011F424
:10381000F6820AC08681823039F4E9811E9FF00168
:103820001124E85DFD4F0683E09216020E944811C4
:1038300042E06AE08AE99BE00E94630260EA70E08D
:1038400080E090E00E942F24C8CF80E3809316028E
:1038500060EA70E080E090E00E942F24E98184E13A
:10386000E89FF0011124E85DFD4F8281833009F06B
:10387000E7CE43E06DE08AE99BE00E94630214E139
:10388000809116028F3621F160EA70E080E090E0CE
:103890000E942F240E94931A80931602853709F004
:1038A00045C08091A60B9091A70B189FF001199F1E
:1038B000F00D1124E85DFD4F8481873108F7E9811F
:1038C0001E9FF0011124E85DFD4F84818F5F48C089
:1038D00043E060E18AE99BE00E94630280E3809319
:1038E000160214E1809116028F3609F4A9CE60EA1F
:1038F00070E080E090E00E942F240E94931A809351
:103900001602853709F044C0E9811E9FF001112499
:10391000E85DFD4F85818B3328F7E9811E9FF0011B
:103920001124E85DFD4F85818F5F46C0843609F024
:10393000A7CFE9811E9FF0011124E85DFD4F84812E
:10394000882309F49DCF8091A60B9091A70B189F17
:10395000F001199FF00D1124E85DFD4F8481815025
:10396000848343E06DE08AE99BE00E946302E98181
:103970001E9FF0011124E85DFD4F848190E00E94BC
:10398000051143E06DE08AE99BE00E94630278CF75
:10399000843651F5E9811E9FF0011124E85DFD4F49
:1039A0008581882309F49ECFE9811E9FF0011124AF
:1039B000E85DFD4F85818150858343E060E18AE9C0
:1039C0009BE00E946302E9811E9FF0011124E85DE3
:1039D000FD4F858190E00E94051143E060E18AE996
:1039E0009BE00E9463027ECF833609F07BCF8AE999
:1039F0009BE00E9455028AE99BE00E9498026EEFCC
:103A000079E08AE99BE00E942D2868EE73E080E06F
:103A100090E00E942F240F90DF91CF911F910F9182
:103A2000FF90EF9008958F929F92AF92BF92CF92A6
:103A3000DF92EF920F931F93CF93DF93CDB7DEB753
:103A4000A4970FB6F894DEBF0FBECDBFA0902102A1
:103A5000B0902202C0902602909027028AE99BE053
:103A60000E94550268E07AE08AE99BE00E942D28D6
:103A70008AE99BE00E949F0242E060E08AE99BE0C5
:103A80000E9463026DE17AE08AE99BE00E942D28A2
:103A900042E06CE08AE99BE00E9463024AE0B501E3
:103AA000CE0101960E946C29BE016F5F7F4F8AE9AB
:103AB0009BE00E941F28CE0101960E94572842E0F9
:103AC0006FE08AE99BE00E94630280E38093160224
:103AD000809116028F3609F455C060EA70E080E0EC
:103AE00090E00E942F240E94931A8093160285373B
:103AF00049F484E3A81688E0B80650F78FEFA81AB7
:103B0000B80A0AC0843631F583EBA81687E0B806F8
:103B1000F8F281E0A81AB10842E06CE08AE99BE083
:103B20000E9463024AE0B501CE0101960E946C2911
:103B3000BE016F5F7F4F8AE99BE00E941F28CE0184
:103B400001960E94572842E06FE08AE99BE00E94BC
:103B50006302BECF833609F0BBCF8AE99BE00E94A7
:103B600055028AE99BE00E9498026EEF79E08AE9AB
:103B70009BE00E942D2868EE73E080E090E00E94B8
:103B80002F2493C1D12C80E3809316028AE99BE015
:103B90000E94550268E07AE08AE99BE00E942D28A5
:103BA00042E060E08AE99BE00E94630263E27AE01F
:103BB0008AE99BE00E942D2842E06EE08AE99BE0C2
:103BC0000E946302C6010E94051142E06FE08AE98B
:103BD0009BE00E9463028AE99BE00E949F02809121
:103BE00016028F3681F160EA70E080E090E00E947A
:103BF0002F240E94931A80931602853741F48CE09B
:103C0000C816D10460F78FEFC81AD80A09C08436E5
:103C1000B9F482E0C816D10410F381E0C81AD108C3
:103C200042E06EE08AE99BE00E946302C6010E94C6
:103C3000051142E06FE08AE99BE00E946302CFCF6A
:103C4000833669F68ACF82E0C816D10429F495013B
:103C500023703327232B29F0F601E85FFD4F008105
:103C600001C00DE110E0892D90E048018017910717
:103C700008F44C0180E3809316028AE99BE00E94DD
:103C8000550268E07AE08AE99BE00E942D2842E034
:103C900060E08AE99BE00E94630269E27AE08AE9D7
:103CA0009BE00E942D2842E06EE08AE99BE00E94A2
:103CB0006302C4010E94051142E06FE08AE99BE0C3
:103CC0000E9463028AE99BE00E949F028091160293
:103CD0008F3679F160EA70E080E090E00E942F2456
:103CE0000E94931A80931602853739F48016910644
:103CF00068F78FEF881A980A09C08436B9F482E011
:103D00008816910418F381E0881A910842E06EE069
:103D10008AE99BE00E946302C4010E94051142E00F
:103D20006FE08AE99BE00E946302D0CF833671F690
:103D300014CF8AE99BE00E9455028AE99BE00E9429
:103D400098020091240220912302E12CA5016C2D00
:103D5000882D0E947C10609124024AE0CE010196D9
:103D60000E941329609123024AE0CE0107960E9427
:103D700013294AE0B501CE010D960E946C294AE054
:103D8000B601CE0143960E946C294AE0B401CE01EF
:103D90004F960E946C296FE27AE0CE0149960E940C
:103DA000C528BE01615E7F4FCE0149960E94D82989
:103DB0006FE20E94052ABE016D5E7F4F0E94D829E6
:103DC0006FE20E94052ABE01635F7F4F0E94D829DF
:103DD00069E00E94052ABE01695F7F4F0E94D829D1
:103DE0006AE30E94052ABE016F5F7F4F0E94D829B7
:103DF000BC0189EB9BE00E943328CE0149960E94CA
:103E00005728CE014F960E945728CE0143960E9414
:103E10005728CE010D960E945728CE0107960E9482
:103E20005728CE0101960E94572841E062E08AE9B6
:103E30009BE00E94630261E47AE08AE99BE00E94D1
:103E40002D2842E063E08AE99BE00E946302C401FE
:103E50000E9405116BE075E08AE99BE00E942D2825
:103E6000C6010E9405116BE075E08AE99BE00E94A3
:103E70002D28C5010E94051160912602809127021C
:103E800040912102509122020E94211060ED77E0C2
:103E900080E090E00E942F248AE99BE00E94550276
:103EA0000E94981880E380931602A4960FB6F894A7
:103EB000DEBF0FBECDBFDF91CF911F910F91EF906D
:103EC000DF90CF90BF90AF909F908F900895AF926A
:103ED000BF92CF92DF92EF920F93CF93DF93CDB744
:103EE000DEB7A4970FB6F894DEBF0FBECDBFA0908B
:103EF0002302B12CC0902402D12C80E380931602BF
:103F00008AE99BE00E94550260E57AE08AE99BE03D
:103F10000E942D2841E060E08AE99BE00E94630254
:103F200064E67AE08AE99BE00E942D288AE99BE01A
:103F30000E949F0241E06BE08AE99BE00E946302DD
:103F4000C5010E94051168E67AE08AE99BE00E94BB
:103F50002D28C6010E94051141E06CE08AE99BE032
:103F60000E946302809116028F36D9F160EA70E0F8
:103F700080E090E00E942F240E94931A8093160202
:103F8000853741F487E1A816B10460F78FEFA81ACE
:103F9000B80A08C0843671F4A114B10419F381E0A1
:103FA000A81AB10841E06BE08AE99BE00E94630235
:103FB000C501D0CF8336B1F68AE99BE00E94550255
:103FC0008AE99BE00E9498026EEF79E08AE99BE023
:103FD0000E942D2868EE73E080E090E00E942F247C
:103FE000F9C041E060E08AE99BE00E9463026AE672
:103FF0007AE08AE99BE00E942D2841E06FE08AE99F
:104000009BE00E94630280E3809316028091160277
:104010008F3679F160EA70E080E090E00E942F2412
:104020000E94931A80931602853741F48BE3C816D9
:10403000D10460F78FEFC81AD80A08C08436B1F4EB
:10404000C114D10419F381E0C81AD10841E06EE02F
:104050008AE99BE00E946302C6010E94051141E0CB
:104060006FE08AE99BE00E946302D0CF833671F64D
:10407000A3CF8AE99BE00E9455028AE99BE00E9457
:10408000980260912602809127024091210250916E
:104090002202E12C0C2D2A2D0E947C104AE0B60150
:1040A000CE0101960E946C294AE0B501CE01079627
:1040B0000E946C2960912102709122024AE0CE0197
:1040C0000D960E944029609126024AE0CE01439657
:1040D0000E941329609127024AE0CE014F960E9468
:1040E000132962E77AE0CE0149960E94C528BE01F5
:1040F000615E7F4FCE0149960E94D8296FE20E94EF
:10410000052ABE016D5E7F4F0E94D8296FE20E9492
:10411000052ABE01635F7F4F0E94D82969E00E9493
:10412000052ABE01695F7F4F0E94D8296AE30E9479
:10413000052ABE016F5F7F4F0E94D829BC0189EB21
:104140009BE00E943328CE0149960E945728CE0159
:104150004F960E945728CE0143960E945728CE01C1
:104160000D960E945728CE0107960E945728CE012F
:1041700001960E94572841E062E08AE99BE00E9494
:10418000630261E47AE08AE99BE00E942D2842E024
:1041900065E08AE99BE00E946302C5010E94051167
:1041A00068E67AE08AE99BE00E942D28C6010E9419
:1041B000051160ED77E080E090E00E942F240E94DE
:1041C00098188AE99BE00E94550280E380931602CA
:1041D0000E94DC12A4960FB6F894DEBF0FBECDBFCE
:1041E000DF91CF910F91EF90DF90CF90BF90AF9084
:1041F00008958091A80B9091A90B8130910569F4E5
:104200008091A60B9091A70B8130910511F40C942D
:10421000671F0297D9F40C94131D8230910511F495
:104220000C94B11A049791F48091A60B9091A70B6E
:104230008130910511F40C94810E8230910511F4B6
:104240000C940A0E039711F40C948C0D0895809130
:10425000A60B9091A70B209116020097A1F524368A
:1042600069F48091A80B9091A90B8430910508F016
:1042700051C0009709F44EC001961DC0253751F476
:104280008091A80B9091A90B8230910508F442C04F
:10429000019711C0233629F41092A90B1092A80B94
:1042A00039C02F36B9F58091A80B9091A90B892BB5
:1042B00039F481E090E09093A90B8093A80B2AC079
:1042C00081E090E010C0243699F4E091A80BF091C1
:1042D000A90BEE0FFF1FE95EFD4F20813181821790
:1042E0009307C0F401969093A70B8093A60B12C07E
:1042F000253729F48230910568F00197F4CF2336F1
:1043000029F41092A70B1092A60B04C02F3611F4BB
:104310000E94F9200C94CF1460EA70E080E090E0F5
:104320000E942F240E94931A80931602803329F052
:104330000E94272180E3809316022091AE0B80918A
:10434000A80B9091A90B892B31F4222321F0109214
:10435000AE0B0E9498188091A80B9091A90B892B05
:10436000D9F58091A60B9091A70B892BA9F56AEF3F
:1043700070E080E090E00E942F240E94931A8093C6
:104380001602803329F00E94272180E380931602D1
:104390006AEF70E080E090E00E942F248091AF0BE4
:1043A00091E089278093AF0B6091AF0B8DE00E9465
:1043B000512541E064E08AE99BE00E94630280911C
:1043C000AF0B811103C068E375E002C068E67AE0D4
:1043D0008AE99BE00C942D2808950F9300E024E0D7
:1043E00044E167E28AE99BE00E94E1010F910895B0
:1043F0000895883008F06DC0E82FF0E0EE0FFF1F41
:10440000E654FC4F7183608390E0FC013197E73004
:10441000F10590F5EE58FF4F0C94BF2D8091690087
:104420008C7F842B80936900E89A089580916900BD
:10443000440F551F440F551F837F842B80936900C1
:10444000E99A08958091690074E0440F551F7A95A8
:10445000E1F78F7C842B80936900EA9A089580911C
:10446000690066E0440F551F6A95E1F78F73842B4E
:1044700080936900EB9A089580916A008C7F842B69
:1044800080936A00EC9A089580916A00440F551F4A
:10449000440F551F837F842B80936A00ED9A089503
:1044A00080916A0024E0440F551F2A95E1F78F7C24
:1044B000842B80936A00EE9A089580916A0096E0BA
:1044C000440F551F9A95E1F78F73842B80936A00F0
:1044D000EF9A08951F920F920FB60F9211240BB608
:1044E0000F922F933F934F935F936F937F938F938D
:1044F0009F93AF93BF93EF93FF93E091BE03F0912F
:10450000BF031995FF91EF91BF91AF919F918F914B
:104510007F916F915F914F913F912F910F900BBEC3
:104520000F900FBE0F901F9018951F920F920FB60D
:104530000F9211240BB60F922F933F934F935F93DB
:104540006F937F938F939F93AF93BF93EF93FF935B
:10455000E091C003F091C1031995FF91EF91BF91D4
:10456000AF919F918F917F916F915F914F913F910B
:104570002F910F900BBE0F900FBE0F901F901895AC
:104580001F920F920FB60F9211240BB60F922F931A
:104590003F934F935F936F937F938F939F93AF93CB
:1045A000BF93EF93FF93E091C203F091C30319957A
:1045B000FF91EF91BF91AF919F918F917F916F91FB
:1045C0005F914F913F912F910F900BBE0F900FBEB7
:1045D0000F901F9018951F920F920FB60F921124F3
:1045E0000BB60F922F933F934F935F936F937F93ED
:1045F0008F939F93AF93BF93EF93FF93E091C40387
:10460000F091C5031995FF91EF91BF91AF919F91E3
:104610008F917F916F915F914F913F912F910F906B
:104620000BBE0F900FBE0F901F9018951F920F9208
:104630000FB60F9211240BB60F922F933F934F9307
:104640005F936F937F938F939F93AF93BF93EF93FA
:10465000FF93E091BA03F091BB031995FF91EF919D
:10466000BF91AF919F918F917F916F915F914F918A
:104670003F912F910F900BBE0F900FBE0F901F9088
:1046800018951F920F920FB60F9211240BB60F922E
:104690002F933F934F935F936F937F938F939F934A
:1046A000AF93BF93EF93FF93E091BC03F091BD03F1
:1046B0001995FF91EF91BF91AF919F918F917F914C
:1046C0006F915F914F913F912F910F900BBE0F9083
:1046D0000FBE0F901F9018951F920F920FB60F925A
:1046E00011240BB60F922F933F934F935F936F93C9
:1046F0007F938F939F93AF93BF93EF93FF93E0913B
:10470000C603F091C7031995FF91EF91BF91AF9147
:104710009F918F917F916F915F914F913F912F91D9
:104720000F900BBE0F900FBE0F901F9018951F9209
:104730000F920FB60F9211240BB60F922F933F9347
:104740004F935F936F937F938F939F93AF93BF9399
:10475000EF93FF93E091C803F091C9031995FF917E
:10476000EF91BF91AF919F918F917F916F915F91E9
:104770004F913F912F910F900BBE0F900FBE0F9056
:104780001F9018951F920F920FB60F9211242F931E
:104790003F938F939F93AF93BF938091B10B909171
:1047A000B20BA091B30BB091B40B3091B00B23E0DE
:1047B000230F2D3720F40196A11DB11D05C026E859
:1047C000230F0296A11DB11D2093B00B8093B10B56
:1047D0009093B20BA093B30BB093B40B8091B50B35
:1047E0009091B60BA091B70BB091B80B0196A11D9B
:1047F000B11D8093B50B9093B60BA093B70BB093FC
:10480000B80BBF91AF919F918F913F912F910F90D6
:104810000FBE0F901F9018953FB7F8948091B50B7D
:104820009091B60BA091B70BB091B80B26B5A89B91
:1048300005C02F3F19F00196A11DB11D3FBF66278E
:10484000782F892F9A2F620F711D811D911D42E0D3
:10485000660F771F881F991F4A95D1F70895CF9249
:10486000DF92EF92FF92CF93DF936B017C010E9466
:104870000C24EB01C114D104E104F10489F00E947D
:10488000132A0E940C246C1B7D0B683E734090F32E
:1048900081E0C81AD108E108F108C851DC4FEACF1D
:1048A000DF91CF91FF90EF90DF90CF90089582300D
:1048B000910538F0880F991F880F991F0597019768
:1048C000F1F70895789484B5826084BD84B58160E1
:1048D00084BD85B5826085BD85B5816085BDEEE608
:1048E000F0E0808181608083E1E8F0E010828081E7
:1048F00082608083808181608083E0E8F0E0808155
:1049000081608083E1EBF0E0808184608083E0EB74
:10491000F0E0808181608083E1E9F0E08081826065
:104920008083808181608083E0E9F0E08081816024
:104930008083E1EAF0E08081826080838081816011
:104940008083E0EAF0E0808181608083E1E2F1E051
:10495000808182608083808181608083E0E2F1E0F9
:10496000808181608083EAE7F0E0808184608083D9
:104970008081826080838081816080838081806883
:1049800080831092C100089590E0FC013197E231DC
:10499000F10508F04CC0E758FF4F0C94BF2D8091F3
:1049A00080008F7703C0809180008F7D809380008E
:1049B000089580918000877FF9CF84B58F7702C0FA
:1049C00084B58F7D84BD08958091B0008F7703C03A
:1049D0008091B0008F7D8093B00008958091900009
:1049E0008F7707C0809190008F7D03C080919000E9
:1049F000877F8093900008958091A0008F7707C0F3
:104A00008091A0008F7D03C08091A000877F80935C
:104A1000A0000895809120018F7707C08091200128
:104A20008F7D03C080912001877F809320010895AE
:104A3000CF93DF9390E0FC01E658FD4F2491FC01F9
:104A4000E054FD4F8491882349F190E0880F991F2D
:104A5000FC01E65CFC4FA591B491805E9C4FFC018B
:104A6000C591D4919FB7611108C0F8948C9120959D
:104A700082238C93888182230AC0623051F4F89497
:104A80008C91322F309583238C938881822B88835D
:104A900004C0F8948C91822B8C939FBFDF91CF91AF
:104AA00008950F931F93CF93DF931F92CDB7DEB777
:104AB000282F30E0F901EC5CFD4F8491F901E658B4
:104AC000FD4F1491F901E054FD4F04910023C9F00A
:104AD000882321F069830E94C4246981E02FF0E0DB
:104AE000EE0FFF1FE05EFC4FA591B4919FB7F894C5
:104AF0008C91611103C01095812301C0812B8C938F
:104B00009FBF0F90DF91CF911F910F910895CF9389
:104B1000DF93282F30E0F901EC5CFD4F8491F9011F
:104B2000E658FD4FD491F901E054FD4FC491CC23D8
:104B300091F081110E94C424EC2FF0E0EE0FFF1FD2
:104B4000EA5FFC4FA591B4912C912D2381E090E078
:104B500021F480E002C080E090E0DF91CF910895E1
:104B6000FC01818D228D90E0805C9F4F821B91091A
:104B70008F7399270895FC01918D828D981731F0DC
:104B8000828DE80FF11D858D90E008958FEF9FEFE6
:104B90000895FC01918D828D981761F0828DDF015F
:104BA000A80FB11D5D968C91928D9F5F9F73928F20
:104BB00090E008958FEF9FEF089584E897E2892BA6
:104BC00041F080E090E0892B21F00E948427811140
:104BD00025C080E090E0892B41F080E090E0892BB7
:104BE00021F00E94000081111CC080E090E0892B20
:104BF00041F080E090E0892B21F00E9400008111BB
:104C000013C080E090E0892BA1F080E090E0892B38
:104C100081F00E94000081110AC008950E940000E6
:104C2000D8CF0E940000E1CF0E940000EACF0C9490
:104C300000000895FC01848DDF01A80FB11DA35A67
:104C4000BF4F2C91848D90E001968F739927848FAC
:104C5000A689B7892C93A089B1898C9180648C93A3
:104C6000938D848D981306C00288F389E02D80818E
:104C70008F7D80830895CF93DF93EC01888D882307
:104C8000C9F0EA89FB89808185FD05C0A889B989B9
:104C90008C9186FD0FC00FB607FCF5CF808185FF94
:104CA000F2CFA889B9898C9185FFEDCFCE010E9402
:104CB0001A26E7CFDF91CF910895CF92DF92FF922E
:104CC0000F931F93CF93DF931F92CDB7DEB76C0185
:104CD00081E0D60158968C9358975B969C915B9790
:104CE0005C968C915C97981307C05096ED91FC915F
:104CF0005197808185FD2EC0F601038D10E00F5F76
:104D00001F4F0F731127F02EF601848DF81211C07A
:104D10000FB607FCF9CFD6015096ED91FC91519753
:104D2000808185FFF1CFC60169830E941A266981BF
:104D3000EBCF838DE80FF11DE35AFF4F6083D6015F
:104D40005B960C935B975296ED91FC915397808103
:104D500080620CC0D6015696ED91FC915797608306
:104D60005096ED91FC91519780818064808381E021
:104D700090E00F90DF91CF911F910F91FF90DF9006
:104D8000CF900895BF92CF92DF92EF92FF92CF9390
:104D9000DF93EC016A017B01B22EE889F98982E098
:104DA0008083411581EE580761057105A1F060E02F
:104DB00079E08DE390E0A70196010E947E2D2150BD
:104DC0003109410951095695479537952795211580
:104DD00080E1380798F0E889F989108260E874E882
:104DE0008EE190E0A70196010E947E2D21503109AD
:104DF000410951095695479537952795EC85FD85CD
:104E00003083EE85FF852083188EEC89FD89B08282
:104E1000EA89FB89808180618083EA89FB898081BE
:104E200088608083EA89FB89808180688083EA8941
:104E3000FB8980818F7D8083DF91CF91FF90EF9000
:104E4000DF90CF90BF9008951F920F920FB60F92F0
:104E500011240BB60F922F938F939F93EF93FF9391
:104E6000E091C90BF091CA0B8081E091CF0BF091DA
:104E7000D00B82FD12C090818091D20B8F5F8F7317
:104E80002091D30B821751F0E091D20BF0E0E75460
:104E9000F44F958F8093D20B01C08081FF91EF91E9
:104EA0009F918F912F910F900BBE0F900FBE0F907F
:104EB0001F9018951F920F920FB60F9211240BB6E8
:104EC0000F922F933F934F935F936F937F938F93A3
:104ED0009F93AF93BF93EF93FF9389EB9BE00E9467
:104EE0001A26FF91EF91BF91AF919F918F917F9182
:104EF0006F915F914F913F912F910F900BBE0F904B
:104F00000FBE0F901F90189589EB9BE00E94B02573
:104F100021E0892B09F420E0822F08951092BC0B28
:104F20001092BB0B88EE93E0A0E0B0E08093BD0B45
:104F30009093BE0BA093BF0BB093C00B87EB9AE08E
:104F40009093BA0B8093B90B85EC90E09093C60BCD
:104F50008093C50B84EC90E09093C80B8093C70BB3
:104F600080EC90E09093CA0B8093C90B81EC90E0A9
:104F70009093CC0B8093CB0B82EC90E09093CE0B74
:104F80008093CD0B86EC90E09093D00B8093CF0B69
:104F90001092D20B1092D30B1092D40B1092D50B0F
:104FA000089508950E9462240E94D1270E94F51955
:104FB000CDEDD5E20E948C212097E1F30E94DD2502
:104FC000F9CFCF92DF92EF92FF920F931F93CF937F
:104FD000DF937C016A01EB0100E010E00C151D0578
:104FE00071F06991D701ED91FC910190F081E02D74
:104FF000C7011995892B19F00F5F1F4FEFCFC8011B
:10500000DF91CF911F910F91FF90EF90DF90CF90A4
:1050100008956115710581F0DB010D900020E9F71D
:10502000AD0141505109461B570BDC01ED91FC913C
:105030000280F381E02D199480E090E00895DC0176
:10504000ED91FC91DB0114964D915C9115976D915A
:105050007C910280F381E02D19940C94092863EC73
:105060007AE00C9409280F931F93CF93DF93EC0100
:105070000E941F288C01CE010E942F28800F911FB3
:10508000DF91CF911F910F9108950F931F93CF93AD
:10509000DF93EC010E9409288C01CE010E942F2889
:1050A000800F911FDF91CF911F910F910895FC0107
:1050B000808191810C94922ECF93DF93EC018881B3
:1050C0009981009711F00E94922E198218821D82F8
:1050D0001C821B821A82DF91CF9108950F931F9338
:1050E000CF93DF93EC018B016F5F7F4F88819981B4
:1050F0000E94212F009731F0998388831B830A83B4
:1051000081E001C080E0DF91CF911F910F91089560
:10511000CF93DF93EC0188819981892B29F08A81D3
:105120009B818617970760F4CE010E946E28882322
:1051300041F08C819D81892B19F4E881F9811082DD
:1051400081E0DF91CF910895EF92FF920F931F932B
:10515000CF93DF93EC017B018A01BA010E9488287A
:10516000811104C0CE010E945C2807C01D830C83FE
:10517000B701888199810E941330CE01DF91CF91D0
:105180001F910F91FF90EF900895FC011182108202
:1051900013821282158214826115710559F0FB0188
:1051A00001900020E9F7AF0141505109461B570B10
:1051B0000C94A4280895CF93DF93EC01FB0186178C
:1051C000970761F0608171816115710529F0448153
:1051D00055810E94A42802C00E945C28CE01DF9164
:1051E000CF910895FC0111821082138212821582E0
:1051F00014820C94DB28CF93DF93EC0161157105C9
:1052000061F0FB0101900020E9F7AF014150510925
:10521000461B570B0E94A42802C00E945C28CE01A6
:10522000DF91CF9108950F931F93CF93DF93CDB765
:10523000DEB729970FB6F894DEBF0FBECDBF8C0145
:10524000862FF80111821082138212821582148235
:1052500050E0BE016F5F7F4F90E00E943030BE0192
:105260006F5F7F4FC8010E94FB2829960FB6F89404
:10527000DEBF0FBECDBFDF91CF911F910F9108957B
:105280000F931F93CF93DF93CDB7DEB762970FB61F
:10529000F894DEBF0FBECDBF8C01CB01F8011182A7
:1052A0001082138212821582148250E0BE016F5F59
:1052B0007F4F0E941A30BE016F5F7F4FC8010E946E
:1052C000FB2862960FB6F894DEBF0FBECDBFDF910C
:1052D000CF911F910F9108950F931F93CF93DF9359
:1052E000CDB7DEB761970FB6F894DEBF0FBECDBF66
:1052F0008C01CB01F8011182108213821282158277
:10530000148250E0BE016F5F7F4F0E943030BE01BB
:105310006F5F7F4FC8010E94FB2861960FB6F8941B
:10532000DEBF0FBECDBFDF91CF911F910F910895CA
:10533000EF92FF920F931F93CF93DF93EC017B01CA
:105340000C811D816115710511F480E016C04115B5
:10535000510591F0040F151FB8010E948828882379
:10536000A1F3288139818C819D81B701820F931F20
:105370000E9413301D830C8381E0DF91CF911F9138
:105380000F91FF90EF900895CF93DF931F921F929C
:10539000CDB7DEB769831A8241E050E0BE016F5F8E
:1053A0007F4F0E9498290F900F90DF91CF91089521
:1053B000CF93DF93EC01FB014481558160817181C2
:1053C0000E949829811103C0CE010E945C28CE0161
:1053D000DF91CF910895CF93DF93EC0161157105B3
:1053E00069F0FB0101900020E9F7AF01415051093C
:1053F000461B570B0E949829811103C0CE010E94C1
:105400005C28CE01DF91CF910895CF93DF93EC011B
:105410000E94C429811103C0CE010E945C28CE01E4
:10542000DF91CF91089508959F939F7749D10F9071
:1054300000203AF49058A2EA2AED3FE049E450E413
:1054400013D0E1C15058BB27AA270ED0DCC1A5D18B
:1054500030F0AAD120F031F49F3F11F41EF475C151
:105460000EF4E095E7FB6BC1E92FEFD180F3BA179B
:10547000620773078407950718F071F49EF507C259
:105480000EF4E0950B2EBA2FA02D0B01B90190015F
:105490000C01CA01A0011124FF27591B99F0593FA3
:1054A00050F4503E68F11A16F040A22F232F342FEB
:1054B0004427585FF3CF469537952795A795F04039
:1054C0005395C9F77EF41F16BA0B620B730B840B4E
:1054D000BAF09150A1F0FF0FBB1F661F771F881F06
:1054E000C2F70EC0BA0F621F731F841F48F487955E
:1054F00077956795B795F7959E3F08F0B3CF93954D
:10550000880F08F09927EE0F97958795089554D145
:10551000E3958AC10CD077C147D140F03ED130F03D
:1055200021F45F3F19F00BC15111B2C10EC18DD1F1
:1055300098F39923C9F35523B1F3951B550BBB275A
:10554000AA2762177307840738F09F5F5F4F220F07
:10555000331F441FAA1FA9F333D00E2E3AF0E0E800
:1055600030D091505040E695001CCAF729D0FE2F4C
:1055700027D0660F771F881FBB1F261737074807DE
:10558000AB07B0E809F0BB0B802DBF01FF27935894
:105590005F4F2AF09E3F510568F0D1C079C15F3F4F
:1055A000ECF3983EDCF3869577956795B795F7957C
:1055B0009F5FC9F7880F911D9695879597F9089574
:1055C000E1E0660F771F881FBB1F62177307840710
:1055D000BA0720F0621B730B840BBA0BEE1F88F71F
:1055E000E095089504D06894B11152C1089535D161
:1055F00088F09F5790F0B92F9927B751A0F0D1F0BC
:10560000660F771F881F991F1AF0BA95C9F712C045
:10561000B13081F03CD1B1E0089539C1672F782FC6
:105620008827B85F39F0B93FCCF3869577956795B1
:10563000B395D9F73EF490958095709561957F4F1D
:105640008F4F9F4F0895E89409C097FB3EF49095C3
:105650008095709561957F4F8F4F9F4F9923A9F04B
:10566000F92F96E9BB279395F695879577956795DA
:10567000B795F111F8CFFAF4BB0F11F460FF1BC01E
:105680006F5F7F4F8F4F9F4F16C0882311F096E9B1
:1056900011C0772321F09EE8872F762F05C066235F
:1056A00071F096E8862F70E060E02AF09A95660F18
:1056B000771F881FDAF7880F9695879597F90895D1
:1056C000DF93CF931F930F938B01EC01E6E1F1E0A1
:1056D0003FD099D09801AE018B01EC0160E070E001
:1056E00080E89FE3AFDE4BD19801AE010F911F918F
:1056F000CF91DF91E3C0990F0008550FAA0BE0E8A6
:10570000FEEF16161706E807F907C0F01216130683
:10571000E407F50798F0621B730B840B950B39F4C3
:105720000A2661F0232B242B252B21F408950A2629
:1057300009F4A140A6958FEF811D811D089597F969
:105740009F6780E870E060E008959FEF80EC089527
:10575000DF93CF931F930F93FF92EF92DF927B0122
:105760008C01689405C0DA2EEF01A8D0FE01E89400
:10577000A5912591359145915591AEF3EF0174DED8
:10578000FE019701A801DA9479F7DF90EF90FF907E
:105790000F911F91CF91DF91089500240A9416165E
:1057A000170618060906089500240A94121613060F
:1057B000140605060895C9CF50D0E8F3E894E0E058
:1057C000BB279F57F0F02AED3FE049EC06C0EE0FF3
:1057D000BB0F661F771F881F28F0B23A6207730756
:1057E000840728F0B25A620B730B840BE3959A95E9
:1057F00072F7803830F49A95BB0F661F771F881FA9
:10580000D2F790481CC1092E0394000C11F4882390
:1058100052F0BB0F40F4BF2B11F460FF04C06F5F68
:105820007F4F8F4F9F4F0895EF93E0FF06C0A2EA8E
:105830002AED3FE049EC5FEB17DEE5DF0F900394C4
:1058400001FC9058EEE3F1E00DC157FD9058440F74
:10585000551F59F05F3F71F04795880F97FB991FCF
:1058600061F09F3F79F0879508951216130614068C
:10587000551FF2CF4695F1DF08C016161706180619
:10588000991FF1CF86957105610508940895E894F4
:10589000BB2766277727CB0197F908952CDF08F4FB
:1058A0008FEF08950BD0AFCF78DF28F07DDF18F0B1
:1058B000952309F044CF49CF1124EACFC6DFA0F3E6
:1058C000959FD1F3950F50E0551F629FF001729F95
:1058D000BB27F00DB11D639FAA27F00DB11DAA1FB4
:1058E000649F6627B00DA11D661F829F2227B00D01
:1058F000A11D621F739FB00DA11D621F839FA00D8C
:10590000611D221F749F3327A00D611D231F849FDB
:10591000600D211D822F762F6A2F11249F57504032
:105920008AF0E1F088234AF0EE0FFF1FBB1F661FCD
:10593000771F881F91505040A9F79E3F510570F086
:10594000FECEA6CF5F3FECF3983EDCF386957795CD
:105950006795B795F795E7959F5FC1F7FE2B880F81
:10596000911D9695879597F908959F9325DF0F9040
:1059700007FCEE5F59CF11F40EF4E7CE5EC06DDF89
:10598000D0F39923D9F3CEF39F57550B87FF63D0FC
:105990000024A0E640EA900180585695979528F497
:1059A000805C660F771F881F20F02617370748078F
:1059B00030F4621B730B840B202931294A2BA695E6
:1059C00017940794202531254A2758F7660F771F2B
:1059D000881F20F026173707480730F4620B730B37
:1059E000840B200D311D411DA09581F7B901842F35
:1059F0009158880F969587950895DF93D92FDCDE0F
:105A0000E695D7952AED3FE049E45FE3B33A6207B4
:105A1000730784079507D7952AF0A2EA49EC9068A6
:105A200023DDF1DEECE5F1E01DD0DD0F0BF02BD036
:105A3000DD0F0BF49058DF9108959F3F31F09150A6
:105A400020F4879577956795B795880F911D969562
:105A5000879597F9089591505040660F771F881FDA
:105A6000D2F708959F938F937F936F93FF93EF9354
:105A70009B01AC0117DFEF91FF916ADE2F913F91FF
:105A80004F915F910FCF9B01AC0160E070E080E827
:105A90009FE340CD991B79E004C0991F961708F049
:105AA000961B881F7A95C9F780950895AA1BBB1B82
:105AB00051E107C0AA1FBB1FA617B70710F0A61B0E
:105AC000B70B881F991F5A95A9F780959095BC012F
:105AD000CD01089597FB072E16F4009407D077FDAB
